{
  "_format": "hh-sol-artifact-1",
  "contractName": "Questions",
  "sourceName": "contracts/Questions.sol",
  "abi": [
    {
      "inputs": [],
      "stateMutability": "nonpayable",
      "type": "constructor"
    },
    {
      "anonymous": false,
      "inputs": [
        {
          "indexed": false,
          "internalType": "uint256",
          "name": "_questionId",
          "type": "uint256"
        },
        {
          "indexed": false,
          "internalType": "string",
          "name": "_stimulus",
          "type": "string"
        }
      ],
      "name": "QuestionCreated",
      "type": "event"
    },
    {
      "inputs": [
        {
          "internalType": "uint256",
          "name": "qId",
          "type": "uint256"
        }
      ],
      "name": "closeQuestion",
      "outputs": [],
      "stateMutability": "nonpayable",
      "type": "function"
    },
    {
      "inputs": [
        {
          "internalType": "uint256",
          "name": "qId",
          "type": "uint256"
        }
      ],
      "name": "getQuestion",
      "outputs": [
        {
          "components": [
            {
              "internalType": "uint256",
              "name": "id",
              "type": "uint256"
            },
            {
              "internalType": "bool",
              "name": "active",
              "type": "bool"
            },
            {
              "internalType": "string",
              "name": "stimulus",
              "type": "string"
            },
            {
              "internalType": "uint256",
              "name": "ansCount",
              "type": "uint256"
            }
          ],
          "internalType": "struct Questions.Question",
          "name": "",
          "type": "tuple"
        }
      ],
      "stateMutability": "view",
      "type": "function"
    },
    {
      "inputs": [],
      "name": "getQuestionList",
      "outputs": [
        {
          "components": [
            {
              "internalType": "uint256",
              "name": "id",
              "type": "uint256"
            },
            {
              "internalType": "bool",
              "name": "active",
              "type": "bool"
            },
            {
              "internalType": "string",
              "name": "stimulus",
              "type": "string"
            },
            {
              "internalType": "uint256",
              "name": "ansCount",
              "type": "uint256"
            }
          ],
          "internalType": "struct Questions.Question[]",
          "name": "",
          "type": "tuple[]"
        }
      ],
      "stateMutability": "view",
      "type": "function"
    },
    {
      "inputs": [
        {
          "internalType": "string",
          "name": "stim",
          "type": "string"
        }
      ],
      "name": "initQuestion",
      "outputs": [],
      "stateMutability": "nonpayable",
      "type": "function"
    },
    {
      "inputs": [
        {
          "internalType": "uint256",
          "name": "qId",
          "type": "uint256"
        }
      ],
      "name": "scanSubmissions",
      "outputs": [
        {
          "components": [
            {
              "internalType": "address",
              "name": "submittedBy",
              "type": "address"
            },
            {
              "internalType": "string",
              "name": "submission",
              "type": "string"
            }
          ],
          "internalType": "struct Questions.Answer[]",
          "name": "",
          "type": "tuple[]"
        }
      ],
      "stateMutability": "view",
      "type": "function"
    },
    {
      "inputs": [
        {
          "internalType": "uint256",
          "name": "qId",
          "type": "uint256"
        },
        {
          "internalType": "address",
          "name": "user",
          "type": "address"
        },
        {
          "internalType": "string",
          "name": "sub",
          "type": "string"
        }
      ],
      "name": "submitAnswer",
      "outputs": [],
      "stateMutability": "nonpayable",
      "type": "function"
    }
  ],
  "bytecode": "0x60806040523480156200001157600080fd5b506200005d6040518060400160405280601981526020017f5175657374696f6e20696e7374616e63652063726561746564000000000000008152506200007360201b620009a81760201c565b6000600181905550600060028190555062000207565b62000113816040516024016200008a919062000180565b6040516020818303038152906040527f41304fac000000000000000000000000000000000000000000000000000000007bffffffffffffffffffffffffffffffffffffffffffffffffffffffff19166020820180517bffffffffffffffffffffffffffffffffffffffffffffffffffffffff83818316178352505050506200011660201b60201c565b50565b60008151905060006a636f6e736f6c652e6c6f679050602083016000808483855afa5050505050565b60006200014c82620001a4565b620001588185620001af565b93506200016a818560208601620001c0565b6200017581620001f6565b840191505092915050565b600060208201905081810360008301526200019c81846200013f565b905092915050565b600081519050919050565b600082825260208201905092915050565b60005b83811015620001e0578082015181840152602081019050620001c3565b83811115620001f0576000848401525b50505050565b6000601f19601f8301169050919050565b61158c80620002176000396000f3fe608060405234801561001057600080fd5b50600436106100625760003560e01c806356fe5bb01461006757806394b99f2014610085578063ba3995f5146100b5578063c09f32e8146100d1578063c9616bde146100ed578063db88176f14610109575b600080fd5b61006f610139565b60405161007c9190611091565b60405180910390f35b61009f600480360381019061009a9190610cd6565b61032e565b6040516100ac919061106f565b60405180910390f35b6100cf60048036038101906100ca9190610cff565b610552565b005b6100eb60048036038101906100e69190610cd6565b6106f3565b005b61010760048036038101906101029190610c95565b61073c565b005b610123600480360381019061011e9190610cd6565b6108bb565b6040516101309190611145565b60405180910390f35b6060600060025467ffffffffffffffff81111561017f577f4e487b7100000000000000000000000000000000000000000000000000000000600052604160045260246000fd5b6040519080825280602002602001820160405280156101b857816020015b6101a5610b06565b81526020019060019003908161019d5790505b50905060005b6002548110156103265760008082815260200190815260200160002060010160009054906101000a900460ff161561031357600080828152602001908152602001600020604051806080016040529081600082015481526020016001820160009054906101000a900460ff1615151515815260200160028201805461024290611340565b80601f016020809104026020016040519081016040528092919081815260200182805461026e90611340565b80156102bb5780601f10610290576101008083540402835291602001916102bb565b820191906000526020600020905b81548152906001019060200180831161029e57829003601f168201915b50505050508152602001600382015481525050828281518110610307577f4e487b7100000000000000000000000000000000000000000000000000000000600052603260045260246000fd5b60200260200101819052505b808061031e906113a3565b9150506101be565b508091505090565b6060600080600084815260200190815260200160002060030154905060008167ffffffffffffffff81111561038c577f4e487b7100000000000000000000000000000000000000000000000000000000600052604160045260246000fd5b6040519080825280602002602001820160405280156103c557816020015b6103b2610b30565b8152602001906001900390816103aa5790505b50905060005b828110156105475760006003600087815260200190815260200160002060008381526020019081526020016000209050806040518060400160405290816000820160009054906101000a900473ffffffffffffffffffffffffffffffffffffffff1673ffffffffffffffffffffffffffffffffffffffff1673ffffffffffffffffffffffffffffffffffffffff16815260200160018201805461046d90611340565b80601f016020809104026020016040519081016040528092919081815260200182805461049990611340565b80156104e65780601f106104bb576101008083540402835291602001916104e6565b820191906000526020600020905b8154815290600101906020018083116104c957829003601f168201915b505050505081525050838381518110610528577f4e487b7100000000000000000000000000000000000000000000000000000000600052603260045260246000fd5b602002602001018190525050808061053f906113a3565b9150506103cb565b508092505050919050565b6001548310610596576040517f08c379a000000000000000000000000000000000000000000000000000000000815260040161058d90611125565b60405180910390fd5b60008084815260200190815260200160002060010160009054906101000a900460ff166105f8576040517f08c379a00000000000000000000000000000000000000000000000000000000081526004016105ef90611105565b60405180910390fd5b60405180604001604052808373ffffffffffffffffffffffffffffffffffffffff1681526020018281525060036000858152602001908152602001600020600080600087815260200190815260200160002060030154815260200190815260200160002060008201518160000160006101000a81548173ffffffffffffffffffffffffffffffffffffffff021916908373ffffffffffffffffffffffffffffffffffffffff16021790555060208201518160010190805190602001906106bf929190610b60565b5090505060008084815260200190815260200160002060030160008154809291906106e9906113a3565b9190505550505050565b600080600083815260200190815260200160002060010160006101000a81548160ff0219169083151502179055506002600081548092919061073490611316565b919050555050565b61077d6040518060400160405280600e81526020017f7175657374696f6e49443a202573000000000000000000000000000000000000815250600154610a41565b60405180608001604052806001548152602001600115158152602001828152602001600081525060008060015481526020019081526020016000206000820151816000015560208201518160010160006101000a81548160ff02191690831515021790555060408201518160020190805190602001906107fe929190610b60565b50606082015181600301559050507fa5fbefdc56bf0d2d586a82a9f50784dfe29ae6d3cfe3e0491131259d4f2042ee6001548260405161083f929190611167565b60405180910390a16001600081548092919061085a906113a3565b919050555060026000815480929190610872906113a3565b91905055506108b86040518060400160405280601281526020017f5175657374696f6e20636f756e743a2025730000000000000000000000000000815250600154610a41565b50565b6108c3610b06565b600080838152602001908152602001600020604051806080016040529081600082015481526020016001820160009054906101000a900460ff1615151515815260200160028201805461091590611340565b80601f016020809104026020016040519081016040528092919081815260200182805461094190611340565b801561098e5780601f106109635761010080835404028352916020019161098e565b820191906000526020600020905b81548152906001019060200180831161097157829003601f168201915b505050505081526020016003820154815250509050919050565b610a3e816040516024016109bc91906110b3565b6040516020818303038152906040527f41304fac000000000000000000000000000000000000000000000000000000007bffffffffffffffffffffffffffffffffffffffffffffffffffffffff19166020820180517bffffffffffffffffffffffffffffffffffffffffffffffffffffffff8381831617835250505050610add565b50565b610ad98282604051602401610a579291906110d5565b6040516020818303038152906040527f9710a9d0000000000000000000000000000000000000000000000000000000007bffffffffffffffffffffffffffffffffffffffffffffffffffffffff19166020820180517bffffffffffffffffffffffffffffffffffffffffffffffffffffffff8381831617835250505050610add565b5050565b60008151905060006a636f6e736f6c652e6c6f679050602083016000808483855afa5050505050565b60405180608001604052806000815260200160001515815260200160608152602001600081525090565b6040518060400160405280600073ffffffffffffffffffffffffffffffffffffffff168152602001606081525090565b828054610b6c90611340565b90600052602060002090601f016020900481019282610b8e5760008555610bd5565b82601f10610ba757805160ff1916838001178555610bd5565b82800160010185558215610bd5579182015b82811115610bd4578251825591602001919060010190610bb9565b5b509050610be29190610be6565b5090565b5b80821115610bff576000816000905550600101610be7565b5090565b6000610c16610c11846111bc565b611197565b905082815260208101848484011115610c2e57600080fd5b610c398482856112d4565b509392505050565b600081359050610c5081611528565b92915050565b600082601f830112610c6757600080fd5b8135610c77848260208601610c03565b91505092915050565b600081359050610c8f8161153f565b92915050565b600060208284031215610ca757600080fd5b600082013567ffffffffffffffff811115610cc157600080fd5b610ccd84828501610c56565b91505092915050565b600060208284031215610ce857600080fd5b6000610cf684828501610c80565b91505092915050565b600080600060608486031215610d1457600080fd5b6000610d2286828701610c80565b9350506020610d3386828701610c41565b925050604084013567ffffffffffffffff811115610d5057600080fd5b610d5c86828701610c56565b9150509250925092565b6000610d728383610f4e565b905092915050565b6000610d868383610f8b565b905092915050565b610d978161128c565b82525050565b6000610da88261120d565b610db28185611248565b935083602082028501610dc4856111ed565b8060005b85811015610e005784840389528151610de18582610d66565b9450610dec8361122e565b925060208a01995050600181019050610dc8565b50829750879550505050505092915050565b6000610e1d82611218565b610e278185611259565b935083602082028501610e39856111fd565b8060005b85811015610e755784840389528151610e568582610d7a565b9450610e618361123b565b925060208a01995050600181019050610e3d565b50829750879550505050505092915050565b610e908161129e565b82525050565b6000610ea182611223565b610eab818561126a565b9350610ebb8185602086016112e3565b610ec481611479565b840191505092915050565b6000610eda82611223565b610ee4818561127b565b9350610ef48185602086016112e3565b610efd81611479565b840191505092915050565b6000610f15602e8361127b565b9150610f208261148a565b604082019050919050565b6000610f38602d8361127b565b9150610f43826114d9565b604082019050919050565b6000604083016000830151610f666000860182610d8e565b5060208301518482036020860152610f7e8282610e96565b9150508091505092915050565b6000608083016000830151610fa36000860182611051565b506020830151610fb66020860182610e87565b5060408301518482036040860152610fce8282610e96565b9150506060830151610fe36060860182611051565b508091505092915050565b60006080830160008301516110066000860182611051565b5060208301516110196020860182610e87565b50604083015184820360408601526110318282610e96565b91505060608301516110466060860182611051565b508091505092915050565b61105a816112ca565b82525050565b611069816112ca565b82525050565b600060208201905081810360008301526110898184610d9d565b905092915050565b600060208201905081810360008301526110ab8184610e12565b905092915050565b600060208201905081810360008301526110cd8184610ecf565b905092915050565b600060408201905081810360008301526110ef8185610ecf565b90506110fe6020830184611060565b9392505050565b6000602082019050818103600083015261111e81610f08565b9050919050565b6000602082019050818103600083015261113e81610f2b565b9050919050565b6000602082019050818103600083015261115f8184610fee565b905092915050565b600060408201905061117c6000830185611060565b818103602083015261118e8184610ecf565b90509392505050565b60006111a16111b2565b90506111ad8282611372565b919050565b6000604051905090565b600067ffffffffffffffff8211156111d7576111d661144a565b5b6111e082611479565b9050602081019050919050565b6000819050602082019050919050565b6000819050602082019050919050565b600081519050919050565b600081519050919050565b600081519050919050565b6000602082019050919050565b6000602082019050919050565b600082825260208201905092915050565b600082825260208201905092915050565b600082825260208201905092915050565b600082825260208201905092915050565b6000611297826112aa565b9050919050565b60008115159050919050565b600073ffffffffffffffffffffffffffffffffffffffff82169050919050565b6000819050919050565b82818337600083830152505050565b60005b838110156113015780820151818401526020810190506112e6565b83811115611310576000848401525b50505050565b6000611321826112ca565b91506000821415611335576113346113ec565b5b600182039050919050565b6000600282049050600182168061135857607f821691505b6020821081141561136c5761136b61141b565b5b50919050565b61137b82611479565b810181811067ffffffffffffffff8211171561139a5761139961144a565b5b80604052505050565b60006113ae826112ca565b91507fffffffffffffffffffffffffffffffffffffffffffffffffffffffffffffffff8214156113e1576113e06113ec565b5b600182019050919050565b7f4e487b7100000000000000000000000000000000000000000000000000000000600052601160045260246000fd5b7f4e487b7100000000000000000000000000000000000000000000000000000000600052602260045260246000fd5b7f4e487b7100000000000000000000000000000000000000000000000000000000600052604160045260246000fd5b6000601f19601f8301169050919050565b7f496e76616c6964207175657374696f6e204944202d207175657374696f6e206860008201527f6173206265656e20636c6f736564000000000000000000000000000000000000602082015250565b7f496e76616c6964207175657374696f6e204944202d207175657374696f6e206460008201527f6f6573206e6f7420657869737400000000000000000000000000000000000000602082015250565b6115318161128c565b811461153c57600080fd5b50565b611548816112ca565b811461155357600080fd5b5056fea264697066735822122016b907c4d6c4f3f03bf2a58e4ff5a68a60d3e8a55a4644a1e4f13d965efc7b1c64736f6c63430008040033",
  "linkReferences": {},
  "deployedLinkReferences": {}
}