{
  "_format": "hh-sol-artifact-1",
  "contractName": "Questions",
  "sourceName": "contracts/Questions.sol",
  "abi": [
    {
      "inputs": [
        {
          "internalType": "uint256",
          "name": "qId",
          "type": "uint256"
        }
      ],
      "name": "closeQuestion",
      "outputs": [
        {
          "internalType": "bool",
          "name": "",
          "type": "bool"
        }
      ],
      "stateMutability": "nonpayable",
      "type": "function"
    },
    {
      "inputs": [
        {
          "internalType": "string",
          "name": "stim",
          "type": "string"
        }
      ],
      "name": "initQuestion",
      "outputs": [],
      "stateMutability": "nonpayable",
      "type": "function"
    },
    {
      "inputs": [
        {
          "internalType": "uint256",
          "name": "qId",
          "type": "uint256"
        }
      ],
      "name": "scanSubmissions",
      "outputs": [
        {
          "components": [
            {
              "internalType": "address",
              "name": "submittedBy",
              "type": "address"
            },
            {
              "internalType": "string",
              "name": "submission",
              "type": "string"
            }
          ],
          "internalType": "struct Questions.Answer[]",
          "name": "",
          "type": "tuple[]"
        }
      ],
      "stateMutability": "view",
      "type": "function"
    },
    {
      "inputs": [
        {
          "internalType": "uint256",
          "name": "qId",
          "type": "uint256"
        },
        {
          "internalType": "address",
          "name": "user",
          "type": "address"
        },
        {
          "internalType": "string",
          "name": "sub",
          "type": "string"
        }
      ],
      "name": "submitAnswer",
      "outputs": [],
      "stateMutability": "nonpayable",
      "type": "function"
    }
  ],
  "bytecode": "0x608060405234801561001057600080fd5b50610b4b806100206000396000f3fe608060405234801561001057600080fd5b506004361061004c5760003560e01c806394b99f2014610051578063ba3995f514610081578063c09f32e81461009d578063c9616bde146100cd575b600080fd5b61006b6004803603810190610066919061067e565b6100e9565b604051610078919061082b565b60405180910390f35b61009b600480360381019061009691906106a7565b61030d565b005b6100b760048036038101906100b2919061067e565b610408565b6040516100c4919061084d565b60405180910390f35b6100e760048036038101906100e2919061063d565b610440565b005b6060600080600084815260200190815260200160002060020154905060008167ffffffffffffffff811115610147577f4e487b7100000000000000000000000000000000000000000000000000000000600052604160045260246000fd5b60405190808252806020026020018201604052801561018057816020015b61016d6104d8565b8152602001906001900390816101655790505b50905060005b828110156103025760006002600087815260200190815260200160002060008381526020019081526020016000209050806040518060400160405290816000820160009054906101000a900473ffffffffffffffffffffffffffffffffffffffff1673ffffffffffffffffffffffffffffffffffffffff1673ffffffffffffffffffffffffffffffffffffffff1681526020016001820180546102289061099d565b80601f01602080910402602001604051908101604052809291908181526020018280546102549061099d565b80156102a15780601f10610276576101008083540402835291602001916102a1565b820191906000526020600020905b81548152906001019060200180831161028457829003601f168201915b5050505050815250508383815181106102e3577f4e487b7100000000000000000000000000000000000000000000000000000000600052603260045260246000fd5b60200260200101819052505080806102fa90610a00565b915050610186565b508092505050919050565b60405180604001604052808373ffffffffffffffffffffffffffffffffffffffff1681526020018281525060026000858152602001908152602001600020600080600087815260200190815260200160002060020154815260200190815260200160002060008201518160000160006101000a81548173ffffffffffffffffffffffffffffffffffffffff021916908373ffffffffffffffffffffffffffffffffffffffff16021790555060208201518160010190805190602001906103d4929190610508565b5090505060008084815260200190815260200160002060020160008154809291906103fe90610a00565b9190505550505050565b60008060008084815260200190815260200160002060000160006101000a81548160ff02191690831515021790555060019050919050565b60405180606001604052806001151581526020018281526020016000815250600080600154815260200190815260200160002060008201518160000160006101000a81548160ff02191690831515021790555060208201518160010190805190602001906104af929190610508565b5060408201518160020155905050600160008154809291906104d090610a00565b919050555050565b6040518060400160405280600073ffffffffffffffffffffffffffffffffffffffff168152602001606081525090565b8280546105149061099d565b90600052602060002090601f016020900481019282610536576000855561057d565b82601f1061054f57805160ff191683800117855561057d565b8280016001018555821561057d579182015b8281111561057c578251825591602001919060010190610561565b5b50905061058a919061058e565b5090565b5b808211156105a757600081600090555060010161058f565b5090565b60006105be6105b98461088d565b610868565b9050828152602081018484840111156105d657600080fd5b6105e184828561095b565b509392505050565b6000813590506105f881610ae7565b92915050565b600082601f83011261060f57600080fd5b813561061f8482602086016105ab565b91505092915050565b60008135905061063781610afe565b92915050565b60006020828403121561064f57600080fd5b600082013567ffffffffffffffff81111561066957600080fd5b610675848285016105fe565b91505092915050565b60006020828403121561069057600080fd5b600061069e84828501610628565b91505092915050565b6000806000606084860312156106bc57600080fd5b60006106ca86828701610628565b93505060206106db868287016105e9565b925050604084013567ffffffffffffffff8111156106f857600080fd5b610704868287016105fe565b9150509250925092565b600061071a83836107ee565b905092915050565b61072b81610913565b82525050565b600061073c826108ce565b61074681856108f1565b935083602082028501610758856108be565b8060005b858110156107945784840389528151610775858261070e565b9450610780836108e4565b925060208a0199505060018101905061075c565b50829750879550505050505092915050565b6107af81610925565b82525050565b60006107c0826108d9565b6107ca8185610902565b93506107da81856020860161096a565b6107e381610ad6565b840191505092915050565b60006040830160008301516108066000860182610722565b506020830151848203602086015261081e82826107b5565b9150508091505092915050565b600060208201905081810360008301526108458184610731565b905092915050565b600060208201905061086260008301846107a6565b92915050565b6000610872610883565b905061087e82826109cf565b919050565b6000604051905090565b600067ffffffffffffffff8211156108a8576108a7610aa7565b5b6108b182610ad6565b9050602081019050919050565b6000819050602082019050919050565b600081519050919050565b600081519050919050565b6000602082019050919050565b600082825260208201905092915050565b600082825260208201905092915050565b600061091e82610931565b9050919050565b60008115159050919050565b600073ffffffffffffffffffffffffffffffffffffffff82169050919050565b6000819050919050565b82818337600083830152505050565b60005b8381101561098857808201518184015260208101905061096d565b83811115610997576000848401525b50505050565b600060028204905060018216806109b557607f821691505b602082108114156109c9576109c8610a78565b5b50919050565b6109d882610ad6565b810181811067ffffffffffffffff821117156109f7576109f6610aa7565b5b80604052505050565b6000610a0b82610951565b91507fffffffffffffffffffffffffffffffffffffffffffffffffffffffffffffffff821415610a3e57610a3d610a49565b5b600182019050919050565b7f4e487b7100000000000000000000000000000000000000000000000000000000600052601160045260246000fd5b7f4e487b7100000000000000000000000000000000000000000000000000000000600052602260045260246000fd5b7f4e487b7100000000000000000000000000000000000000000000000000000000600052604160045260246000fd5b6000601f19601f8301169050919050565b610af081610913565b8114610afb57600080fd5b50565b610b0781610951565b8114610b1257600080fd5b5056fea264697066735822122048543f3ac866aafac4bec8c1e76b5089509f797cdb2884a424b240c86df24d9b64736f6c63430008040033",
  "linkReferences": {},
  "deployedLinkReferences": {}
}