{
  "_format": "hh-sol-artifact-1",
  "contractName": "Questions",
  "sourceName": "contracts/Questions.sol",
  "abi": [
    {
      "inputs": [],
      "stateMutability": "nonpayable",
      "type": "constructor"
    },
    {
      "anonymous": false,
      "inputs": [
        {
          "indexed": false,
          "internalType": "uint256",
          "name": "_questionId",
          "type": "uint256"
        },
        {
          "indexed": false,
          "internalType": "string",
          "name": "_stimulus",
          "type": "string"
        }
      ],
      "name": "QuestionCreated",
      "type": "event"
    },
    {
      "inputs": [
        {
          "internalType": "uint256",
          "name": "qId",
          "type": "uint256"
        }
      ],
      "name": "closeQuestion",
      "outputs": [],
      "stateMutability": "nonpayable",
      "type": "function"
    },
    {
      "inputs": [],
      "name": "getQuestionList",
      "outputs": [
        {
          "internalType": "uint256[]",
          "name": "",
          "type": "uint256[]"
        }
      ],
      "stateMutability": "view",
      "type": "function"
    },
    {
      "inputs": [
        {
          "internalType": "string",
          "name": "stim",
          "type": "string"
        }
      ],
      "name": "initQuestion",
      "outputs": [],
      "stateMutability": "nonpayable",
      "type": "function"
    },
    {
      "inputs": [
        {
          "internalType": "uint256",
          "name": "qId",
          "type": "uint256"
        }
      ],
      "name": "scanSubmissions",
      "outputs": [
        {
          "components": [
            {
              "internalType": "address",
              "name": "submittedBy",
              "type": "address"
            },
            {
              "internalType": "string",
              "name": "submission",
              "type": "string"
            }
          ],
          "internalType": "struct Questions.Answer[]",
          "name": "",
          "type": "tuple[]"
        }
      ],
      "stateMutability": "view",
      "type": "function"
    },
    {
      "inputs": [
        {
          "internalType": "uint256",
          "name": "qId",
          "type": "uint256"
        },
        {
          "internalType": "address",
          "name": "user",
          "type": "address"
        },
        {
          "internalType": "string",
          "name": "sub",
          "type": "string"
        }
      ],
      "name": "submitAnswer",
      "outputs": [],
      "stateMutability": "nonpayable",
      "type": "function"
    }
  ],
  "bytecode": "0x60806040523480156200001157600080fd5b506200005d6040518060400160405280601981526020017f5175657374696f6e20696e7374616e63652063726561746564000000000000008152506200007360201b620007ae1760201c565b6000600181905550600060028190555062000207565b62000113816040516024016200008a919062000180565b6040516020818303038152906040527f41304fac000000000000000000000000000000000000000000000000000000007bffffffffffffffffffffffffffffffffffffffffffffffffffffffff19166020820180517bffffffffffffffffffffffffffffffffffffffffffffffffffffffff83818316178352505050506200011660201b60201c565b50565b60008151905060006a636f6e736f6c652e6c6f679050602083016000808483855afa5050505050565b60006200014c82620001a4565b620001588185620001af565b93506200016a818560208601620001c0565b6200017581620001f6565b840191505092915050565b600060208201905081810360008301526200019c81846200013f565b905092915050565b600081519050919050565b600082825260208201905092915050565b60005b83811015620001e0578082015181840152602081019050620001c3565b83811115620001f0576000848401525b50505050565b6000601f19601f8301169050919050565b61125280620002176000396000f3fe608060405234801561001057600080fd5b50600436106100575760003560e01c806356fe5bb01461005c57806394b99f201461007a578063ba3995f5146100aa578063c09f32e8146100c6578063c9616bde146100e2575b600080fd5b6100646100fe565b6040516100719190610d85565b60405180910390f35b610094600480360381019061008f9190610ab2565b610221565b6040516100a19190610d63565b60405180910390f35b6100c460048036038101906100bf9190610adb565b610445565b005b6100e060048036038101906100db9190610ab2565b6105e6565b005b6100fc60048036038101906100f79190610a71565b61062f565b005b6060600060025467ffffffffffffffff811115610144577f4e487b7100000000000000000000000000000000000000000000000000000000600052604160045260246000fd5b6040519080825280602002602001820160405280156101725781602001602082028036833780820191505090505b50905060005b6002548110156102195760008082815260200190815260200160002060010160009054906101000a900460ff161561020657600080828152602001908152602001600020600001548282815181106101f9577f4e487b7100000000000000000000000000000000000000000000000000000000600052603260045260246000fd5b6020026020010181815250505b808061021190611069565b915050610178565b508091505090565b6060600080600084815260200190815260200160002060030154905060008167ffffffffffffffff81111561027f577f4e487b7100000000000000000000000000000000000000000000000000000000600052604160045260246000fd5b6040519080825280602002602001820160405280156102b857816020015b6102a561090c565b81526020019060019003908161029d5790505b50905060005b8281101561043a5760006003600087815260200190815260200160002060008381526020019081526020016000209050806040518060400160405290816000820160009054906101000a900473ffffffffffffffffffffffffffffffffffffffff1673ffffffffffffffffffffffffffffffffffffffff1673ffffffffffffffffffffffffffffffffffffffff16815260200160018201805461036090611006565b80601f016020809104026020016040519081016040528092919081815260200182805461038c90611006565b80156103d95780601f106103ae576101008083540402835291602001916103d9565b820191906000526020600020905b8154815290600101906020018083116103bc57829003601f168201915b50505050508152505083838151811061041b577f4e487b7100000000000000000000000000000000000000000000000000000000600052603260045260246000fd5b602002602001018190525050808061043290611069565b9150506102be565b508092505050919050565b6001548310610489576040517f08c379a000000000000000000000000000000000000000000000000000000000815260040161048090610e19565b60405180910390fd5b60008084815260200190815260200160002060010160009054906101000a900460ff166104eb576040517f08c379a00000000000000000000000000000000000000000000000000000000081526004016104e290610df9565b60405180910390fd5b60405180604001604052808373ffffffffffffffffffffffffffffffffffffffff1681526020018281525060036000858152602001908152602001600020600080600087815260200190815260200160002060030154815260200190815260200160002060008201518160000160006101000a81548173ffffffffffffffffffffffffffffffffffffffff021916908373ffffffffffffffffffffffffffffffffffffffff16021790555060208201518160010190805190602001906105b292919061093c565b5090505060008084815260200190815260200160002060030160008154809291906105dc90611069565b9190505550505050565b600080600083815260200190815260200160002060010160006101000a81548160ff0219169083151502179055506002600081548092919061062790610fdc565b919050555050565b6106706040518060400160405280600e81526020017f7175657374696f6e49443a202573000000000000000000000000000000000000815250600154610847565b60405180608001604052806001548152602001600115158152602001828152602001600081525060008060015481526020019081526020016000206000820151816000015560208201518160010160006101000a81548160ff02191690831515021790555060408201518160020190805190602001906106f192919061093c565b50606082015181600301559050507fa5fbefdc56bf0d2d586a82a9f50784dfe29ae6d3cfe3e0491131259d4f2042ee60015482604051610732929190610e39565b60405180910390a16001600081548092919061074d90611069565b91905055506002600081548092919061076590611069565b91905055506107ab6040518060400160405280601281526020017f5175657374696f6e20636f756e743a2025730000000000000000000000000000815250600154610847565b50565b610844816040516024016107c29190610da7565b6040516020818303038152906040527f41304fac000000000000000000000000000000000000000000000000000000007bffffffffffffffffffffffffffffffffffffffffffffffffffffffff19166020820180517bffffffffffffffffffffffffffffffffffffffffffffffffffffffff83818316178352505050506108e3565b50565b6108df828260405160240161085d929190610dc9565b6040516020818303038152906040527f9710a9d0000000000000000000000000000000000000000000000000000000007bffffffffffffffffffffffffffffffffffffffffffffffffffffffff19166020820180517bffffffffffffffffffffffffffffffffffffffffffffffffffffffff83818316178352505050506108e3565b5050565b60008151905060006a636f6e736f6c652e6c6f679050602083016000808483855afa5050505050565b6040518060400160405280600073ffffffffffffffffffffffffffffffffffffffff168152602001606081525090565b82805461094890611006565b90600052602060002090601f01602090048101928261096a57600085556109b1565b82601f1061098357805160ff19168380011785556109b1565b828001600101855582156109b1579182015b828111156109b0578251825591602001919060010190610995565b5b5090506109be91906109c2565b5090565b5b808211156109db5760008160009055506001016109c3565b5090565b60006109f26109ed84610e8e565b610e69565b905082815260208101848484011115610a0a57600080fd5b610a15848285610f9a565b509392505050565b600081359050610a2c816111ee565b92915050565b600082601f830112610a4357600080fd5b8135610a538482602086016109df565b91505092915050565b600081359050610a6b81611205565b92915050565b600060208284031215610a8357600080fd5b600082013567ffffffffffffffff811115610a9d57600080fd5b610aa984828501610a32565b91505092915050565b600060208284031215610ac457600080fd5b6000610ad284828501610a5c565b91505092915050565b600080600060608486031215610af057600080fd5b6000610afe86828701610a5c565b9350506020610b0f86828701610a1d565b925050604084013567ffffffffffffffff811115610b2c57600080fd5b610b3886828701610a32565b9150509250925092565b6000610b4e8383610d08565b905092915050565b6000610b628383610d45565b60208301905092915050565b610b7781610f5e565b82525050565b6000610b8882610edf565b610b928185610f1a565b935083602082028501610ba485610ebf565b8060005b85811015610be05784840389528151610bc18582610b42565b9450610bcc83610f00565b925060208a01995050600181019050610ba8565b50829750879550505050505092915050565b6000610bfd82610eea565b610c078185610f2b565b9350610c1283610ecf565b8060005b83811015610c43578151610c2a8882610b56565b9750610c3583610f0d565b925050600181019050610c16565b5085935050505092915050565b6000610c5b82610ef5565b610c658185610f3c565b9350610c75818560208601610fa9565b610c7e8161113f565b840191505092915050565b6000610c9482610ef5565b610c9e8185610f4d565b9350610cae818560208601610fa9565b610cb78161113f565b840191505092915050565b6000610ccf602e83610f4d565b9150610cda82611150565b604082019050919050565b6000610cf2602d83610f4d565b9150610cfd8261119f565b604082019050919050565b6000604083016000830151610d206000860182610b6e565b5060208301518482036020860152610d388282610c50565b9150508091505092915050565b610d4e81610f90565b82525050565b610d5d81610f90565b82525050565b60006020820190508181036000830152610d7d8184610b7d565b905092915050565b60006020820190508181036000830152610d9f8184610bf2565b905092915050565b60006020820190508181036000830152610dc18184610c89565b905092915050565b60006040820190508181036000830152610de38185610c89565b9050610df26020830184610d54565b9392505050565b60006020820190508181036000830152610e1281610cc2565b9050919050565b60006020820190508181036000830152610e3281610ce5565b9050919050565b6000604082019050610e4e6000830185610d54565b8181036020830152610e608184610c89565b90509392505050565b6000610e73610e84565b9050610e7f8282611038565b919050565b6000604051905090565b600067ffffffffffffffff821115610ea957610ea8611110565b5b610eb28261113f565b9050602081019050919050565b6000819050602082019050919050565b6000819050602082019050919050565b600081519050919050565b600081519050919050565b600081519050919050565b6000602082019050919050565b6000602082019050919050565b600082825260208201905092915050565b600082825260208201905092915050565b600082825260208201905092915050565b600082825260208201905092915050565b6000610f6982610f70565b9050919050565b600073ffffffffffffffffffffffffffffffffffffffff82169050919050565b6000819050919050565b82818337600083830152505050565b60005b83811015610fc7578082015181840152602081019050610fac565b83811115610fd6576000848401525b50505050565b6000610fe782610f90565b91506000821415610ffb57610ffa6110b2565b5b600182039050919050565b6000600282049050600182168061101e57607f821691505b60208210811415611032576110316110e1565b5b50919050565b6110418261113f565b810181811067ffffffffffffffff821117156110605761105f611110565b5b80604052505050565b600061107482610f90565b91507fffffffffffffffffffffffffffffffffffffffffffffffffffffffffffffffff8214156110a7576110a66110b2565b5b600182019050919050565b7f4e487b7100000000000000000000000000000000000000000000000000000000600052601160045260246000fd5b7f4e487b7100000000000000000000000000000000000000000000000000000000600052602260045260246000fd5b7f4e487b7100000000000000000000000000000000000000000000000000000000600052604160045260246000fd5b6000601f19601f8301169050919050565b7f496e76616c6964207175657374696f6e204944202d207175657374696f6e206860008201527f6173206265656e20636c6f736564000000000000000000000000000000000000602082015250565b7f496e76616c6964207175657374696f6e204944202d207175657374696f6e206460008201527f6f6573206e6f7420657869737400000000000000000000000000000000000000602082015250565b6111f781610f5e565b811461120257600080fd5b50565b61120e81610f90565b811461121957600080fd5b5056fea2646970667358221220f51e44b6f5b39fea64668330b14033d30153cfe4fca4cdb6e1174fc749027c8f64736f6c63430008040033",
  "linkReferences": {},
  "deployedLinkReferences": {}
}