{
  "_format": "hh-sol-artifact-1",
  "contractName": "Questions",
  "sourceName": "contracts/Questions.sol",
  "abi": [
    {
      "anonymous": false,
      "inputs": [
        {
          "indexed": false,
          "internalType": "uint256",
          "name": "_questionId",
          "type": "uint256"
        },
        {
          "indexed": false,
          "internalType": "string",
          "name": "_stimulus",
          "type": "string"
        }
      ],
      "name": "QuestionCreated",
      "type": "event"
    },
    {
      "inputs": [
        {
          "internalType": "uint256",
          "name": "qId",
          "type": "uint256"
        }
      ],
      "name": "closeQuestion",
      "outputs": [],
      "stateMutability": "nonpayable",
      "type": "function"
    },
    {
      "inputs": [
        {
          "internalType": "string",
          "name": "stim",
          "type": "string"
        }
      ],
      "name": "initQuestion",
      "outputs": [],
      "stateMutability": "nonpayable",
      "type": "function"
    },
    {
      "inputs": [
        {
          "internalType": "uint256",
          "name": "qId",
          "type": "uint256"
        }
      ],
      "name": "scanSubmissions",
      "outputs": [
        {
          "components": [
            {
              "internalType": "address",
              "name": "submittedBy",
              "type": "address"
            },
            {
              "internalType": "string",
              "name": "submission",
              "type": "string"
            }
          ],
          "internalType": "struct Questions.Answer[]",
          "name": "",
          "type": "tuple[]"
        }
      ],
      "stateMutability": "view",
      "type": "function"
    },
    {
      "inputs": [
        {
          "internalType": "uint256",
          "name": "qId",
          "type": "uint256"
        },
        {
          "internalType": "address",
          "name": "user",
          "type": "address"
        },
        {
          "internalType": "string",
          "name": "sub",
          "type": "string"
        }
      ],
      "name": "submitAnswer",
      "outputs": [],
      "stateMutability": "nonpayable",
      "type": "function"
    }
  ],
  "bytecode": "0x608060405234801561001057600080fd5b50611002806100206000396000f3fe608060405234801561001057600080fd5b506004361061004c5760003560e01c806394b99f2014610051578063ba3995f514610081578063c09f32e81461009d578063c9616bde146100b9575b600080fd5b61006b6004803603810190610066919061096c565b6100d5565b6040516100789190610b98565b60405180910390f35b61009b60048036038101906100969190610995565b6102f9565b005b6100b760048036038101906100b2919061096c565b61049a565b005b6100d360048036038101906100ce919061092b565b6104d3565b005b6060600080600084815260200190815260200160002060020154905060008167ffffffffffffffff811115610133577f4e487b7100000000000000000000000000000000000000000000000000000000600052604160045260246000fd5b60405190808252806020026020018201604052801561016c57816020015b6101596107c6565b8152602001906001900390816101515790505b50905060005b828110156102ee5760006002600087815260200190815260200160002060008381526020019081526020016000209050806040518060400160405290816000820160009054906101000a900473ffffffffffffffffffffffffffffffffffffffff1673ffffffffffffffffffffffffffffffffffffffff1673ffffffffffffffffffffffffffffffffffffffff16815260200160018201805461021490610db6565b80601f016020809104026020016040519081016040528092919081815260200182805461024090610db6565b801561028d5780601f106102625761010080835404028352916020019161028d565b820191906000526020600020905b81548152906001019060200180831161027057829003601f168201915b5050505050815250508383815181106102cf577f4e487b7100000000000000000000000000000000000000000000000000000000600052603260045260246000fd5b60200260200101819052505080806102e690610e19565b915050610172565b508092505050919050565b600154831061033d576040517f08c379a000000000000000000000000000000000000000000000000000000000815260040161033490610c2c565b60405180910390fd5b60008084815260200190815260200160002060000160009054906101000a900460ff1661039f576040517f08c379a000000000000000000000000000000000000000000000000000000000815260040161039690610c0c565b60405180910390fd5b60405180604001604052808373ffffffffffffffffffffffffffffffffffffffff1681526020018281525060026000858152602001908152602001600020600080600087815260200190815260200160002060020154815260200190815260200160002060008201518160000160006101000a81548173ffffffffffffffffffffffffffffffffffffffff021916908373ffffffffffffffffffffffffffffffffffffffff16021790555060208201518160010190805190602001906104669291906107f6565b50905050600080848152602001908152602001600020600201600081548092919061049090610e19565b9190505550505050565b600080600083815260200190815260200160002060000160006101000a81548160ff0219169083151502179055506104d0610628565b50565b6105146040518060400160405280600e81526020017f7175657374696f6e49443a202573000000000000000000000000000000000000815250600154610668565b60405180606001604052806001151581526020018281526020016000815250600080600154815260200190815260200160002060008201518160000160006101000a81548160ff02191690831515021790555060208201518160010190805190602001906105839291906107f6565b50604082015181600201559050507fa5fbefdc56bf0d2d586a82a9f50784dfe29ae6d3cfe3e0491131259d4f2042ee600154826040516105c4929190610c4c565b60405180910390a1600160008154809291906105df90610e19565b91905055506106256040518060400160405280601281526020017f5175657374696f6e20636f756e743a2025730000000000000000000000000000815250600154610668565b50565b6106666040518060400160405280601681526020017f70726f63657373696e6720726577617264732e2e2e2e00000000000000000000815250610704565b565b610700828260405160240161067e929190610bdc565b6040516020818303038152906040527f9710a9d0000000000000000000000000000000000000000000000000000000007bffffffffffffffffffffffffffffffffffffffffffffffffffffffff19166020820180517bffffffffffffffffffffffffffffffffffffffffffffffffffffffff838183161783525050505061079d565b5050565b61079a816040516024016107189190610bba565b6040516020818303038152906040527f41304fac000000000000000000000000000000000000000000000000000000007bffffffffffffffffffffffffffffffffffffffffffffffffffffffff19166020820180517bffffffffffffffffffffffffffffffffffffffffffffffffffffffff838183161783525050505061079d565b50565b60008151905060006a636f6e736f6c652e6c6f679050602083016000808483855afa5050505050565b6040518060400160405280600073ffffffffffffffffffffffffffffffffffffffff168152602001606081525090565b82805461080290610db6565b90600052602060002090601f016020900481019282610824576000855561086b565b82601f1061083d57805160ff191683800117855561086b565b8280016001018555821561086b579182015b8281111561086a57825182559160200191906001019061084f565b5b509050610878919061087c565b5090565b5b8082111561089557600081600090555060010161087d565b5090565b60006108ac6108a784610ca1565b610c7c565b9050828152602081018484840111156108c457600080fd5b6108cf848285610d74565b509392505050565b6000813590506108e681610f9e565b92915050565b600082601f8301126108fd57600080fd5b813561090d848260208601610899565b91505092915050565b60008135905061092581610fb5565b92915050565b60006020828403121561093d57600080fd5b600082013567ffffffffffffffff81111561095757600080fd5b610963848285016108ec565b91505092915050565b60006020828403121561097e57600080fd5b600061098c84828501610916565b91505092915050565b6000806000606084860312156109aa57600080fd5b60006109b886828701610916565b93505060206109c9868287016108d7565b925050604084013567ffffffffffffffff8111156109e657600080fd5b6109f2868287016108ec565b9150509250925092565b6000610a088383610b4c565b905092915050565b610a1981610d38565b82525050565b6000610a2a82610ce2565b610a348185610d05565b935083602082028501610a4685610cd2565b8060005b85811015610a825784840389528151610a6385826109fc565b9450610a6e83610cf8565b925060208a01995050600181019050610a4a565b50829750879550505050505092915050565b6000610a9f82610ced565b610aa98185610d16565b9350610ab9818560208601610d83565b610ac281610eef565b840191505092915050565b6000610ad882610ced565b610ae28185610d27565b9350610af2818560208601610d83565b610afb81610eef565b840191505092915050565b6000610b13602e83610d27565b9150610b1e82610f00565b604082019050919050565b6000610b36602d83610d27565b9150610b4182610f4f565b604082019050919050565b6000604083016000830151610b646000860182610a10565b5060208301518482036020860152610b7c8282610a94565b9150508091505092915050565b610b9281610d6a565b82525050565b60006020820190508181036000830152610bb28184610a1f565b905092915050565b60006020820190508181036000830152610bd48184610acd565b905092915050565b60006040820190508181036000830152610bf68185610acd565b9050610c056020830184610b89565b9392505050565b60006020820190508181036000830152610c2581610b06565b9050919050565b60006020820190508181036000830152610c4581610b29565b9050919050565b6000604082019050610c616000830185610b89565b8181036020830152610c738184610acd565b90509392505050565b6000610c86610c97565b9050610c928282610de8565b919050565b6000604051905090565b600067ffffffffffffffff821115610cbc57610cbb610ec0565b5b610cc582610eef565b9050602081019050919050565b6000819050602082019050919050565b600081519050919050565b600081519050919050565b6000602082019050919050565b600082825260208201905092915050565b600082825260208201905092915050565b600082825260208201905092915050565b6000610d4382610d4a565b9050919050565b600073ffffffffffffffffffffffffffffffffffffffff82169050919050565b6000819050919050565b82818337600083830152505050565b60005b83811015610da1578082015181840152602081019050610d86565b83811115610db0576000848401525b50505050565b60006002820490506001821680610dce57607f821691505b60208210811415610de257610de1610e91565b5b50919050565b610df182610eef565b810181811067ffffffffffffffff82111715610e1057610e0f610ec0565b5b80604052505050565b6000610e2482610d6a565b91507fffffffffffffffffffffffffffffffffffffffffffffffffffffffffffffffff821415610e5757610e56610e62565b5b600182019050919050565b7f4e487b7100000000000000000000000000000000000000000000000000000000600052601160045260246000fd5b7f4e487b7100000000000000000000000000000000000000000000000000000000600052602260045260246000fd5b7f4e487b7100000000000000000000000000000000000000000000000000000000600052604160045260246000fd5b6000601f19601f8301169050919050565b7f496e76616c6964207175657374696f6e204944202d207175657374696f6e206860008201527f6173206265656e20636c6f736564000000000000000000000000000000000000602082015250565b7f496e76616c6964207175657374696f6e204944202d207175657374696f6e206460008201527f6f6573206e6f7420657869737400000000000000000000000000000000000000602082015250565b610fa781610d38565b8114610fb257600080fd5b50565b610fbe81610d6a565b8114610fc957600080fd5b5056fea264697066735822122047190b13a7fb58b7aa3c92ebe6473c1b0e765c84752ff7883c3d9f2576ca45ca64736f6c63430008040033",
  "linkReferences": {},
  "deployedLinkReferences": {}
}