{
  "_format": "hh-sol-artifact-1",
  "contractName": "RepRewCalculator",
  "sourceName": "contracts/RepRewCalculator.sol",
  "abi": [
    {
      "inputs": [
        {
          "internalType": "address[]",
          "name": "users",
          "type": "address[]"
        },
        {
          "internalType": "uint256[]",
          "name": "reputations",
          "type": "uint256[]"
        },
        {
          "internalType": "string[]",
          "name": "submissions",
          "type": "string[]"
        }
      ],
      "name": "calculateReward",
      "outputs": [],
      "stateMutability": "view",
      "type": "function"
    }
  ],
  "bytecode": "0x608060405234801561001057600080fd5b50610e48806100206000396000f3fe608060405234801561001057600080fd5b506004361061002b5760003560e01c8063a26205aa14610030575b600080fd5b61004a600480360381019061004591906109ec565b61004c565b005b61008a6040518060400160405280601181526020017f43616c63756c6174652072657761726473000000000000000000000000000000815250610663565b6000835167ffffffffffffffff8111156100cd577f4e487b7100000000000000000000000000000000000000000000000000000000600052604160045260246000fd5b60405190808252806020026020018201604052801561010057816020015b60608152602001906001900390816100eb5790505b509050600080855167ffffffffffffffff811115610147577f4e487b7100000000000000000000000000000000000000000000000000000000600052604160045260246000fd5b6040519080825280602002602001820160405280156101755781602001602082028036833780820191505090505b50905060005b86518110156102c25760006001826101939190610c27565b90505b87518110156102ae578781815181106101d8577f4e487b7100000000000000000000000000000000000000000000000000000000600052603260045260246000fd5b602002602001015173ffffffffffffffffffffffffffffffffffffffff1688838151811061022f577f4e487b7100000000000000000000000000000000000000000000000000000000600052603260045260246000fd5b602002602001015173ffffffffffffffffffffffffffffffffffffffff16141561029b57600087838151811061028e577f4e487b7100000000000000000000000000000000000000000000000000000000600052603260045260246000fd5b6020026020010181815250505b81806102a690610d2c565b925050610196565b5080806102ba90610d2c565b91505061017b565b5060008080600090505b8851811015610658576000888281518110610310577f4e487b7100000000000000000000000000000000000000000000000000000000600052603260045260246000fd5b60200260200101511115610645576000805b86811015610531576103b4898481518110610366577f4e487b7100000000000000000000000000000000000000000000000000000000600052603260045260246000fd5b60200260200101518983815181106103a7577f4e487b7100000000000000000000000000000000000000000000000000000000600052603260045260246000fd5b60200260200101516106fc565b1561051e57600191508983815181106103f6577f4e487b7100000000000000000000000000000000000000000000000000000000600052603260045260246000fd5b6020026020010151868281518110610437577f4e487b7100000000000000000000000000000000000000000000000000000000600052603260045260246000fd5b60200260200101516104499190610c27565b868281518110610482577f4e487b7100000000000000000000000000000000000000000000000000000000600052603260045260246000fd5b602002602001018181525050848682815181106104c8577f4e487b7100000000000000000000000000000000000000000000000000000000600052603260045260246000fd5b6020026020010151111561051d5785818151811061050f577f4e487b7100000000000000000000000000000000000000000000000000000000600052603260045260246000fd5b602002602001015194508093505b5b808061052990610d2c565b915050610322565b508061064357878281518110610570577f4e487b7100000000000000000000000000000000000000000000000000000000600052603260045260246000fd5b60200260200101518787815181106105b1577f4e487b7100000000000000000000000000000000000000000000000000000000600052603260045260246000fd5b60200260200101819052508882815181106105f5577f4e487b7100000000000000000000000000000000000000000000000000000000600052603260045260246000fd5b6020026020010151858781518110610636577f4e487b7100000000000000000000000000000000000000000000000000000000600052603260045260246000fd5b6020026020010181815250505b505b808061065090610d2c565b9150506102cc565b505050505050505050565b6106f9816040516024016106779190610b04565b6040516020818303038152906040527f41304fac000000000000000000000000000000000000000000000000000000007bffffffffffffffffffffffffffffffffffffffffffffffffffffffff19166020820180517bffffffffffffffffffffffffffffffffffffffffffffffffffffffff8381831617835250505050610755565b50565b60008160405160200161070f9190610aed565b60405160208183030381529060405280519060200120836040516020016107369190610aed565b6040516020818303038152906040528051906020012014905092915050565b60008151905060006a636f6e736f6c652e6c6f679050602083016000808483855afa5050505050565b600061079161078c84610b4b565b610b26565b905080838252602082019050828560208602820111156107b057600080fd5b60005b858110156107e057816107c6888261091a565b8452602084019350602083019250506001810190506107b3565b5050509392505050565b60006107fd6107f884610b77565b610b26565b9050808382526020820190508285602086028201111561081c57600080fd5b60005b8581101561086657813567ffffffffffffffff81111561083e57600080fd5b80860161084b89826109ad565b8552602085019450602084019350505060018101905061081f565b5050509392505050565b600061088361087e84610ba3565b610b26565b905080838252602082019050828560208602820111156108a257600080fd5b60005b858110156108d257816108b888826109d7565b8452602084019350602083019250506001810190506108a5565b5050509392505050565b60006108ef6108ea84610bcf565b610b26565b90508281526020810184848401111561090757600080fd5b610912848285610cb9565b509392505050565b60008135905061092981610de4565b92915050565b600082601f83011261094057600080fd5b813561095084826020860161077e565b91505092915050565b600082601f83011261096a57600080fd5b813561097a8482602086016107ea565b91505092915050565b600082601f83011261099457600080fd5b81356109a4848260208601610870565b91505092915050565b600082601f8301126109be57600080fd5b81356109ce8482602086016108dc565b91505092915050565b6000813590506109e681610dfb565b92915050565b600080600060608486031215610a0157600080fd5b600084013567ffffffffffffffff811115610a1b57600080fd5b610a278682870161092f565b935050602084013567ffffffffffffffff811115610a4457600080fd5b610a5086828701610983565b925050604084013567ffffffffffffffff811115610a6d57600080fd5b610a7986828701610959565b9150509250925092565b6000610a8e82610c00565b610a988185610c0b565b9350610aa8818560208601610cc8565b610ab181610dd3565b840191505092915050565b6000610ac782610c00565b610ad18185610c1c565b9350610ae1818560208601610cc8565b80840191505092915050565b6000610af98284610abc565b915081905092915050565b60006020820190508181036000830152610b1e8184610a83565b905092915050565b6000610b30610b41565b9050610b3c8282610cfb565b919050565b6000604051905090565b600067ffffffffffffffff821115610b6657610b65610da4565b5b602082029050602081019050919050565b600067ffffffffffffffff821115610b9257610b91610da4565b5b602082029050602081019050919050565b600067ffffffffffffffff821115610bbe57610bbd610da4565b5b602082029050602081019050919050565b600067ffffffffffffffff821115610bea57610be9610da4565b5b610bf382610dd3565b9050602081019050919050565b600081519050919050565b600082825260208201905092915050565b600081905092915050565b6000610c3282610caf565b9150610c3d83610caf565b9250827fffffffffffffffffffffffffffffffffffffffffffffffffffffffffffffffff03821115610c7257610c71610d75565b5b828201905092915050565b6000610c8882610c8f565b9050919050565b600073ffffffffffffffffffffffffffffffffffffffff82169050919050565b6000819050919050565b82818337600083830152505050565b60005b83811015610ce6578082015181840152602081019050610ccb565b83811115610cf5576000848401525b50505050565b610d0482610dd3565b810181811067ffffffffffffffff82111715610d2357610d22610da4565b5b80604052505050565b6000610d3782610caf565b91507fffffffffffffffffffffffffffffffffffffffffffffffffffffffffffffffff821415610d6a57610d69610d75565b5b600182019050919050565b7f4e487b7100000000000000000000000000000000000000000000000000000000600052601160045260246000fd5b7f4e487b7100000000000000000000000000000000000000000000000000000000600052604160045260246000fd5b6000601f19601f8301169050919050565b610ded81610c7d565b8114610df857600080fd5b50565b610e0481610caf565b8114610e0f57600080fd5b5056fea26469706673582212206a64f7562333a31a13d7cdddc3e08e39f8330ed07c909236460d1816eb455eb864736f6c63430008040033",
  "linkReferences": {},
  "deployedLinkReferences": {}
}