{
  "_format": "hh-sol-artifact-1",
  "contractName": "RepRewCalculator",
  "sourceName": "contracts/RepRewCalculator.sol",
  "abi": [
    {
      "inputs": [],
      "name": "calulateReward",
      "outputs": [],
      "stateMutability": "view",
      "type": "function"
    }
  ],
  "bytecode": "0x608060405234801561001057600080fd5b5061022d806100206000396000f3fe608060405234801561001057600080fd5b506004361061002b5760003560e01c8063d0eb2f2214610030575b600080fd5b61003861003a565b005b6100786040518060400160405280601181526020017f43616c63756c617465207265776172647300000000000000000000000000000081525061007a565b565b6101108160405160240161008e9190610175565b6040516020818303038152906040527f41304fac000000000000000000000000000000000000000000000000000000007bffffffffffffffffffffffffffffffffffffffffffffffffffffffff19166020820180517bffffffffffffffffffffffffffffffffffffffffffffffffffffffff8381831617835250505050610113565b50565b60008151905060006a636f6e736f6c652e6c6f679050602083016000808483855afa5050505050565b600061014782610197565b61015181856101a2565b93506101618185602086016101b3565b61016a816101e6565b840191505092915050565b6000602082019050818103600083015261018f818461013c565b905092915050565b600081519050919050565b600082825260208201905092915050565b60005b838110156101d15780820151818401526020810190506101b6565b838111156101e0576000848401525b50505050565b6000601f19601f830116905091905056fea2646970667358221220f3f280fcc3600d1c0ee0436d4e711b797398035481614fbdbcf830092a21d84364736f6c63430008040033",
  "linkReferences": {},
  "deployedLinkReferences": {}
}