{
  "_format": "hh-sol-artifact-1",
  "contractName": "RepRewCalculator",
  "sourceName": "contracts/RepRewCalculator.sol",
  "abi": [
    {
      "inputs": [
        {
          "internalType": "address[]",
          "name": "users",
          "type": "address[]"
        },
        {
          "internalType": "uint256[]",
          "name": "reputations",
          "type": "uint256[]"
        },
        {
          "internalType": "string[]",
          "name": "submissions",
          "type": "string[]"
        }
      ],
      "name": "calculateReward",
      "outputs": [
        {
          "components": [
            {
              "internalType": "address[]",
              "name": "user",
              "type": "address[]"
            },
            {
              "internalType": "uint256[]",
              "name": "reputation",
              "type": "uint256[]"
            },
            {
              "internalType": "uint256[]",
              "name": "rewards",
              "type": "uint256[]"
            },
            {
              "internalType": "string",
              "name": "answer",
              "type": "string"
            }
          ],
          "internalType": "struct RepRewCalculator.Results",
          "name": "",
          "type": "tuple"
        }
      ],
      "stateMutability": "view",
      "type": "function"
    }
  ],
  "bytecode": "0x608060405234801561001057600080fd5b5061163d806100206000396000f3fe608060405234801561001057600080fd5b506004361061002b5760003560e01c8063a26205aa14610030575b600080fd5b61004a60048036038101906100459190610eea565b610060565b6040516100579190611216565b60405180910390f35b610068610c54565b6100a66040518060400160405280601181526020017f43616c63756c6174652072657761726473000000000000000000000000000000815250610a9d565b600080600080875167ffffffffffffffff8111156100ed577f4e487b7100000000000000000000000000000000000000000000000000000000600052604160045260246000fd5b60405190808252806020026020018201604052801561012057816020015b606081526020019060019003908161010b5790505b5090506000885167ffffffffffffffff811115610166577f4e487b7100000000000000000000000000000000000000000000000000000000600052604160045260246000fd5b6040519080825280602002602001820160405280156101945781602001602082028036833780820191505090505b50905060005b89518110156106b15760008982815181106101de577f4e487b7100000000000000000000000000000000000000000000000000000000600052603260045260246000fd5b6020026020010151111561069e576000805b878110156104fd576102776040518060400160405280600281526020017f25730000000000000000000000000000000000000000000000000000000000008152508b858151811061026a577f4e487b7100000000000000000000000000000000000000000000000000000000600052603260045260246000fd5b6020026020010151610b36565b6102f66040518060400160405280600281526020017f25730000000000000000000000000000000000000000000000000000000000008152508683815181106102e9577f4e487b7100000000000000000000000000000000000000000000000000000000600052603260045260246000fd5b6020026020010151610b36565b6103808a8481518110610332577f4e487b7100000000000000000000000000000000000000000000000000000000600052603260045260246000fd5b6020026020010151868381518110610373577f4e487b7100000000000000000000000000000000000000000000000000000000600052603260045260246000fd5b6020026020010151610bd2565b156104ea57600191508a83815181106103c2577f4e487b7100000000000000000000000000000000000000000000000000000000600052603260045260246000fd5b6020026020010151848281518110610403577f4e487b7100000000000000000000000000000000000000000000000000000000600052603260045260246000fd5b602002602001015161041591906113bc565b84828151811061044e577f4e487b7100000000000000000000000000000000000000000000000000000000600052603260045260246000fd5b60200260200101818152505086848281518110610494577f4e487b7100000000000000000000000000000000000000000000000000000000600052603260045260246000fd5b602002602001015111156104e9578381815181106104db577f4e487b7100000000000000000000000000000000000000000000000000000000600052603260045260246000fd5b602002602001015196508095505b5b80806104f5906114f2565b9150506101f0565b508061061d5788828151811061053c577f4e487b7100000000000000000000000000000000000000000000000000000000600052603260045260246000fd5b602002602001015184888151811061057d577f4e487b7100000000000000000000000000000000000000000000000000000000600052603260045260246000fd5b60200260200101819052508982815181106105c1577f4e487b7100000000000000000000000000000000000000000000000000000000600052603260045260246000fd5b6020026020010151838881518110610602577f4e487b7100000000000000000000000000000000000000000000000000000000600052603260045260246000fd5b6020026020010181815250508680610619906114f2565b9750505b61069c6040518060400160405280600281526020017f257300000000000000000000000000000000000000000000000000000000000081525085898151811061068f577f4e487b7100000000000000000000000000000000000000000000000000000000600052603260045260246000fd5b6020026020010151610b36565b505b80806106a9906114f2565b91505061019a565b506000895167ffffffffffffffff8111156106f5577f4e487b7100000000000000000000000000000000000000000000000000000000600052604160045260246000fd5b6040519080825280602002602001820160405280156107235781602001602082028036833780820191505090505b50905060005b8a51811015610a26576107bc89828151811061076e577f4e487b7100000000000000000000000000000000000000000000000000000000600052603260045260246000fd5b60200260200101518587815181106107af577f4e487b7100000000000000000000000000000000000000000000000000000000600052603260045260246000fd5b6020026020010151610bd2565b156109365760008a82815181106107fc577f4e487b7100000000000000000000000000000000000000000000000000000000600052603260045260246000fd5b6020026020010151141580156108535750600a8a8281518110610848577f4e487b7100000000000000000000000000000000000000000000000000000000600052603260045260246000fd5b602002602001015114155b1561093157898181518110610891577f4e487b7100000000000000000000000000000000000000000000000000000000600052603260045260246000fd5b6020026020010180518091906108a6906114f2565b815250508981815181106108e3577f4e487b7100000000000000000000000000000000000000000000000000000000600052603260045260246000fd5b6020026020010151828281518110610924577f4e487b7100000000000000000000000000000000000000000000000000000000600052603260045260246000fd5b6020026020010181815250505b610a13565b60018a8281518110610971577f4e487b7100000000000000000000000000000000000000000000000000000000600052603260045260246000fd5b60200260200101511115610a125760028a82815181106109ba577f4e487b7100000000000000000000000000000000000000000000000000000000600052603260045260246000fd5b60200260200101516109cc9190611412565b8a8281518110610a05577f4e487b7100000000000000000000000000000000000000000000000000000000600052603260045260246000fd5b6020026020010181815250505b5b8080610a1e906114f2565b915050610729565b50600060405180608001604052808c81526020018b8152602001838152602001858781518110610a7f577f4e487b7100000000000000000000000000000000000000000000000000000000600052603260045260246000fd5b60200260200101518152509050809750505050505050509392505050565b610b3381604051602401610ab191906111bd565b6040516020818303038152906040527f41304fac000000000000000000000000000000000000000000000000000000007bffffffffffffffffffffffffffffffffffffffffffffffffffffffff19166020820180517bffffffffffffffffffffffffffffffffffffffffffffffffffffffff8381831617835250505050610c2b565b50565b610bce8282604051602401610b4c9291906111df565b6040516020818303038152906040527f4b5c4277000000000000000000000000000000000000000000000000000000007bffffffffffffffffffffffffffffffffffffffffffffffffffffffff19166020820180517bffffffffffffffffffffffffffffffffffffffffffffffffffffffff8381831617835250505050610c2b565b5050565b600081604051602001610be591906111a6565b6040516020818303038152906040528051906020012083604051602001610c0c91906111a6565b6040516020818303038152906040528051906020012014905092915050565b60008151905060006a636f6e736f6c652e6c6f679050602083016000808483855afa5050505050565b6040518060800160405280606081526020016060815260200160608152602001606081525090565b6000610c8f610c8a8461125d565b611238565b90508083825260208201905082856020860282011115610cae57600080fd5b60005b85811015610cde5781610cc48882610e18565b845260208401935060208301925050600181019050610cb1565b5050509392505050565b6000610cfb610cf684611289565b611238565b90508083825260208201905082856020860282011115610d1a57600080fd5b60005b85811015610d6457813567ffffffffffffffff811115610d3c57600080fd5b808601610d498982610eab565b85526020850194506020840193505050600181019050610d1d565b5050509392505050565b6000610d81610d7c846112b5565b611238565b90508083825260208201905082856020860282011115610da057600080fd5b60005b85811015610dd05781610db68882610ed5565b845260208401935060208301925050600181019050610da3565b5050509392505050565b6000610ded610de8846112e1565b611238565b905082815260208101848484011115610e0557600080fd5b610e1084828561147f565b509392505050565b600081359050610e27816115d9565b92915050565b600082601f830112610e3e57600080fd5b8135610e4e848260208601610c7c565b91505092915050565b600082601f830112610e6857600080fd5b8135610e78848260208601610ce8565b91505092915050565b600082601f830112610e9257600080fd5b8135610ea2848260208601610d6e565b91505092915050565b600082601f830112610ebc57600080fd5b8135610ecc848260208601610dda565b91505092915050565b600081359050610ee4816115f0565b92915050565b600080600060608486031215610eff57600080fd5b600084013567ffffffffffffffff811115610f1957600080fd5b610f2586828701610e2d565b935050602084013567ffffffffffffffff811115610f4257600080fd5b610f4e86828701610e81565b925050604084013567ffffffffffffffff811115610f6b57600080fd5b610f7786828701610e57565b9150509250925092565b6000610f8d8383610fb1565b60208301905092915050565b6000610fa58383611197565b60208301905092915050565b610fba81611443565b82525050565b6000610fcb82611332565b610fd5818561136d565b9350610fe083611312565b8060005b83811015611011578151610ff88882610f81565b975061100383611353565b925050600181019050610fe4565b5085935050505092915050565b60006110298261133d565b611033818561137e565b935061103e83611322565b8060005b8381101561106f5781516110568882610f99565b975061106183611360565b925050600181019050611042565b5085935050505092915050565b600061108782611348565b611091818561138f565b93506110a181856020860161148e565b6110aa816115c8565b840191505092915050565b60006110c082611348565b6110ca81856113a0565b93506110da81856020860161148e565b6110e3816115c8565b840191505092915050565b60006110f982611348565b61110381856113b1565b935061111381856020860161148e565b80840191505092915050565b6000608083016000830151848203600086015261113c8282610fc0565b91505060208301518482036020860152611156828261101e565b91505060408301518482036040860152611170828261101e565b9150506060830151848203606086015261118a828261107c565b9150508091505092915050565b6111a081611475565b82525050565b60006111b282846110ee565b915081905092915050565b600060208201905081810360008301526111d781846110b5565b905092915050565b600060408201905081810360008301526111f981856110b5565b9050818103602083015261120d81846110b5565b90509392505050565b60006020820190508181036000830152611230818461111f565b905092915050565b6000611242611253565b905061124e82826114c1565b919050565b6000604051905090565b600067ffffffffffffffff82111561127857611277611599565b5b602082029050602081019050919050565b600067ffffffffffffffff8211156112a4576112a3611599565b5b602082029050602081019050919050565b600067ffffffffffffffff8211156112d0576112cf611599565b5b602082029050602081019050919050565b600067ffffffffffffffff8211156112fc576112fb611599565b5b611305826115c8565b9050602081019050919050565b6000819050602082019050919050565b6000819050602082019050919050565b600081519050919050565b600081519050919050565b600081519050919050565b6000602082019050919050565b6000602082019050919050565b600082825260208201905092915050565b600082825260208201905092915050565b600082825260208201905092915050565b600082825260208201905092915050565b600081905092915050565b60006113c782611475565b91506113d283611475565b9250827fffffffffffffffffffffffffffffffffffffffffffffffffffffffffffffffff038211156114075761140661153b565b5b828201905092915050565b600061141d82611475565b915061142883611475565b9250826114385761143761156a565b5b828204905092915050565b600061144e82611455565b9050919050565b600073ffffffffffffffffffffffffffffffffffffffff82169050919050565b6000819050919050565b82818337600083830152505050565b60005b838110156114ac578082015181840152602081019050611491565b838111156114bb576000848401525b50505050565b6114ca826115c8565b810181811067ffffffffffffffff821117156114e9576114e8611599565b5b80604052505050565b60006114fd82611475565b91507fffffffffffffffffffffffffffffffffffffffffffffffffffffffffffffffff8214156115305761152f61153b565b5b600182019050919050565b7f4e487b7100000000000000000000000000000000000000000000000000000000600052601160045260246000fd5b7f4e487b7100000000000000000000000000000000000000000000000000000000600052601260045260246000fd5b7f4e487b7100000000000000000000000000000000000000000000000000000000600052604160045260246000fd5b6000601f19601f8301169050919050565b6115e281611443565b81146115ed57600080fd5b50565b6115f981611475565b811461160457600080fd5b5056fea2646970667358221220b8b7cb621cf0a8dc70d4591be3c8e2717630ed07305d62e126d75bf29b4b474e64736f6c63430008040033",
  "linkReferences": {},
  "deployedLinkReferences": {}
}