{
  "_format": "hh-sol-artifact-1",
  "contractName": "TruthDisco",
  "sourceName": "contracts/TruthDisco.sol",
  "abi": [
    {
      "inputs": [
        {
          "internalType": "address",
          "name": "tokenAddress",
          "type": "address"
        }
      ],
      "stateMutability": "nonpayable",
      "type": "constructor"
    },
    {
      "inputs": [],
      "name": "_owner",
      "outputs": [
        {
          "internalType": "address",
          "name": "",
          "type": "address"
        }
      ],
      "stateMutability": "view",
      "type": "function"
    },
    {
      "inputs": [],
      "name": "_tokenAddr",
      "outputs": [
        {
          "internalType": "address",
          "name": "",
          "type": "address"
        }
      ],
      "stateMutability": "view",
      "type": "function"
    },
    {
      "inputs": [
        {
          "internalType": "uint256",
          "name": "qId",
          "type": "uint256"
        }
      ],
      "name": "checkAnswers",
      "outputs": [
        {
          "components": [
            {
              "internalType": "address",
              "name": "submittedBy",
              "type": "address"
            },
            {
              "internalType": "string",
              "name": "submission",
              "type": "string"
            }
          ],
          "internalType": "struct Questions.Answer[]",
          "name": "",
          "type": "tuple[]"
        }
      ],
      "stateMutability": "view",
      "type": "function"
    },
    {
      "inputs": [
        {
          "internalType": "uint256",
          "name": "qId",
          "type": "uint256"
        }
      ],
      "name": "closeQuestion",
      "outputs": [],
      "stateMutability": "nonpayable",
      "type": "function"
    },
    {
      "inputs": [],
      "name": "getQuestions",
      "outputs": [
        {
          "internalType": "uint256[]",
          "name": "",
          "type": "uint256[]"
        }
      ],
      "stateMutability": "view",
      "type": "function"
    },
    {
      "inputs": [
        {
          "internalType": "string",
          "name": "stimulus",
          "type": "string"
        }
      ],
      "name": "initQuestion",
      "outputs": [],
      "stateMutability": "nonpayable",
      "type": "function"
    },
    {
      "inputs": [
        {
          "internalType": "uint256",
          "name": "qId",
          "type": "uint256"
        },
        {
          "internalType": "string",
          "name": "sub",
          "type": "string"
        }
      ],
      "name": "submitAnswer",
      "outputs": [],
      "stateMutability": "nonpayable",
      "type": "function"
    }
  ],
  "bytecode": "0x60806040523480156200001157600080fd5b5060405162002f0038038062002f008339818101604052810190620000379190620001ca565b336000806101000a81548173ffffffffffffffffffffffffffffffffffffffff021916908373ffffffffffffffffffffffffffffffffffffffff160217905550604051620000859062000197565b604051809103906000f080158015620000a2573d6000803e3d6000fd5b50600160006101000a81548173ffffffffffffffffffffffffffffffffffffffff021916908373ffffffffffffffffffffffffffffffffffffffff160217905550604051620000f190620001a5565b604051809103906000f0801580156200010e573d6000803e3d6000fd5b50600260006101000a81548173ffffffffffffffffffffffffffffffffffffffff021916908373ffffffffffffffffffffffffffffffffffffffff16021790555080600360006101000a81548173ffffffffffffffffffffffffffffffffffffffff021916908373ffffffffffffffffffffffffffffffffffffffff1602179055505062000244565b6102e780620017b083390190565b6114698062001a9783390190565b600081519050620001c4816200022a565b92915050565b600060208284031215620001dd57600080fd5b6000620001ed84828501620001b3565b91505092915050565b600062000203826200020a565b9050919050565b600073ffffffffffffffffffffffffffffffffffffffff82169050919050565b6200023581620001f6565b81146200024157600080fd5b50565b61155c80620002546000396000f3fe608060405234801561001057600080fd5b506004361061007d5760003560e01c8063a5a65c101161005b578063a5a65c10146100da578063b2bdfa7b1461010a578063c09f32e814610128578063c9616bde146101445761007d565b806301fa3bec1461008257806397221ab71461009e5780639ab804e4146100bc575b600080fd5b61009c60048036038101906100979190610d47565b610160565b005b6100a6610219565b6040516100b39190611008565b60405180910390f35b6100c46102c5565b6040516100d19190610fcb565b60405180910390f35b6100f460048036038101906100ef9190610d1e565b6102eb565b6040516101019190610fe6565b60405180910390f35b6101126103a4565b60405161011f9190610fcb565b60405180910390f35b610142600480360381019061013d9190610d1e565b6103c8565b005b61015e60048036038101906101599190610cdd565b610525565b005b600260009054906101000a900473ffffffffffffffffffffffffffffffffffffffff1673ffffffffffffffffffffffffffffffffffffffff1663ba3995f58333846040518463ffffffff1660e01b81526004016101bf93929190611191565b600060405180830381600087803b1580156101d957600080fd5b505af11580156101ed573d6000803e3d6000fd5b505050506102156040518060600160405280602881526020016114d860289139338484610703565b5050565b6060600260009054906101000a900473ffffffffffffffffffffffffffffffffffffffff1673ffffffffffffffffffffffffffffffffffffffff166356fe5bb06040518163ffffffff1660e01b815260040160006040518083038186803b15801561028357600080fd5b505afa158015610297573d6000803e3d6000fd5b505050506040513d6000823e3d601f19601f820116820180604052508101906102c09190610c9c565b905090565b600360009054906101000a900473ffffffffffffffffffffffffffffffffffffffff1681565b6060600260009054906101000a900473ffffffffffffffffffffffffffffffffffffffff1673ffffffffffffffffffffffffffffffffffffffff166394b99f20836040518263ffffffff1660e01b81526004016103489190611176565b60006040518083038186803b15801561036057600080fd5b505afa158015610374573d6000803e3d6000fd5b505050506040513d6000823e3d601f19601f8201168201806040525081019061039d9190610c5b565b9050919050565b60008054906101000a900473ffffffffffffffffffffffffffffffffffffffff1681565b60008054906101000a900473ffffffffffffffffffffffffffffffffffffffff1673ffffffffffffffffffffffffffffffffffffffff163373ffffffffffffffffffffffffffffffffffffffff1614610456576040517f08c379a000000000000000000000000000000000000000000000000000000000815260040161044d90611136565b60405180910390fd5b600260009054906101000a900473ffffffffffffffffffffffffffffffffffffffff1673ffffffffffffffffffffffffffffffffffffffff1663c09f32e8826040518263ffffffff1660e01b81526004016104b19190611176565b600060405180830381600087803b1580156104cb57600080fd5b505af11580156104df573d6000803e3d6000fd5b505050506105226040518060400160405280601481526020017f436c6f73696e67207175657374696f6e3a202573000000000000000000000000815250826107a5565b50565b60008054906101000a900473ffffffffffffffffffffffffffffffffffffffff1673ffffffffffffffffffffffffffffffffffffffff163373ffffffffffffffffffffffffffffffffffffffff16146105b3576040517f08c379a00000000000000000000000000000000000000000000000000000000081526004016105aa90611156565b60405180910390fd5b6106126040518060400160405280600a81526020017f5f6f776e65723a2025730000000000000000000000000000000000000000000081525060008054906101000a900473ffffffffffffffffffffffffffffffffffffffff16610841565b6106516040518060400160405280600e81526020017f6d73672e73656e6465723a20257300000000000000000000000000000000000081525033610841565b61067360405180606001604052806027815260200161150060279139826108dd565b600260009054906101000a900473ffffffffffffffffffffffffffffffffffffffff1673ffffffffffffffffffffffffffffffffffffffff1663c9616bde826040518263ffffffff1660e01b81526004016106ce919061102a565b600060405180830381600087803b1580156106e857600080fd5b505af11580156106fc573d6000803e3d6000fd5b5050505050565b61079f8484848460405160240161071d949392919061107c565b6040516020818303038152906040527f4c55f234000000000000000000000000000000000000000000000000000000007bffffffffffffffffffffffffffffffffffffffffffffffffffffffff19166020820180517bffffffffffffffffffffffffffffffffffffffffffffffffffffffff8381831617835250505050610979565b50505050565b61083d82826040516024016107bb929190611106565b6040516020818303038152906040527f9710a9d0000000000000000000000000000000000000000000000000000000007bffffffffffffffffffffffffffffffffffffffffffffffffffffffff19166020820180517bffffffffffffffffffffffffffffffffffffffffffffffffffffffff8381831617835250505050610979565b5050565b6108d9828260405160240161085792919061104c565b6040516020818303038152906040527f319af333000000000000000000000000000000000000000000000000000000007bffffffffffffffffffffffffffffffffffffffffffffffffffffffff19166020820180517bffffffffffffffffffffffffffffffffffffffffffffffffffffffff8381831617835250505050610979565b5050565b61097582826040516024016108f39291906110cf565b6040516020818303038152906040527f4b5c4277000000000000000000000000000000000000000000000000000000007bffffffffffffffffffffffffffffffffffffffffffffffffffffffff19166020820180517bffffffffffffffffffffffffffffffffffffffffffffffffffffffff8381831617835250505050610979565b5050565b60008151905060006a636f6e736f6c652e6c6f679050602083016000808483855afa5050505050565b60006109b56109b0846111f4565b6111cf565b905080838252602082019050828560208602820111156109d457600080fd5b60005b85811015610a1e57815167ffffffffffffffff8111156109f657600080fd5b808601610a038982610bcd565b855260208501945060208401935050506001810190506109d7565b5050509392505050565b6000610a3b610a3684611220565b6111cf565b90508083825260208201905082856020860282011115610a5a57600080fd5b60005b85811015610a8a5781610a708882610c46565b845260208401935060208301925050600181019050610a5d565b5050509392505050565b6000610aa7610aa28461124c565b6111cf565b905082815260208101848484011115610abf57600080fd5b610aca848285611358565b509392505050565b6000610ae5610ae08461124c565b6111cf565b905082815260208101848484011115610afd57600080fd5b610b08848285611367565b509392505050565b600081519050610b1f816114a9565b92915050565b600082601f830112610b3657600080fd5b8151610b468482602086016109a2565b91505092915050565b600082601f830112610b6057600080fd5b8151610b70848260208601610a28565b91505092915050565b600082601f830112610b8a57600080fd5b8135610b9a848260208601610a94565b91505092915050565b600082601f830112610bb457600080fd5b8151610bc4848260208601610ad2565b91505092915050565b600060408284031215610bdf57600080fd5b610be960406111cf565b90506000610bf984828501610b10565b600083015250602082015167ffffffffffffffff811115610c1957600080fd5b610c2584828501610ba3565b60208301525092915050565b600081359050610c40816114c0565b92915050565b600081519050610c55816114c0565b92915050565b600060208284031215610c6d57600080fd5b600082015167ffffffffffffffff811115610c8757600080fd5b610c9384828501610b25565b91505092915050565b600060208284031215610cae57600080fd5b600082015167ffffffffffffffff811115610cc857600080fd5b610cd484828501610b4f565b91505092915050565b600060208284031215610cef57600080fd5b600082013567ffffffffffffffff811115610d0957600080fd5b610d1584828501610b79565b91505092915050565b600060208284031215610d3057600080fd5b6000610d3e84828501610c31565b91505092915050565b60008060408385031215610d5a57600080fd5b6000610d6885828601610c31565b925050602083013567ffffffffffffffff811115610d8557600080fd5b610d9185828601610b79565b9150509250929050565b6000610da78383610f70565b905092915050565b6000610dbb8383610fad565b60208301905092915050565b610dd08161131c565b82525050565b610ddf8161131c565b82525050565b6000610df08261129d565b610dfa81856112d8565b935083602082028501610e0c8561127d565b8060005b85811015610e485784840389528151610e298582610d9b565b9450610e34836112be565b925060208a01995050600181019050610e10565b50829750879550505050505092915050565b6000610e65826112a8565b610e6f81856112e9565b9350610e7a8361128d565b8060005b83811015610eab578151610e928882610daf565b9750610e9d836112cb565b925050600181019050610e7e565b5085935050505092915050565b6000610ec3826112b3565b610ecd81856112fa565b9350610edd818560208601611367565b610ee6816113fa565b840191505092915050565b6000610efc826112b3565b610f06818561130b565b9350610f16818560208601611367565b610f1f816113fa565b840191505092915050565b6000610f37602a8361130b565b9150610f428261140b565b604082019050919050565b6000610f5a602b8361130b565b9150610f658261145a565b604082019050919050565b6000604083016000830151610f886000860182610dc7565b5060208301518482036020860152610fa08282610eb8565b9150508091505092915050565b610fb68161134e565b82525050565b610fc58161134e565b82525050565b6000602082019050610fe06000830184610dd6565b92915050565b600060208201905081810360008301526110008184610de5565b905092915050565b600060208201905081810360008301526110228184610e5a565b905092915050565b600060208201905081810360008301526110448184610ef1565b905092915050565b600060408201905081810360008301526110668185610ef1565b90506110756020830184610dd6565b9392505050565b600060808201905081810360008301526110968187610ef1565b90506110a56020830186610dd6565b6110b26040830185610fbc565b81810360608301526110c48184610ef1565b905095945050505050565b600060408201905081810360008301526110e98185610ef1565b905081810360208301526110fd8184610ef1565b90509392505050565b600060408201905081810360008301526111208185610ef1565b905061112f6020830184610fbc565b9392505050565b6000602082019050818103600083015261114f81610f2a565b9050919050565b6000602082019050818103600083015261116f81610f4d565b9050919050565b600060208201905061118b6000830184610fbc565b92915050565b60006060820190506111a66000830186610fbc565b6111b36020830185610dd6565b81810360408301526111c58184610ef1565b9050949350505050565b60006111d96111ea565b90506111e5828261139a565b919050565b6000604051905090565b600067ffffffffffffffff82111561120f5761120e6113cb565b5b602082029050602081019050919050565b600067ffffffffffffffff82111561123b5761123a6113cb565b5b602082029050602081019050919050565b600067ffffffffffffffff821115611267576112666113cb565b5b611270826113fa565b9050602081019050919050565b6000819050602082019050919050565b6000819050602082019050919050565b600081519050919050565b600081519050919050565b600081519050919050565b6000602082019050919050565b6000602082019050919050565b600082825260208201905092915050565b600082825260208201905092915050565b600082825260208201905092915050565b600082825260208201905092915050565b60006113278261132e565b9050919050565b600073ffffffffffffffffffffffffffffffffffffffff82169050919050565b6000819050919050565b82818337600083830152505050565b60005b8381101561138557808201518184015260208101905061136a565b83811115611394576000848401525b50505050565b6113a3826113fa565b810181811067ffffffffffffffff821117156113c2576113c16113cb565b5b80604052505050565b7f4e487b7100000000000000000000000000000000000000000000000000000000600052604160045260246000fd5b6000601f19601f8301169050919050565b7f4f6e6c79207468652061646d696e6973747261746f722063616e20636c6f736560008201527f207175657374696f6e7300000000000000000000000000000000000000000000602082015250565b7f4f6e6c79207468652061646d696e6973747261746f722063616e20637265617460008201527f65207175657374696f6e73000000000000000000000000000000000000000000602082015250565b6114b28161131c565b81146114bd57600080fd5b50565b6114c98161134e565b81146114d457600080fd5b5056fe557365723a2025732c205175657374696f6e49443a2025732c205375626d697373696f6e3a202573696e697469616c6973696e67207175657374696f6e2077697468207374696d756c75733a202573a26469706673582212201364f74febb27a6703bb3ba032e41e197bf433937d8513d0a9f36070a67ab14c64736f6c63430008040033608060405234801561001057600080fd5b506102c7806100206000396000f3fe608060405234801561001057600080fd5b50600436106100365760003560e01c80636a08b5111461003b578063db89c0441461006b575b600080fd5b6100556004803603810190610050919061018b565b61009b565b60405161006291906101e5565b60405180910390f35b61008560048036038101906100809190610162565b6100ed565b6040516100929190610200565b60405180910390f35b6000816000808573ffffffffffffffffffffffffffffffffffffffff1673ffffffffffffffffffffffffffffffffffffffff168152602001908152602001600020600001819055506001905092915050565b60008060008373ffffffffffffffffffffffffffffffffffffffff1673ffffffffffffffffffffffffffffffffffffffff168152602001908152602001600020600001549050919050565b60008135905061014781610263565b92915050565b60008135905061015c8161027a565b92915050565b60006020828403121561017457600080fd5b600061018284828501610138565b91505092915050565b6000806040838503121561019e57600080fd5b60006101ac85828601610138565b92505060206101bd8582860161014d565b9150509250929050565b6101d08161022d565b82525050565b6101df81610239565b82525050565b60006020820190506101fa60008301846101c7565b92915050565b600060208201905061021560008301846101d6565b92915050565b600061022682610243565b9050919050565b60008115159050919050565b6000819050919050565b600073ffffffffffffffffffffffffffffffffffffffff82169050919050565b61026c8161021b565b811461027757600080fd5b50565b61028381610239565b811461028e57600080fd5b5056fea264697066735822122014ce3eaadf3bbd67cbfe06f28a2cea8812e00886200420ccb317ab62f86757cd64736f6c6343000804003360806040523480156200001157600080fd5b506200005d6040518060400160405280601981526020017f5175657374696f6e20696e7374616e63652063726561746564000000000000008152506200007360201b620007ae1760201c565b6000600181905550600060028190555062000207565b62000113816040516024016200008a919062000180565b6040516020818303038152906040527f41304fac000000000000000000000000000000000000000000000000000000007bffffffffffffffffffffffffffffffffffffffffffffffffffffffff19166020820180517bffffffffffffffffffffffffffffffffffffffffffffffffffffffff83818316178352505050506200011660201b60201c565b50565b60008151905060006a636f6e736f6c652e6c6f679050602083016000808483855afa5050505050565b60006200014c82620001a4565b620001588185620001af565b93506200016a818560208601620001c0565b6200017581620001f6565b840191505092915050565b600060208201905081810360008301526200019c81846200013f565b905092915050565b600081519050919050565b600082825260208201905092915050565b60005b83811015620001e0578082015181840152602081019050620001c3565b83811115620001f0576000848401525b50505050565b6000601f19601f8301169050919050565b61125280620002176000396000f3fe608060405234801561001057600080fd5b50600436106100575760003560e01c806356fe5bb01461005c57806394b99f201461007a578063ba3995f5146100aa578063c09f32e8146100c6578063c9616bde146100e2575b600080fd5b6100646100fe565b6040516100719190610d85565b60405180910390f35b610094600480360381019061008f9190610ab2565b610221565b6040516100a19190610d63565b60405180910390f35b6100c460048036038101906100bf9190610adb565b610445565b005b6100e060048036038101906100db9190610ab2565b6105e6565b005b6100fc60048036038101906100f79190610a71565b61062f565b005b6060600060025467ffffffffffffffff811115610144577f4e487b7100000000000000000000000000000000000000000000000000000000600052604160045260246000fd5b6040519080825280602002602001820160405280156101725781602001602082028036833780820191505090505b50905060005b6002548110156102195760008082815260200190815260200160002060010160009054906101000a900460ff161561020657600080828152602001908152602001600020600001548282815181106101f9577f4e487b7100000000000000000000000000000000000000000000000000000000600052603260045260246000fd5b6020026020010181815250505b808061021190611069565b915050610178565b508091505090565b6060600080600084815260200190815260200160002060030154905060008167ffffffffffffffff81111561027f577f4e487b7100000000000000000000000000000000000000000000000000000000600052604160045260246000fd5b6040519080825280602002602001820160405280156102b857816020015b6102a561090c565b81526020019060019003908161029d5790505b50905060005b8281101561043a5760006003600087815260200190815260200160002060008381526020019081526020016000209050806040518060400160405290816000820160009054906101000a900473ffffffffffffffffffffffffffffffffffffffff1673ffffffffffffffffffffffffffffffffffffffff1673ffffffffffffffffffffffffffffffffffffffff16815260200160018201805461036090611006565b80601f016020809104026020016040519081016040528092919081815260200182805461038c90611006565b80156103d95780601f106103ae576101008083540402835291602001916103d9565b820191906000526020600020905b8154815290600101906020018083116103bc57829003601f168201915b50505050508152505083838151811061041b577f4e487b7100000000000000000000000000000000000000000000000000000000600052603260045260246000fd5b602002602001018190525050808061043290611069565b9150506102be565b508092505050919050565b6001548310610489576040517f08c379a000000000000000000000000000000000000000000000000000000000815260040161048090610e19565b60405180910390fd5b60008084815260200190815260200160002060010160009054906101000a900460ff166104eb576040517f08c379a00000000000000000000000000000000000000000000000000000000081526004016104e290610df9565b60405180910390fd5b60405180604001604052808373ffffffffffffffffffffffffffffffffffffffff1681526020018281525060036000858152602001908152602001600020600080600087815260200190815260200160002060030154815260200190815260200160002060008201518160000160006101000a81548173ffffffffffffffffffffffffffffffffffffffff021916908373ffffffffffffffffffffffffffffffffffffffff16021790555060208201518160010190805190602001906105b292919061093c565b5090505060008084815260200190815260200160002060030160008154809291906105dc90611069565b9190505550505050565b600080600083815260200190815260200160002060010160006101000a81548160ff0219169083151502179055506002600081548092919061062790610fdc565b919050555050565b6106706040518060400160405280600e81526020017f7175657374696f6e49443a202573000000000000000000000000000000000000815250600154610847565b60405180608001604052806001548152602001600115158152602001828152602001600081525060008060015481526020019081526020016000206000820151816000015560208201518160010160006101000a81548160ff02191690831515021790555060408201518160020190805190602001906106f192919061093c565b50606082015181600301559050507fa5fbefdc56bf0d2d586a82a9f50784dfe29ae6d3cfe3e0491131259d4f2042ee60015482604051610732929190610e39565b60405180910390a16001600081548092919061074d90611069565b91905055506002600081548092919061076590611069565b91905055506107ab6040518060400160405280601281526020017f5175657374696f6e20636f756e743a2025730000000000000000000000000000815250600154610847565b50565b610844816040516024016107c29190610da7565b6040516020818303038152906040527f41304fac000000000000000000000000000000000000000000000000000000007bffffffffffffffffffffffffffffffffffffffffffffffffffffffff19166020820180517bffffffffffffffffffffffffffffffffffffffffffffffffffffffff83818316178352505050506108e3565b50565b6108df828260405160240161085d929190610dc9565b6040516020818303038152906040527f9710a9d0000000000000000000000000000000000000000000000000000000007bffffffffffffffffffffffffffffffffffffffffffffffffffffffff19166020820180517bffffffffffffffffffffffffffffffffffffffffffffffffffffffff83818316178352505050506108e3565b5050565b60008151905060006a636f6e736f6c652e6c6f679050602083016000808483855afa5050505050565b6040518060400160405280600073ffffffffffffffffffffffffffffffffffffffff168152602001606081525090565b82805461094890611006565b90600052602060002090601f01602090048101928261096a57600085556109b1565b82601f1061098357805160ff19168380011785556109b1565b828001600101855582156109b1579182015b828111156109b0578251825591602001919060010190610995565b5b5090506109be91906109c2565b5090565b5b808211156109db5760008160009055506001016109c3565b5090565b60006109f26109ed84610e8e565b610e69565b905082815260208101848484011115610a0a57600080fd5b610a15848285610f9a565b509392505050565b600081359050610a2c816111ee565b92915050565b600082601f830112610a4357600080fd5b8135610a538482602086016109df565b91505092915050565b600081359050610a6b81611205565b92915050565b600060208284031215610a8357600080fd5b600082013567ffffffffffffffff811115610a9d57600080fd5b610aa984828501610a32565b91505092915050565b600060208284031215610ac457600080fd5b6000610ad284828501610a5c565b91505092915050565b600080600060608486031215610af057600080fd5b6000610afe86828701610a5c565b9350506020610b0f86828701610a1d565b925050604084013567ffffffffffffffff811115610b2c57600080fd5b610b3886828701610a32565b9150509250925092565b6000610b4e8383610d08565b905092915050565b6000610b628383610d45565b60208301905092915050565b610b7781610f5e565b82525050565b6000610b8882610edf565b610b928185610f1a565b935083602082028501610ba485610ebf565b8060005b85811015610be05784840389528151610bc18582610b42565b9450610bcc83610f00565b925060208a01995050600181019050610ba8565b50829750879550505050505092915050565b6000610bfd82610eea565b610c078185610f2b565b9350610c1283610ecf565b8060005b83811015610c43578151610c2a8882610b56565b9750610c3583610f0d565b925050600181019050610c16565b5085935050505092915050565b6000610c5b82610ef5565b610c658185610f3c565b9350610c75818560208601610fa9565b610c7e8161113f565b840191505092915050565b6000610c9482610ef5565b610c9e8185610f4d565b9350610cae818560208601610fa9565b610cb78161113f565b840191505092915050565b6000610ccf602e83610f4d565b9150610cda82611150565b604082019050919050565b6000610cf2602d83610f4d565b9150610cfd8261119f565b604082019050919050565b6000604083016000830151610d206000860182610b6e565b5060208301518482036020860152610d388282610c50565b9150508091505092915050565b610d4e81610f90565b82525050565b610d5d81610f90565b82525050565b60006020820190508181036000830152610d7d8184610b7d565b905092915050565b60006020820190508181036000830152610d9f8184610bf2565b905092915050565b60006020820190508181036000830152610dc18184610c89565b905092915050565b60006040820190508181036000830152610de38185610c89565b9050610df26020830184610d54565b9392505050565b60006020820190508181036000830152610e1281610cc2565b9050919050565b60006020820190508181036000830152610e3281610ce5565b9050919050565b6000604082019050610e4e6000830185610d54565b8181036020830152610e608184610c89565b90509392505050565b6000610e73610e84565b9050610e7f8282611038565b919050565b6000604051905090565b600067ffffffffffffffff821115610ea957610ea8611110565b5b610eb28261113f565b9050602081019050919050565b6000819050602082019050919050565b6000819050602082019050919050565b600081519050919050565b600081519050919050565b600081519050919050565b6000602082019050919050565b6000602082019050919050565b600082825260208201905092915050565b600082825260208201905092915050565b600082825260208201905092915050565b600082825260208201905092915050565b6000610f6982610f70565b9050919050565b600073ffffffffffffffffffffffffffffffffffffffff82169050919050565b6000819050919050565b82818337600083830152505050565b60005b83811015610fc7578082015181840152602081019050610fac565b83811115610fd6576000848401525b50505050565b6000610fe782610f90565b91506000821415610ffb57610ffa6110b2565b5b600182039050919050565b6000600282049050600182168061101e57607f821691505b60208210811415611032576110316110e1565b5b50919050565b6110418261113f565b810181811067ffffffffffffffff821117156110605761105f611110565b5b80604052505050565b600061107482610f90565b91507fffffffffffffffffffffffffffffffffffffffffffffffffffffffffffffffff8214156110a7576110a66110b2565b5b600182019050919050565b7f4e487b7100000000000000000000000000000000000000000000000000000000600052601160045260246000fd5b7f4e487b7100000000000000000000000000000000000000000000000000000000600052602260045260246000fd5b7f4e487b7100000000000000000000000000000000000000000000000000000000600052604160045260246000fd5b6000601f19601f8301169050919050565b7f496e76616c6964207175657374696f6e204944202d207175657374696f6e206860008201527f6173206265656e20636c6f736564000000000000000000000000000000000000602082015250565b7f496e76616c6964207175657374696f6e204944202d207175657374696f6e206460008201527f6f6573206e6f7420657869737400000000000000000000000000000000000000602082015250565b6111f781610f5e565b811461120257600080fd5b50565b61120e81610f90565b811461121957600080fd5b5056fea2646970667358221220f51e44b6f5b39fea64668330b14033d30153cfe4fca4cdb6e1174fc749027c8f64736f6c63430008040033",
  "linkReferences": {},
  "deployedLinkReferences": {}
}