{
  "_format": "hh-sol-artifact-1",
  "contractName": "TruthDisco",
  "sourceName": "contracts/TruthDisco.sol",
  "abi": [
    {
      "inputs": [
        {
          "internalType": "address",
          "name": "tokenAddress",
          "type": "address"
        },
        {
          "internalType": "string",
          "name": "publicKey",
          "type": "string"
        }
      ],
      "stateMutability": "nonpayable",
      "type": "constructor"
    },
    {
      "inputs": [],
      "name": "_owner",
      "outputs": [
        {
          "internalType": "address",
          "name": "",
          "type": "address"
        }
      ],
      "stateMutability": "view",
      "type": "function"
    },
    {
      "inputs": [],
      "name": "_publicKey",
      "outputs": [
        {
          "internalType": "string",
          "name": "",
          "type": "string"
        }
      ],
      "stateMutability": "view",
      "type": "function"
    },
    {
      "inputs": [],
      "name": "_tokenAddr",
      "outputs": [
        {
          "internalType": "address",
          "name": "",
          "type": "address"
        }
      ],
      "stateMutability": "view",
      "type": "function"
    },
    {
      "inputs": [
        {
          "internalType": "uint256",
          "name": "qId",
          "type": "uint256"
        }
      ],
      "name": "getQuestionSubmissions",
      "outputs": [
        {
          "components": [
            {
              "internalType": "address",
              "name": "submittedBy",
              "type": "address"
            },
            {
              "internalType": "uint256",
              "name": "reputation",
              "type": "uint256"
            },
            {
              "internalType": "string",
              "name": "submission",
              "type": "string"
            }
          ],
          "internalType": "struct Questions.Answer[]",
          "name": "",
          "type": "tuple[]"
        }
      ],
      "stateMutability": "view",
      "type": "function"
    },
    {
      "inputs": [],
      "name": "getQuestions",
      "outputs": [
        {
          "components": [
            {
              "internalType": "uint256",
              "name": "id",
              "type": "uint256"
            },
            {
              "internalType": "bool",
              "name": "active",
              "type": "bool"
            },
            {
              "internalType": "string",
              "name": "stimulus",
              "type": "string"
            },
            {
              "internalType": "uint256",
              "name": "ansCount",
              "type": "uint256"
            }
          ],
          "internalType": "struct Questions.Question[]",
          "name": "",
          "type": "tuple[]"
        }
      ],
      "stateMutability": "view",
      "type": "function"
    },
    {
      "inputs": [
        {
          "internalType": "string",
          "name": "stimulus",
          "type": "string"
        }
      ],
      "name": "initQuestion",
      "outputs": [],
      "stateMutability": "nonpayable",
      "type": "function"
    },
    {
      "inputs": [
        {
          "internalType": "uint256",
          "name": "qId",
          "type": "uint256"
        },
        {
          "internalType": "address[]",
          "name": "users",
          "type": "address[]"
        },
        {
          "internalType": "uint256[]",
          "name": "rewards",
          "type": "uint256[]"
        },
        {
          "internalType": "uint256[]",
          "name": "reputation",
          "type": "uint256[]"
        }
      ],
      "name": "processQuestion",
      "outputs": [],
      "stateMutability": "nonpayable",
      "type": "function"
    },
    {
      "inputs": [
        {
          "internalType": "uint256",
          "name": "qId",
          "type": "uint256"
        },
        {
          "internalType": "string",
          "name": "sub",
          "type": "string"
        }
      ],
      "name": "submitAnswer",
      "outputs": [],
      "stateMutability": "nonpayable",
      "type": "function"
    }
  ],
  "bytecode": "0x60806040523480156200001157600080fd5b5060405162003a8e38038062003a8e833981810160405281019062000037919062000306565b336000806101000a81548173ffffffffffffffffffffffffffffffffffffffff021916908373ffffffffffffffffffffffffffffffffffffffff1602179055506040516200008590620001b1565b604051809103906000f080158015620000a2573d6000803e3d6000fd5b50600160006101000a81548173ffffffffffffffffffffffffffffffffffffffff021916908373ffffffffffffffffffffffffffffffffffffffff160217905550604051620000f190620001bf565b604051809103906000f0801580156200010e573d6000803e3d6000fd5b50600260006101000a81548173ffffffffffffffffffffffffffffffffffffffff021916908373ffffffffffffffffffffffffffffffffffffffff16021790555081600360006101000a81548173ffffffffffffffffffffffffffffffffffffffff021916908373ffffffffffffffffffffffffffffffffffffffff1602179055508060049080519060200190620001a8929190620001cd565b5050506200051e565b61029580620021ba83390190565b61163f806200244f83390190565b828054620001db9062000429565b90600052602060002090601f016020900481019282620001ff57600085556200024b565b82601f106200021a57805160ff19168380011785556200024b565b828001600101855582156200024b579182015b828111156200024a5782518255916020019190600101906200022d565b5b5090506200025a91906200025e565b5090565b5b80821115620002795760008160009055506001016200025f565b5090565b6000620002946200028e8462000389565b62000360565b905082815260208101848484011115620002ad57600080fd5b620002ba848285620003f3565b509392505050565b600081519050620002d38162000504565b92915050565b600082601f830112620002eb57600080fd5b8151620002fd8482602086016200027d565b91505092915050565b600080604083850312156200031a57600080fd5b60006200032a85828601620002c2565b925050602083015167ffffffffffffffff8111156200034857600080fd5b6200035685828601620002d9565b9150509250929050565b60006200036c6200037f565b90506200037a82826200045f565b919050565b6000604051905090565b600067ffffffffffffffff821115620003a757620003a6620004c4565b5b620003b282620004f3565b9050602081019050919050565b6000620003cc82620003d3565b9050919050565b600073ffffffffffffffffffffffffffffffffffffffff82169050919050565b60005b8381101562000413578082015181840152602081019050620003f6565b8381111562000423576000848401525b50505050565b600060028204905060018216806200044257607f821691505b6020821081141562000459576200045862000495565b5b50919050565b6200046a82620004f3565b810181811067ffffffffffffffff821117156200048c576200048b620004c4565b5b80604052505050565b7f4e487b7100000000000000000000000000000000000000000000000000000000600052602260045260246000fd5b7f4e487b7100000000000000000000000000000000000000000000000000000000600052604160045260246000fd5b6000601f19601f8301169050919050565b6200050f81620003bf565b81146200051b57600080fd5b50565b611c8c806200052e6000396000f3fe608060405234801561001057600080fd5b50600436106100875760003560e01c80639ab804e41161005b5780639ab804e414610114578063b2bdfa7b14610132578063bb4807a714610150578063c9616bde1461016c57610087565b8062607a7d1461008c57806301fa3bec146100aa5780638aee48d7146100c657806397221ab7146100f6575b600080fd5b610094610188565b6040516100a19190611601565b60405180910390f35b6100c460048036038101906100bf9190611263565b610216565b005b6100e060048036038101906100db9190611166565b610381565b6040516100ed91906115bd565b60405180910390f35b6100fe610507565b60405161010b91906115df565b60405180910390f35b61011c6105b3565b60405161012991906115a2565b60405180910390f35b61013a6105d9565b60405161014791906115a2565b60405180910390f35b61016a600480360381019061016591906111b8565b6105fd565b005b61018660048036038101906101819190611125565b61075d565b005b6004805461019590611a03565b80601f01602080910402602001604051908101604052809291908181526020018280546101c190611a03565b801561020e5780601f106101e35761010080835404028352916020019161020e565b820191906000526020600020905b8154815290600101906020018083116101f157829003601f168201915b505050505081565b6000600160009054906101000a900473ffffffffffffffffffffffffffffffffffffffff1673ffffffffffffffffffffffffffffffffffffffff1663db89c044336040518263ffffffff1660e01b815260040161027391906115a2565b60206040518083038186803b15801561028b57600080fd5b505afa15801561029f573d6000803e3d6000fd5b505050506040513d601f19601f820116820180604052508101906102c3919061118f565b9050600260009054906101000a900473ffffffffffffffffffffffffffffffffffffffff1673ffffffffffffffffffffffffffffffffffffffff16633b53b63b843384866040518563ffffffff1660e01b81526004016103269493929190611788565b600060405180830381600087803b15801561034057600080fd5b505af1158015610354573d6000803e3d6000fd5b5050505061037c604051806060016040528060288152602001611c086028913933858561093b565b505050565b606060008054906101000a900473ffffffffffffffffffffffffffffffffffffffff1673ffffffffffffffffffffffffffffffffffffffff163373ffffffffffffffffffffffffffffffffffffffff1614610411576040517f08c379a00000000000000000000000000000000000000000000000000000000081526004016104089061172d565b60405180910390fd5b6104506040518060400160405280601e81526020017f636865636b20616e737765727320666f72207175657374696f6e3a2025730000815250836109dd565b600260009054906101000a900473ffffffffffffffffffffffffffffffffffffffff1673ffffffffffffffffffffffffffffffffffffffff166394b99f20836040518263ffffffff1660e01b81526004016104ab919061176d565b60006040518083038186803b1580156104c357600080fd5b505afa1580156104d7573d6000803e3d6000fd5b505050506040513d6000823e3d601f19601f8201168201806040525081019061050091906110a3565b9050919050565b6060600260009054906101000a900473ffffffffffffffffffffffffffffffffffffffff1673ffffffffffffffffffffffffffffffffffffffff166356fe5bb06040518163ffffffff1660e01b815260040160006040518083038186803b15801561057157600080fd5b505afa158015610585573d6000803e3d6000fd5b505050506040513d6000823e3d601f19601f820116820180604052508101906105ae91906110e4565b905090565b600360009054906101000a900473ffffffffffffffffffffffffffffffffffffffff1681565b60008054906101000a900473ffffffffffffffffffffffffffffffffffffffff1681565b60008054906101000a900473ffffffffffffffffffffffffffffffffffffffff1673ffffffffffffffffffffffffffffffffffffffff163373ffffffffffffffffffffffffffffffffffffffff161461068b576040517f08c379a00000000000000000000000000000000000000000000000000000000081526004016106829061174d565b60405180910390fd5b6106ca6040518060400160405280601681526020017f70726f63657373696e67205175657374696f6e20257300000000000000000000815250856109dd565b600260009054906101000a900473ffffffffffffffffffffffffffffffffffffffff1673ffffffffffffffffffffffffffffffffffffffff1663c09f32e8856040518263ffffffff1660e01b8152600401610725919061176d565b600060405180830381600087803b15801561073f57600080fd5b505af1158015610753573d6000803e3d6000fd5b5050505050505050565b60008054906101000a900473ffffffffffffffffffffffffffffffffffffffff1673ffffffffffffffffffffffffffffffffffffffff163373ffffffffffffffffffffffffffffffffffffffff16146107eb576040517f08c379a00000000000000000000000000000000000000000000000000000000081526004016107e29061170d565b60405180910390fd5b61084a6040518060400160405280600a81526020017f5f6f776e65723a2025730000000000000000000000000000000000000000000081525060008054906101000a900473ffffffffffffffffffffffffffffffffffffffff16610a79565b6108896040518060400160405280600e81526020017f6d73672e73656e6465723a20257300000000000000000000000000000000000081525033610a79565b6108ab604051806060016040528060278152602001611c306027913982610b15565b600260009054906101000a900473ffffffffffffffffffffffffffffffffffffffff1673ffffffffffffffffffffffffffffffffffffffff1663c9616bde826040518263ffffffff1660e01b81526004016109069190611601565b600060405180830381600087803b15801561092057600080fd5b505af1158015610934573d6000803e3d6000fd5b5050505050565b6109d7848484846040516024016109559493929190611653565b6040516020818303038152906040527f4c55f234000000000000000000000000000000000000000000000000000000007bffffffffffffffffffffffffffffffffffffffffffffffffffffffff19166020820180517bffffffffffffffffffffffffffffffffffffffffffffffffffffffff8381831617835250505050610bb1565b50505050565b610a7582826040516024016109f39291906116dd565b6040516020818303038152906040527f9710a9d0000000000000000000000000000000000000000000000000000000007bffffffffffffffffffffffffffffffffffffffffffffffffffffffff19166020820180517bffffffffffffffffffffffffffffffffffffffffffffffffffffffff8381831617835250505050610bb1565b5050565b610b118282604051602401610a8f929190611623565b6040516020818303038152906040527f319af333000000000000000000000000000000000000000000000000000000007bffffffffffffffffffffffffffffffffffffffffffffffffffffffff19166020820180517bffffffffffffffffffffffffffffffffffffffffffffffffffffffff8381831617835250505050610bb1565b5050565b610bad8282604051602401610b2b9291906116a6565b6040516020818303038152906040527f4b5c4277000000000000000000000000000000000000000000000000000000007bffffffffffffffffffffffffffffffffffffffffffffffffffffffff19166020820180517bffffffffffffffffffffffffffffffffffffffffffffffffffffffff8381831617835250505050610bb1565b5050565b60008151905060006a636f6e736f6c652e6c6f679050602083016000808483855afa5050505050565b6000610bed610be8846117f9565b6117d4565b90508083825260208201905082856020860282011115610c0c57600080fd5b60005b85811015610c3c5781610c228882610e3a565b845260208401935060208301925050600181019050610c0f565b5050509392505050565b6000610c59610c5484611825565b6117d4565b90508083825260208201905082856020860282011115610c7857600080fd5b60005b85811015610cc257815167ffffffffffffffff811115610c9a57600080fd5b808601610ca78982610f75565b85526020850194506020840193505050600181019050610c7b565b5050509392505050565b6000610cdf610cda84611851565b6117d4565b90508083825260208201905082856020860282011115610cfe57600080fd5b60005b85811015610d4857815167ffffffffffffffff811115610d2057600080fd5b808601610d2d8982610fed565b85526020850194506020840193505050600181019050610d01565b5050509392505050565b6000610d65610d608461187d565b6117d4565b90508083825260208201905082856020860282011115610d8457600080fd5b60005b85811015610db45781610d9a8882611079565b845260208401935060208301925050600181019050610d87565b5050509392505050565b6000610dd1610dcc846118a9565b6117d4565b905082815260208101848484011115610de957600080fd5b610df48482856119c1565b509392505050565b6000610e0f610e0a846118a9565b6117d4565b905082815260208101848484011115610e2757600080fd5b610e328482856119d0565b509392505050565b600081359050610e4981611bc2565b92915050565b600081519050610e5e81611bc2565b92915050565b600082601f830112610e7557600080fd5b8135610e85848260208601610bda565b91505092915050565b600082601f830112610e9f57600080fd5b8151610eaf848260208601610c46565b91505092915050565b600082601f830112610ec957600080fd5b8151610ed9848260208601610ccc565b91505092915050565b600082601f830112610ef357600080fd5b8135610f03848260208601610d52565b91505092915050565b600081519050610f1b81611bd9565b92915050565b600082601f830112610f3257600080fd5b8135610f42848260208601610dbe565b91505092915050565b600082601f830112610f5c57600080fd5b8151610f6c848260208601610dfc565b91505092915050565b600060608284031215610f8757600080fd5b610f9160606117d4565b90506000610fa184828501610e4f565b6000830152506020610fb58482850161108e565b602083015250604082015167ffffffffffffffff811115610fd557600080fd5b610fe184828501610f4b565b60408301525092915050565b600060808284031215610fff57600080fd5b61100960806117d4565b905060006110198482850161108e565b600083015250602061102d84828501610f0c565b602083015250604082015167ffffffffffffffff81111561104d57600080fd5b61105984828501610f4b565b604083015250606061106d8482850161108e565b60608301525092915050565b60008135905061108881611bf0565b92915050565b60008151905061109d81611bf0565b92915050565b6000602082840312156110b557600080fd5b600082015167ffffffffffffffff8111156110cf57600080fd5b6110db84828501610e8e565b91505092915050565b6000602082840312156110f657600080fd5b600082015167ffffffffffffffff81111561111057600080fd5b61111c84828501610eb8565b91505092915050565b60006020828403121561113757600080fd5b600082013567ffffffffffffffff81111561115157600080fd5b61115d84828501610f21565b91505092915050565b60006020828403121561117857600080fd5b600061118684828501611079565b91505092915050565b6000602082840312156111a157600080fd5b60006111af8482850161108e565b91505092915050565b600080600080608085870312156111ce57600080fd5b60006111dc87828801611079565b945050602085013567ffffffffffffffff8111156111f957600080fd5b61120587828801610e64565b935050604085013567ffffffffffffffff81111561122257600080fd5b61122e87828801610ee2565b925050606085013567ffffffffffffffff81111561124b57600080fd5b61125787828801610ee2565b91505092959194509250565b6000806040838503121561127657600080fd5b600061128485828601611079565b925050602083013567ffffffffffffffff8111156112a157600080fd5b6112ad85828601610f21565b9150509250929050565b60006112c383836114d1565b905092915050565b60006112d78383611521565b905092915050565b6112e881611979565b82525050565b6112f781611979565b82525050565b6000611308826118fa565b6113128185611935565b935083602082028501611324856118da565b8060005b85811015611360578484038952815161134185826112b7565b945061134c8361191b565b925060208a01995050600181019050611328565b50829750879550505050505092915050565b600061137d82611905565b6113878185611946565b935083602082028501611399856118ea565b8060005b858110156113d557848403895281516113b685826112cb565b94506113c183611928565b925060208a0199505060018101905061139d565b50829750879550505050505092915050565b6113f08161198b565b82525050565b600061140182611910565b61140b8185611957565b935061141b8185602086016119d0565b61142481611ac4565b840191505092915050565b600061143a82611910565b6114448185611968565b93506114548185602086016119d0565b61145d81611ac4565b840191505092915050565b6000611475602b83611968565b915061148082611ad5565b604082019050919050565b6000611498602e83611968565b91506114a382611b24565b604082019050919050565b60006114bb602b83611968565b91506114c682611b73565b604082019050919050565b60006060830160008301516114e960008601826112df565b5060208301516114fc6020860182611584565b506040830151848203604086015261151482826113f6565b9150508091505092915050565b60006080830160008301516115396000860182611584565b50602083015161154c60208601826113e7565b506040830151848203604086015261156482826113f6565b91505060608301516115796060860182611584565b508091505092915050565b61158d816119b7565b82525050565b61159c816119b7565b82525050565b60006020820190506115b760008301846112ee565b92915050565b600060208201905081810360008301526115d781846112fd565b905092915050565b600060208201905081810360008301526115f98184611372565b905092915050565b6000602082019050818103600083015261161b818461142f565b905092915050565b6000604082019050818103600083015261163d818561142f565b905061164c60208301846112ee565b9392505050565b6000608082019050818103600083015261166d818761142f565b905061167c60208301866112ee565b6116896040830185611593565b818103606083015261169b818461142f565b905095945050505050565b600060408201905081810360008301526116c0818561142f565b905081810360208301526116d4818461142f565b90509392505050565b600060408201905081810360008301526116f7818561142f565b90506117066020830184611593565b9392505050565b6000602082019050818103600083015261172681611468565b9050919050565b600060208201905081810360008301526117468161148b565b9050919050565b60006020820190508181036000830152611766816114ae565b9050919050565b60006020820190506117826000830184611593565b92915050565b600060808201905061179d6000830187611593565b6117aa60208301866112ee565b6117b76040830185611593565b81810360608301526117c9818461142f565b905095945050505050565b60006117de6117ef565b90506117ea8282611a35565b919050565b6000604051905090565b600067ffffffffffffffff82111561181457611813611a95565b5b602082029050602081019050919050565b600067ffffffffffffffff8211156118405761183f611a95565b5b602082029050602081019050919050565b600067ffffffffffffffff82111561186c5761186b611a95565b5b602082029050602081019050919050565b600067ffffffffffffffff82111561189857611897611a95565b5b602082029050602081019050919050565b600067ffffffffffffffff8211156118c4576118c3611a95565b5b6118cd82611ac4565b9050602081019050919050565b6000819050602082019050919050565b6000819050602082019050919050565b600081519050919050565b600081519050919050565b600081519050919050565b6000602082019050919050565b6000602082019050919050565b600082825260208201905092915050565b600082825260208201905092915050565b600082825260208201905092915050565b600082825260208201905092915050565b600061198482611997565b9050919050565b60008115159050919050565b600073ffffffffffffffffffffffffffffffffffffffff82169050919050565b6000819050919050565b82818337600083830152505050565b60005b838110156119ee5780820151818401526020810190506119d3565b838111156119fd576000848401525b50505050565b60006002820490506001821680611a1b57607f821691505b60208210811415611a2f57611a2e611a66565b5b50919050565b611a3e82611ac4565b810181811067ffffffffffffffff82111715611a5d57611a5c611a95565b5b80604052505050565b7f4e487b7100000000000000000000000000000000000000000000000000000000600052602260045260246000fd5b7f4e487b7100000000000000000000000000000000000000000000000000000000600052604160045260246000fd5b6000601f19601f8301169050919050565b7f4f6e6c79207468652061646d696e6973747261746f722063616e20637265617460008201527f65207175657374696f6e73000000000000000000000000000000000000000000602082015250565b7f4f6e6c79207468652061646d696e6973747261746f722063616e20726571756560008201527f7374207375626d697373696f6e73000000000000000000000000000000000000602082015250565b7f4f6e6c79207468652061646d696e6973747261746f722063616e20616c6c6f6360008201527f6174652072657761726473000000000000000000000000000000000000000000602082015250565b611bcb81611979565b8114611bd657600080fd5b50565b611be28161198b565b8114611bed57600080fd5b50565b611bf9816119b7565b8114611c0457600080fd5b5056fe557365723a2025732c205175657374696f6e49443a2025732c205375626d697373696f6e3a202573696e697469616c6973696e67207175657374696f6e2077697468207374696d756c75733a202573a2646970667358221220ade301b229bd1c1bdfe27b7b9b6b086803c8889a340a5a702a8a5c05e9ed451564736f6c63430008040033608060405234801561001057600080fd5b50610275806100206000396000f3fe608060405234801561001057600080fd5b50600436106100365760003560e01c8063db89c0441461003b578063f5c91a081461006b575b600080fd5b61005560048036038101906100509190610146565b610087565b60405161006291906101ba565b60405180910390f35b6100856004803603810190610080919061016f565b6100d2565b005b60008060008373ffffffffffffffffffffffffffffffffffffffff1673ffffffffffffffffffffffffffffffffffffffff168152602001908152602001600020600001549050919050565b806000808473ffffffffffffffffffffffffffffffffffffffff1673ffffffffffffffffffffffffffffffffffffffff168152602001908152602001600020600001819055505050565b60008135905061012b81610211565b92915050565b60008135905061014081610228565b92915050565b60006020828403121561015857600080fd5b60006101668482850161011c565b91505092915050565b6000806040838503121561018257600080fd5b60006101908582860161011c565b92505060206101a185828601610131565b9150509250929050565b6101b481610207565b82525050565b60006020820190506101cf60008301846101ab565b92915050565b60006101e0826101e7565b9050919050565b600073ffffffffffffffffffffffffffffffffffffffff82169050919050565b6000819050919050565b61021a816101d5565b811461022557600080fd5b50565b61023181610207565b811461023c57600080fd5b5056fea26469706673582212208ed5858775c73925235ecc500698c619505d00e6096135449294855d656c91ad64736f6c6343000804003360806040523480156200001157600080fd5b506200005d6040518060400160405280601981526020017f5175657374696f6e20696e7374616e63652063726561746564000000000000008152506200007360201b6200089b1760201c565b6000600281905550600060038190555062000207565b62000113816040516024016200008a919062000180565b6040516020818303038152906040527f41304fac000000000000000000000000000000000000000000000000000000007bffffffffffffffffffffffffffffffffffffffffffffffffffffffff19166020820180517bffffffffffffffffffffffffffffffffffffffffffffffffffffffff83818316178352505050506200011660201b60201c565b50565b60008151905060006a636f6e736f6c652e6c6f679050602083016000808483855afa5050505050565b60006200014c82620001a4565b620001588185620001af565b93506200016a818560208601620001c0565b6200017581620001f6565b840191505092915050565b600060208201905081810360008301526200019c81846200013f565b905092915050565b600081519050919050565b600082825260208201905092915050565b60005b83811015620001e0578082015181840152602081019050620001c3565b83811115620001f0576000848401525b50505050565b6000601f19601f8301169050919050565b61142880620002176000396000f3fe608060405234801561001057600080fd5b50600436106100575760003560e01c80633b53b63b1461005c57806356fe5bb01461007857806394b99f2014610096578063c09f32e8146100c6578063c9616bde146100e2575b600080fd5b61007660048036038101906100719190610bf9565b6100fe565b005b6100806102b0565b60405161008d9190610f4f565b60405180910390f35b6100b060048036038101906100ab9190610bd0565b6104a5565b6040516100bd9190610f2d565b60405180910390f35b6100e060048036038101906100db9190610bd0565b6106d3565b005b6100fc60048036038101906100f79190610b8f565b61071c565b005b6002548410610142576040517f08c379a000000000000000000000000000000000000000000000000000000000815260040161013990610fe3565b60405180910390fd5b60008085815260200190815260200160002060010160009054906101000a900460ff166101a4576040517f08c379a000000000000000000000000000000000000000000000000000000000815260040161019b90610fc3565b60405180910390fd5b60405180606001604052808473ffffffffffffffffffffffffffffffffffffffff1681526020018381526020018281525060016000868152602001908152602001600020600080600088815260200190815260200160002060030154815260200190815260200160002060008201518160000160006101000a81548173ffffffffffffffffffffffffffffffffffffffff021916908373ffffffffffffffffffffffffffffffffffffffff16021790555060208201518160010155604082015181600201908051906020019061027b9291906109f9565b5090505060008085815260200190815260200160002060030160008154809291906102a59061123f565b919050555050505050565b6060600060035467ffffffffffffffff8111156102f6577f4e487b7100000000000000000000000000000000000000000000000000000000600052604160045260246000fd5b60405190808252806020026020018201604052801561032f57816020015b61031c610a7f565b8152602001906001900390816103145790505b50905060005b60035481101561049d5760008082815260200190815260200160002060010160009054906101000a900460ff161561048a57600080828152602001908152602001600020604051806080016040529081600082015481526020016001820160009054906101000a900460ff161515151581526020016002820180546103b9906111dc565b80601f01602080910402602001604051908101604052809291908181526020018280546103e5906111dc565b80156104325780601f1061040757610100808354040283529160200191610432565b820191906000526020600020905b81548152906001019060200180831161041557829003601f168201915b5050505050815260200160038201548152505082828151811061047e577f4e487b7100000000000000000000000000000000000000000000000000000000600052603260045260246000fd5b60200260200101819052505b80806104959061123f565b915050610335565b508091505090565b6060600080600084815260200190815260200160002060030154905060008167ffffffffffffffff811115610503577f4e487b7100000000000000000000000000000000000000000000000000000000600052604160045260246000fd5b60405190808252806020026020018201604052801561053c57816020015b610529610aa9565b8152602001906001900390816105215790505b50905060005b828110156106c85760006001600087815260200190815260200160002060008381526020019081526020016000209050806040518060600160405290816000820160009054906101000a900473ffffffffffffffffffffffffffffffffffffffff1673ffffffffffffffffffffffffffffffffffffffff1673ffffffffffffffffffffffffffffffffffffffff168152602001600182015481526020016002820180546105ee906111dc565b80601f016020809104026020016040519081016040528092919081815260200182805461061a906111dc565b80156106675780601f1061063c57610100808354040283529160200191610667565b820191906000526020600020905b81548152906001019060200180831161064a57829003601f168201915b5050505050815250508383815181106106a9577f4e487b7100000000000000000000000000000000000000000000000000000000600052603260045260246000fd5b60200260200101819052505080806106c09061123f565b915050610542565b508092505050919050565b600080600083815260200190815260200160002060010160006101000a81548160ff02191690831515021790555060036000815480929190610714906111b2565b919050555050565b61075d6040518060400160405280600e81526020017f7175657374696f6e49443a202573000000000000000000000000000000000000815250600254610934565b60405180608001604052806002548152602001600115158152602001828152602001600081525060008060025481526020019081526020016000206000820151816000015560208201518160010160006101000a81548160ff02191690831515021790555060408201518160020190805190602001906107de9291906109f9565b50606082015181600301559050507fa5fbefdc56bf0d2d586a82a9f50784dfe29ae6d3cfe3e0491131259d4f2042ee6002548260405161081f929190611003565b60405180910390a16002600081548092919061083a9061123f565b9190505550600360008154809291906108529061123f565b91905055506108986040518060400160405280601281526020017f5175657374696f6e20636f756e743a2025730000000000000000000000000000815250600254610934565b50565b610931816040516024016108af9190610f71565b6040516020818303038152906040527f41304fac000000000000000000000000000000000000000000000000000000007bffffffffffffffffffffffffffffffffffffffffffffffffffffffff19166020820180517bffffffffffffffffffffffffffffffffffffffffffffffffffffffff83818316178352505050506109d0565b50565b6109cc828260405160240161094a929190610f93565b6040516020818303038152906040527f9710a9d0000000000000000000000000000000000000000000000000000000007bffffffffffffffffffffffffffffffffffffffffffffffffffffffff19166020820180517bffffffffffffffffffffffffffffffffffffffffffffffffffffffff83818316178352505050506109d0565b5050565b60008151905060006a636f6e736f6c652e6c6f679050602083016000808483855afa5050505050565b828054610a05906111dc565b90600052602060002090601f016020900481019282610a275760008555610a6e565b82601f10610a4057805160ff1916838001178555610a6e565b82800160010185558215610a6e579182015b82811115610a6d578251825591602001919060010190610a52565b5b509050610a7b9190610ae0565b5090565b60405180608001604052806000815260200160001515815260200160608152602001600081525090565b6040518060600160405280600073ffffffffffffffffffffffffffffffffffffffff16815260200160008152602001606081525090565b5b80821115610af9576000816000905550600101610ae1565b5090565b6000610b10610b0b84611058565b611033565b905082815260208101848484011115610b2857600080fd5b610b33848285611170565b509392505050565b600081359050610b4a816113c4565b92915050565b600082601f830112610b6157600080fd5b8135610b71848260208601610afd565b91505092915050565b600081359050610b89816113db565b92915050565b600060208284031215610ba157600080fd5b600082013567ffffffffffffffff811115610bbb57600080fd5b610bc784828501610b50565b91505092915050565b600060208284031215610be257600080fd5b6000610bf084828501610b7a565b91505092915050565b60008060008060808587031215610c0f57600080fd5b6000610c1d87828801610b7a565b9450506020610c2e87828801610b3b565b9350506040610c3f87828801610b7a565b925050606085013567ffffffffffffffff811115610c5c57600080fd5b610c6887828801610b50565b91505092959194509250565b6000610c808383610e5c565b905092915050565b6000610c948383610eac565b905092915050565b610ca581611128565b82525050565b6000610cb6826110a9565b610cc081856110e4565b935083602082028501610cd285611089565b8060005b85811015610d0e5784840389528151610cef8582610c74565b9450610cfa836110ca565b925060208a01995050600181019050610cd6565b50829750879550505050505092915050565b6000610d2b826110b4565b610d3581856110f5565b935083602082028501610d4785611099565b8060005b85811015610d835784840389528151610d648582610c88565b9450610d6f836110d7565b925060208a01995050600181019050610d4b565b50829750879550505050505092915050565b610d9e8161113a565b82525050565b6000610daf826110bf565b610db98185611106565b9350610dc981856020860161117f565b610dd281611315565b840191505092915050565b6000610de8826110bf565b610df28185611117565b9350610e0281856020860161117f565b610e0b81611315565b840191505092915050565b6000610e23602e83611117565b9150610e2e82611326565b604082019050919050565b6000610e46602d83611117565b9150610e5182611375565b604082019050919050565b6000606083016000830151610e746000860182610c9c565b506020830151610e876020860182610f0f565b5060408301518482036040860152610e9f8282610da4565b9150508091505092915050565b6000608083016000830151610ec46000860182610f0f565b506020830151610ed76020860182610d95565b5060408301518482036040860152610eef8282610da4565b9150506060830151610f046060860182610f0f565b508091505092915050565b610f1881611166565b82525050565b610f2781611166565b82525050565b60006020820190508181036000830152610f478184610cab565b905092915050565b60006020820190508181036000830152610f698184610d20565b905092915050565b60006020820190508181036000830152610f8b8184610ddd565b905092915050565b60006040820190508181036000830152610fad8185610ddd565b9050610fbc6020830184610f1e565b9392505050565b60006020820190508181036000830152610fdc81610e16565b9050919050565b60006020820190508181036000830152610ffc81610e39565b9050919050565b60006040820190506110186000830185610f1e565b818103602083015261102a8184610ddd565b90509392505050565b600061103d61104e565b9050611049828261120e565b919050565b6000604051905090565b600067ffffffffffffffff821115611073576110726112e6565b5b61107c82611315565b9050602081019050919050565b6000819050602082019050919050565b6000819050602082019050919050565b600081519050919050565b600081519050919050565b600081519050919050565b6000602082019050919050565b6000602082019050919050565b600082825260208201905092915050565b600082825260208201905092915050565b600082825260208201905092915050565b600082825260208201905092915050565b600061113382611146565b9050919050565b60008115159050919050565b600073ffffffffffffffffffffffffffffffffffffffff82169050919050565b6000819050919050565b82818337600083830152505050565b60005b8381101561119d578082015181840152602081019050611182565b838111156111ac576000848401525b50505050565b60006111bd82611166565b915060008214156111d1576111d0611288565b5b600182039050919050565b600060028204905060018216806111f457607f821691505b60208210811415611208576112076112b7565b5b50919050565b61121782611315565b810181811067ffffffffffffffff82111715611236576112356112e6565b5b80604052505050565b600061124a82611166565b91507fffffffffffffffffffffffffffffffffffffffffffffffffffffffffffffffff82141561127d5761127c611288565b5b600182019050919050565b7f4e487b7100000000000000000000000000000000000000000000000000000000600052601160045260246000fd5b7f4e487b7100000000000000000000000000000000000000000000000000000000600052602260045260246000fd5b7f4e487b7100000000000000000000000000000000000000000000000000000000600052604160045260246000fd5b6000601f19601f8301169050919050565b7f496e76616c6964207175657374696f6e204944202d207175657374696f6e206860008201527f6173206265656e20636c6f736564000000000000000000000000000000000000602082015250565b7f496e76616c6964207175657374696f6e204944202d207175657374696f6e206460008201527f6f6573206e6f7420657869737400000000000000000000000000000000000000602082015250565b6113cd81611128565b81146113d857600080fd5b50565b6113e481611166565b81146113ef57600080fd5b5056fea2646970667358221220a985357c7ab9bd596d3108be7741e862175cb78a7f328f21e3b957ccf6bc111664736f6c63430008040033",
  "linkReferences": {},
  "deployedLinkReferences": {}
}