{
  "_format": "hh-sol-artifact-1",
  "contractName": "TruthDisco",
  "sourceName": "contracts/TruthDisco.sol",
  "abi": [
    {
      "inputs": [
        {
          "internalType": "address",
          "name": "tokenAddress",
          "type": "address"
        }
      ],
      "stateMutability": "nonpayable",
      "type": "constructor"
    },
    {
      "inputs": [],
      "name": "_owner",
      "outputs": [
        {
          "internalType": "address",
          "name": "",
          "type": "address"
        }
      ],
      "stateMutability": "view",
      "type": "function"
    },
    {
      "inputs": [],
      "name": "_tokenAddr",
      "outputs": [
        {
          "internalType": "address",
          "name": "",
          "type": "address"
        }
      ],
      "stateMutability": "view",
      "type": "function"
    },
    {
      "inputs": [
        {
          "internalType": "uint256",
          "name": "qId",
          "type": "uint256"
        }
      ],
      "name": "checkAnswers",
      "outputs": [
        {
          "components": [
            {
              "internalType": "address",
              "name": "submittedBy",
              "type": "address"
            },
            {
              "internalType": "string",
              "name": "submission",
              "type": "string"
            }
          ],
          "internalType": "struct Questions.Answer[]",
          "name": "",
          "type": "tuple[]"
        }
      ],
      "stateMutability": "view",
      "type": "function"
    },
    {
      "inputs": [
        {
          "internalType": "uint256",
          "name": "qId",
          "type": "uint256"
        }
      ],
      "name": "closeQuestion",
      "outputs": [],
      "stateMutability": "nonpayable",
      "type": "function"
    },
    {
      "inputs": [
        {
          "internalType": "string",
          "name": "stimulus",
          "type": "string"
        }
      ],
      "name": "initQuestion",
      "outputs": [],
      "stateMutability": "nonpayable",
      "type": "function"
    },
    {
      "inputs": [
        {
          "internalType": "uint256",
          "name": "qId",
          "type": "uint256"
        },
        {
          "internalType": "string",
          "name": "sub",
          "type": "string"
        }
      ],
      "name": "submitAnswer",
      "outputs": [],
      "stateMutability": "nonpayable",
      "type": "function"
    }
  ],
  "bytecode": "0x60806040523480156200001157600080fd5b50604051620027dc380380620027dc8339818101604052810190620000379190620001ca565b336000806101000a81548173ffffffffffffffffffffffffffffffffffffffff021916908373ffffffffffffffffffffffffffffffffffffffff160217905550604051620000859062000197565b604051809103906000f080158015620000a2573d6000803e3d6000fd5b50600160006101000a81548173ffffffffffffffffffffffffffffffffffffffff021916908373ffffffffffffffffffffffffffffffffffffffff160217905550604051620000f190620001a5565b604051809103906000f0801580156200010e573d6000803e3d6000fd5b50600260006101000a81548173ffffffffffffffffffffffffffffffffffffffff021916908373ffffffffffffffffffffffffffffffffffffffff16021790555080600360006101000a81548173ffffffffffffffffffffffffffffffffffffffff021916908373ffffffffffffffffffffffffffffffffffffffff1602179055505062000244565b6102e780620014d383390190565b61102280620017ba83390190565b600081519050620001c4816200022a565b92915050565b600060208284031215620001dd57600080fd5b6000620001ed84828501620001b3565b91505092915050565b600062000203826200020a565b9050919050565b600073ffffffffffffffffffffffffffffffffffffffff82169050919050565b6200023581620001f6565b81146200024157600080fd5b50565b61127f80620002546000396000f3fe608060405234801561001057600080fd5b50600436106100625760003560e01c806301fa3bec146100675780639ab804e414610083578063a5a65c10146100a1578063b2bdfa7b146100d1578063c09f32e8146100ef578063c9616bde1461010b575b600080fd5b610081600480360381019061007c9190610b76565b610127565b005b61008b6101e0565b6040516100989190610d75565b60405180910390f35b6100bb60048036038101906100b69190610b4d565b610206565b6040516100c89190610d90565b60405180910390f35b6100d96102bf565b6040516100e69190610d75565b60405180910390f35b61010960048036038101906101049190610b4d565b6102e3565b005b61012560048036038101906101209190610b0c565b610440565b005b600260009054906101000a900473ffffffffffffffffffffffffffffffffffffffff1673ffffffffffffffffffffffffffffffffffffffff1663ba3995f58333846040518463ffffffff1660e01b815260040161018693929190610f19565b600060405180830381600087803b1580156101a057600080fd5b505af11580156101b4573d6000803e3d6000fd5b505050506101dc6040518060600160405280602881526020016111fb6028913933848461061e565b5050565b600360009054906101000a900473ffffffffffffffffffffffffffffffffffffffff1681565b6060600260009054906101000a900473ffffffffffffffffffffffffffffffffffffffff1673ffffffffffffffffffffffffffffffffffffffff166394b99f20836040518263ffffffff1660e01b81526004016102639190610efe565b60006040518083038186803b15801561027b57600080fd5b505afa15801561028f573d6000803e3d6000fd5b505050506040513d6000823e3d601f19601f820116820180604052508101906102b89190610acb565b9050919050565b60008054906101000a900473ffffffffffffffffffffffffffffffffffffffff1681565b60008054906101000a900473ffffffffffffffffffffffffffffffffffffffff1673ffffffffffffffffffffffffffffffffffffffff163373ffffffffffffffffffffffffffffffffffffffff1614610371576040517f08c379a000000000000000000000000000000000000000000000000000000000815260040161036890610ebe565b60405180910390fd5b600260009054906101000a900473ffffffffffffffffffffffffffffffffffffffff1673ffffffffffffffffffffffffffffffffffffffff1663c09f32e8826040518263ffffffff1660e01b81526004016103cc9190610efe565b600060405180830381600087803b1580156103e657600080fd5b505af11580156103fa573d6000803e3d6000fd5b5050505061043d6040518060400160405280601481526020017f436c6f73696e67207175657374696f6e3a202573000000000000000000000000815250826106c0565b50565b60008054906101000a900473ffffffffffffffffffffffffffffffffffffffff1673ffffffffffffffffffffffffffffffffffffffff163373ffffffffffffffffffffffffffffffffffffffff16146104ce576040517f08c379a00000000000000000000000000000000000000000000000000000000081526004016104c590610ede565b60405180910390fd5b61052d6040518060400160405280600a81526020017f5f6f776e65723a2025730000000000000000000000000000000000000000000081525060008054906101000a900473ffffffffffffffffffffffffffffffffffffffff1661075c565b61056c6040518060400160405280600e81526020017f6d73672e73656e6465723a2025730000000000000000000000000000000000008152503361075c565b61058e60405180606001604052806027815260200161122360279139826107f8565b600260009054906101000a900473ffffffffffffffffffffffffffffffffffffffff1673ffffffffffffffffffffffffffffffffffffffff1663c9616bde826040518263ffffffff1660e01b81526004016105e99190610db2565b600060405180830381600087803b15801561060357600080fd5b505af1158015610617573d6000803e3d6000fd5b5050505050565b6106ba848484846040516024016106389493929190610e04565b6040516020818303038152906040527f4c55f234000000000000000000000000000000000000000000000000000000007bffffffffffffffffffffffffffffffffffffffffffffffffffffffff19166020820180517bffffffffffffffffffffffffffffffffffffffffffffffffffffffff8381831617835250505050610894565b50505050565b61075882826040516024016106d6929190610e8e565b6040516020818303038152906040527f9710a9d0000000000000000000000000000000000000000000000000000000007bffffffffffffffffffffffffffffffffffffffffffffffffffffffff19166020820180517bffffffffffffffffffffffffffffffffffffffffffffffffffffffff8381831617835250505050610894565b5050565b6107f48282604051602401610772929190610dd4565b6040516020818303038152906040527f319af333000000000000000000000000000000000000000000000000000000007bffffffffffffffffffffffffffffffffffffffffffffffffffffffff19166020820180517bffffffffffffffffffffffffffffffffffffffffffffffffffffffff8381831617835250505050610894565b5050565b610890828260405160240161080e929190610e57565b6040516020818303038152906040527f4b5c4277000000000000000000000000000000000000000000000000000000007bffffffffffffffffffffffffffffffffffffffffffffffffffffffff19166020820180517bffffffffffffffffffffffffffffffffffffffffffffffffffffffff8381831617835250505050610894565b5050565b60008151905060006a636f6e736f6c652e6c6f679050602083016000808483855afa5050505050565b60006108d06108cb84610f7c565b610f57565b905080838252602082019050828560208602820111156108ef57600080fd5b60005b8581101561093957815167ffffffffffffffff81111561091157600080fd5b80860161091e8982610a52565b855260208501945060208401935050506001810190506108f2565b5050509392505050565b600061095661095184610fa8565b610f57565b90508281526020810184848401111561096e57600080fd5b61097984828561107b565b509392505050565b600061099461098f84610fa8565b610f57565b9050828152602081018484840111156109ac57600080fd5b6109b784828561108a565b509392505050565b6000815190506109ce816111cc565b92915050565b600082601f8301126109e557600080fd5b81516109f58482602086016108bd565b91505092915050565b600082601f830112610a0f57600080fd5b8135610a1f848260208601610943565b91505092915050565b600082601f830112610a3957600080fd5b8151610a49848260208601610981565b91505092915050565b600060408284031215610a6457600080fd5b610a6e6040610f57565b90506000610a7e848285016109bf565b600083015250602082015167ffffffffffffffff811115610a9e57600080fd5b610aaa84828501610a28565b60208301525092915050565b600081359050610ac5816111e3565b92915050565b600060208284031215610add57600080fd5b600082015167ffffffffffffffff811115610af757600080fd5b610b03848285016109d4565b91505092915050565b600060208284031215610b1e57600080fd5b600082013567ffffffffffffffff811115610b3857600080fd5b610b44848285016109fe565b91505092915050565b600060208284031215610b5f57600080fd5b6000610b6d84828501610ab6565b91505092915050565b60008060408385031215610b8957600080fd5b6000610b9785828601610ab6565b925050602083013567ffffffffffffffff811115610bb457600080fd5b610bc0858286016109fe565b9150509250929050565b6000610bd68383610d29565b905092915050565b610be78161103f565b82525050565b610bf68161103f565b82525050565b6000610c0782610fe9565b610c11818561100c565b935083602082028501610c2385610fd9565b8060005b85811015610c5f5784840389528151610c408582610bca565b9450610c4b83610fff565b925060208a01995050600181019050610c27565b50829750879550505050505092915050565b6000610c7c82610ff4565b610c86818561101d565b9350610c9681856020860161108a565b610c9f8161111d565b840191505092915050565b6000610cb582610ff4565b610cbf818561102e565b9350610ccf81856020860161108a565b610cd88161111d565b840191505092915050565b6000610cf0602a8361102e565b9150610cfb8261112e565b604082019050919050565b6000610d13602b8361102e565b9150610d1e8261117d565b604082019050919050565b6000604083016000830151610d416000860182610bde565b5060208301518482036020860152610d598282610c71565b9150508091505092915050565b610d6f81611071565b82525050565b6000602082019050610d8a6000830184610bed565b92915050565b60006020820190508181036000830152610daa8184610bfc565b905092915050565b60006020820190508181036000830152610dcc8184610caa565b905092915050565b60006040820190508181036000830152610dee8185610caa565b9050610dfd6020830184610bed565b9392505050565b60006080820190508181036000830152610e1e8187610caa565b9050610e2d6020830186610bed565b610e3a6040830185610d66565b8181036060830152610e4c8184610caa565b905095945050505050565b60006040820190508181036000830152610e718185610caa565b90508181036020830152610e858184610caa565b90509392505050565b60006040820190508181036000830152610ea88185610caa565b9050610eb76020830184610d66565b9392505050565b60006020820190508181036000830152610ed781610ce3565b9050919050565b60006020820190508181036000830152610ef781610d06565b9050919050565b6000602082019050610f136000830184610d66565b92915050565b6000606082019050610f2e6000830186610d66565b610f3b6020830185610bed565b8181036040830152610f4d8184610caa565b9050949350505050565b6000610f61610f72565b9050610f6d82826110bd565b919050565b6000604051905090565b600067ffffffffffffffff821115610f9757610f966110ee565b5b602082029050602081019050919050565b600067ffffffffffffffff821115610fc357610fc26110ee565b5b610fcc8261111d565b9050602081019050919050565b6000819050602082019050919050565b600081519050919050565b600081519050919050565b6000602082019050919050565b600082825260208201905092915050565b600082825260208201905092915050565b600082825260208201905092915050565b600061104a82611051565b9050919050565b600073ffffffffffffffffffffffffffffffffffffffff82169050919050565b6000819050919050565b82818337600083830152505050565b60005b838110156110a857808201518184015260208101905061108d565b838111156110b7576000848401525b50505050565b6110c68261111d565b810181811067ffffffffffffffff821117156110e5576110e46110ee565b5b80604052505050565b7f4e487b7100000000000000000000000000000000000000000000000000000000600052604160045260246000fd5b6000601f19601f8301169050919050565b7f4f6e6c79207468652061646d696e6973747261746f722063616e20636c6f736560008201527f207175657374696f6e7300000000000000000000000000000000000000000000602082015250565b7f4f6e6c79207468652061646d696e6973747261746f722063616e20637265617460008201527f65207175657374696f6e73000000000000000000000000000000000000000000602082015250565b6111d58161103f565b81146111e057600080fd5b50565b6111ec81611071565b81146111f757600080fd5b5056fe557365723a2025732c205175657374696f6e49443a2025732c205375626d697373696f6e3a202573696e697469616c6973696e67207175657374696f6e2077697468207374696d756c75733a202573a2646970667358221220045876cbd9790cc19f36f02ef55331ffda7b7419a8cc4d62f4bc99993264b17164736f6c63430008040033608060405234801561001057600080fd5b506102c7806100206000396000f3fe608060405234801561001057600080fd5b50600436106100365760003560e01c80636a08b5111461003b578063db89c0441461006b575b600080fd5b6100556004803603810190610050919061018b565b61009b565b60405161006291906101e5565b60405180910390f35b61008560048036038101906100809190610162565b6100ed565b6040516100929190610200565b60405180910390f35b6000816000808573ffffffffffffffffffffffffffffffffffffffff1673ffffffffffffffffffffffffffffffffffffffff168152602001908152602001600020600001819055506001905092915050565b60008060008373ffffffffffffffffffffffffffffffffffffffff1673ffffffffffffffffffffffffffffffffffffffff168152602001908152602001600020600001549050919050565b60008135905061014781610263565b92915050565b60008135905061015c8161027a565b92915050565b60006020828403121561017457600080fd5b600061018284828501610138565b91505092915050565b6000806040838503121561019e57600080fd5b60006101ac85828601610138565b92505060206101bd8582860161014d565b9150509250929050565b6101d08161022d565b82525050565b6101df81610239565b82525050565b60006020820190506101fa60008301846101c7565b92915050565b600060208201905061021560008301846101d6565b92915050565b600061022682610243565b9050919050565b60008115159050919050565b6000819050919050565b600073ffffffffffffffffffffffffffffffffffffffff82169050919050565b61026c8161021b565b811461027757600080fd5b50565b61028381610239565b811461028e57600080fd5b5056fea264697066735822122014ce3eaadf3bbd67cbfe06f28a2cea8812e00886200420ccb317ab62f86757cd64736f6c63430008040033608060405234801561001057600080fd5b50611002806100206000396000f3fe608060405234801561001057600080fd5b506004361061004c5760003560e01c806394b99f2014610051578063ba3995f514610081578063c09f32e81461009d578063c9616bde146100b9575b600080fd5b61006b6004803603810190610066919061096c565b6100d5565b6040516100789190610b98565b60405180910390f35b61009b60048036038101906100969190610995565b6102f9565b005b6100b760048036038101906100b2919061096c565b61049a565b005b6100d360048036038101906100ce919061092b565b6104d3565b005b6060600080600084815260200190815260200160002060020154905060008167ffffffffffffffff811115610133577f4e487b7100000000000000000000000000000000000000000000000000000000600052604160045260246000fd5b60405190808252806020026020018201604052801561016c57816020015b6101596107c6565b8152602001906001900390816101515790505b50905060005b828110156102ee5760006002600087815260200190815260200160002060008381526020019081526020016000209050806040518060400160405290816000820160009054906101000a900473ffffffffffffffffffffffffffffffffffffffff1673ffffffffffffffffffffffffffffffffffffffff1673ffffffffffffffffffffffffffffffffffffffff16815260200160018201805461021490610db6565b80601f016020809104026020016040519081016040528092919081815260200182805461024090610db6565b801561028d5780601f106102625761010080835404028352916020019161028d565b820191906000526020600020905b81548152906001019060200180831161027057829003601f168201915b5050505050815250508383815181106102cf577f4e487b7100000000000000000000000000000000000000000000000000000000600052603260045260246000fd5b60200260200101819052505080806102e690610e19565b915050610172565b508092505050919050565b600154831061033d576040517f08c379a000000000000000000000000000000000000000000000000000000000815260040161033490610c2c565b60405180910390fd5b60008084815260200190815260200160002060000160009054906101000a900460ff1661039f576040517f08c379a000000000000000000000000000000000000000000000000000000000815260040161039690610c0c565b60405180910390fd5b60405180604001604052808373ffffffffffffffffffffffffffffffffffffffff1681526020018281525060026000858152602001908152602001600020600080600087815260200190815260200160002060020154815260200190815260200160002060008201518160000160006101000a81548173ffffffffffffffffffffffffffffffffffffffff021916908373ffffffffffffffffffffffffffffffffffffffff16021790555060208201518160010190805190602001906104669291906107f6565b50905050600080848152602001908152602001600020600201600081548092919061049090610e19565b9190505550505050565b600080600083815260200190815260200160002060000160006101000a81548160ff0219169083151502179055506104d0610628565b50565b6105146040518060400160405280600e81526020017f7175657374696f6e49443a202573000000000000000000000000000000000000815250600154610668565b60405180606001604052806001151581526020018281526020016000815250600080600154815260200190815260200160002060008201518160000160006101000a81548160ff02191690831515021790555060208201518160010190805190602001906105839291906107f6565b50604082015181600201559050507fa5fbefdc56bf0d2d586a82a9f50784dfe29ae6d3cfe3e0491131259d4f2042ee600154826040516105c4929190610c4c565b60405180910390a1600160008154809291906105df90610e19565b91905055506106256040518060400160405280601281526020017f5175657374696f6e20636f756e743a2025730000000000000000000000000000815250600154610668565b50565b6106666040518060400160405280601681526020017f70726f63657373696e6720726577617264732e2e2e2e00000000000000000000815250610704565b565b610700828260405160240161067e929190610bdc565b6040516020818303038152906040527f9710a9d0000000000000000000000000000000000000000000000000000000007bffffffffffffffffffffffffffffffffffffffffffffffffffffffff19166020820180517bffffffffffffffffffffffffffffffffffffffffffffffffffffffff838183161783525050505061079d565b5050565b61079a816040516024016107189190610bba565b6040516020818303038152906040527f41304fac000000000000000000000000000000000000000000000000000000007bffffffffffffffffffffffffffffffffffffffffffffffffffffffff19166020820180517bffffffffffffffffffffffffffffffffffffffffffffffffffffffff838183161783525050505061079d565b50565b60008151905060006a636f6e736f6c652e6c6f679050602083016000808483855afa5050505050565b6040518060400160405280600073ffffffffffffffffffffffffffffffffffffffff168152602001606081525090565b82805461080290610db6565b90600052602060002090601f016020900481019282610824576000855561086b565b82601f1061083d57805160ff191683800117855561086b565b8280016001018555821561086b579182015b8281111561086a57825182559160200191906001019061084f565b5b509050610878919061087c565b5090565b5b8082111561089557600081600090555060010161087d565b5090565b60006108ac6108a784610ca1565b610c7c565b9050828152602081018484840111156108c457600080fd5b6108cf848285610d74565b509392505050565b6000813590506108e681610f9e565b92915050565b600082601f8301126108fd57600080fd5b813561090d848260208601610899565b91505092915050565b60008135905061092581610fb5565b92915050565b60006020828403121561093d57600080fd5b600082013567ffffffffffffffff81111561095757600080fd5b610963848285016108ec565b91505092915050565b60006020828403121561097e57600080fd5b600061098c84828501610916565b91505092915050565b6000806000606084860312156109aa57600080fd5b60006109b886828701610916565b93505060206109c9868287016108d7565b925050604084013567ffffffffffffffff8111156109e657600080fd5b6109f2868287016108ec565b9150509250925092565b6000610a088383610b4c565b905092915050565b610a1981610d38565b82525050565b6000610a2a82610ce2565b610a348185610d05565b935083602082028501610a4685610cd2565b8060005b85811015610a825784840389528151610a6385826109fc565b9450610a6e83610cf8565b925060208a01995050600181019050610a4a565b50829750879550505050505092915050565b6000610a9f82610ced565b610aa98185610d16565b9350610ab9818560208601610d83565b610ac281610eef565b840191505092915050565b6000610ad882610ced565b610ae28185610d27565b9350610af2818560208601610d83565b610afb81610eef565b840191505092915050565b6000610b13602e83610d27565b9150610b1e82610f00565b604082019050919050565b6000610b36602d83610d27565b9150610b4182610f4f565b604082019050919050565b6000604083016000830151610b646000860182610a10565b5060208301518482036020860152610b7c8282610a94565b9150508091505092915050565b610b9281610d6a565b82525050565b60006020820190508181036000830152610bb28184610a1f565b905092915050565b60006020820190508181036000830152610bd48184610acd565b905092915050565b60006040820190508181036000830152610bf68185610acd565b9050610c056020830184610b89565b9392505050565b60006020820190508181036000830152610c2581610b06565b9050919050565b60006020820190508181036000830152610c4581610b29565b9050919050565b6000604082019050610c616000830185610b89565b8181036020830152610c738184610acd565b90509392505050565b6000610c86610c97565b9050610c928282610de8565b919050565b6000604051905090565b600067ffffffffffffffff821115610cbc57610cbb610ec0565b5b610cc582610eef565b9050602081019050919050565b6000819050602082019050919050565b600081519050919050565b600081519050919050565b6000602082019050919050565b600082825260208201905092915050565b600082825260208201905092915050565b600082825260208201905092915050565b6000610d4382610d4a565b9050919050565b600073ffffffffffffffffffffffffffffffffffffffff82169050919050565b6000819050919050565b82818337600083830152505050565b60005b83811015610da1578082015181840152602081019050610d86565b83811115610db0576000848401525b50505050565b60006002820490506001821680610dce57607f821691505b60208210811415610de257610de1610e91565b5b50919050565b610df182610eef565b810181811067ffffffffffffffff82111715610e1057610e0f610ec0565b5b80604052505050565b6000610e2482610d6a565b91507fffffffffffffffffffffffffffffffffffffffffffffffffffffffffffffffff821415610e5757610e56610e62565b5b600182019050919050565b7f4e487b7100000000000000000000000000000000000000000000000000000000600052601160045260246000fd5b7f4e487b7100000000000000000000000000000000000000000000000000000000600052602260045260246000fd5b7f4e487b7100000000000000000000000000000000000000000000000000000000600052604160045260246000fd5b6000601f19601f8301169050919050565b7f496e76616c6964207175657374696f6e204944202d207175657374696f6e206860008201527f6173206265656e20636c6f736564000000000000000000000000000000000000602082015250565b7f496e76616c6964207175657374696f6e204944202d207175657374696f6e206460008201527f6f6573206e6f7420657869737400000000000000000000000000000000000000602082015250565b610fa781610d38565b8114610fb257600080fd5b50565b610fbe81610d6a565b8114610fc957600080fd5b5056fea2646970667358221220aa6ee3c22d714a050bdb180bac5f4bec546992e546c65db8aef7d8b77e67cc8b64736f6c63430008040033",
  "linkReferences": {},
  "deployedLinkReferences": {}
}