{
  "_format": "hh-sol-artifact-1",
  "contractName": "TruthDisco",
  "sourceName": "contracts/TruthDisco.sol",
  "abi": [
    {
      "inputs": [
        {
          "internalType": "address",
          "name": "tokenAddress",
          "type": "address"
        }
      ],
      "stateMutability": "nonpayable",
      "type": "constructor"
    },
    {
      "inputs": [
        {
          "internalType": "uint256",
          "name": "qId",
          "type": "uint256"
        }
      ],
      "name": "checkAnswers",
      "outputs": [
        {
          "components": [
            {
              "internalType": "address",
              "name": "submittedBy",
              "type": "address"
            },
            {
              "internalType": "string",
              "name": "submission",
              "type": "string"
            }
          ],
          "internalType": "struct Questions.Answer[]",
          "name": "",
          "type": "tuple[]"
        }
      ],
      "stateMutability": "view",
      "type": "function"
    },
    {
      "inputs": [
        {
          "internalType": "uint256",
          "name": "qId",
          "type": "uint256"
        }
      ],
      "name": "closeQuestion",
      "outputs": [],
      "stateMutability": "nonpayable",
      "type": "function"
    },
    {
      "inputs": [
        {
          "internalType": "string",
          "name": "stimulus",
          "type": "string"
        }
      ],
      "name": "initQuestion",
      "outputs": [],
      "stateMutability": "nonpayable",
      "type": "function"
    },
    {
      "inputs": [
        {
          "internalType": "uint256",
          "name": "qId",
          "type": "uint256"
        },
        {
          "internalType": "string",
          "name": "sub",
          "type": "string"
        }
      ],
      "name": "submitAnswer",
      "outputs": [],
      "stateMutability": "nonpayable",
      "type": "function"
    }
  ],
  "bytecode": "0x60806040523480156200001157600080fd5b5060405162002725380380620027258339818101604052810190620000379190620001ca565b336000806101000a81548173ffffffffffffffffffffffffffffffffffffffff021916908373ffffffffffffffffffffffffffffffffffffffff160217905550604051620000859062000197565b604051809103906000f080158015620000a2573d6000803e3d6000fd5b50600160006101000a81548173ffffffffffffffffffffffffffffffffffffffff021916908373ffffffffffffffffffffffffffffffffffffffff160217905550604051620000f190620001a5565b604051809103906000f0801580156200010e573d6000803e3d6000fd5b50600260006101000a81548173ffffffffffffffffffffffffffffffffffffffff021916908373ffffffffffffffffffffffffffffffffffffffff16021790555080600360006101000a81548173ffffffffffffffffffffffffffffffffffffffff021916908373ffffffffffffffffffffffffffffffffffffffff1602179055505062000244565b6102e7806200141c83390190565b611022806200170383390190565b600081519050620001c4816200022a565b92915050565b600060208284031215620001dd57600080fd5b6000620001ed84828501620001b3565b91505092915050565b600062000203826200020a565b9050919050565b600073ffffffffffffffffffffffffffffffffffffffff82169050919050565b6200023581620001f6565b81146200024157600080fd5b50565b6111c880620002546000396000f3fe608060405234801561001057600080fd5b506004361061004c5760003560e01c806301fa3bec14610051578063a5a65c101461006d578063c09f32e81461009d578063c9616bde146100b9575b600080fd5b61006b60048036038101906100669190610ada565b6100d5565b005b61008760048036038101906100829190610ab1565b61018e565b6040516100949190610cd9565b60405180910390f35b6100b760048036038101906100b29190610ab1565b610247565b005b6100d360048036038101906100ce9190610a70565b6103a4565b005b600260009054906101000a900473ffffffffffffffffffffffffffffffffffffffff1673ffffffffffffffffffffffffffffffffffffffff1663ba3995f58333846040518463ffffffff1660e01b815260040161013493929190610e62565b600060405180830381600087803b15801561014e57600080fd5b505af1158015610162573d6000803e3d6000fd5b5050505061018a60405180606001604052806028815260200161114460289139338484610582565b5050565b6060600260009054906101000a900473ffffffffffffffffffffffffffffffffffffffff1673ffffffffffffffffffffffffffffffffffffffff166394b99f20836040518263ffffffff1660e01b81526004016101eb9190610e47565b60006040518083038186803b15801561020357600080fd5b505afa158015610217573d6000803e3d6000fd5b505050506040513d6000823e3d601f19601f820116820180604052508101906102409190610a2f565b9050919050565b60008054906101000a900473ffffffffffffffffffffffffffffffffffffffff1673ffffffffffffffffffffffffffffffffffffffff163373ffffffffffffffffffffffffffffffffffffffff16146102d5576040517f08c379a00000000000000000000000000000000000000000000000000000000081526004016102cc90610e07565b60405180910390fd5b600260009054906101000a900473ffffffffffffffffffffffffffffffffffffffff1673ffffffffffffffffffffffffffffffffffffffff1663c09f32e8826040518263ffffffff1660e01b81526004016103309190610e47565b600060405180830381600087803b15801561034a57600080fd5b505af115801561035e573d6000803e3d6000fd5b505050506103a16040518060400160405280601481526020017f436c6f73696e67207175657374696f6e3a20257300000000000000000000000081525082610624565b50565b60008054906101000a900473ffffffffffffffffffffffffffffffffffffffff1673ffffffffffffffffffffffffffffffffffffffff163373ffffffffffffffffffffffffffffffffffffffff1614610432576040517f08c379a000000000000000000000000000000000000000000000000000000000815260040161042990610e27565b60405180910390fd5b6104916040518060400160405280600a81526020017f5f6f776e65723a2025730000000000000000000000000000000000000000000081525060008054906101000a900473ffffffffffffffffffffffffffffffffffffffff166106c0565b6104d06040518060400160405280600e81526020017f6d73672e73656e6465723a202573000000000000000000000000000000000000815250336106c0565b6104f260405180606001604052806027815260200161116c602791398261075c565b600260009054906101000a900473ffffffffffffffffffffffffffffffffffffffff1673ffffffffffffffffffffffffffffffffffffffff1663c9616bde826040518263ffffffff1660e01b815260040161054d9190610cfb565b600060405180830381600087803b15801561056757600080fd5b505af115801561057b573d6000803e3d6000fd5b5050505050565b61061e8484848460405160240161059c9493929190610d4d565b6040516020818303038152906040527f4c55f234000000000000000000000000000000000000000000000000000000007bffffffffffffffffffffffffffffffffffffffffffffffffffffffff19166020820180517bffffffffffffffffffffffffffffffffffffffffffffffffffffffff83818316178352505050506107f8565b50505050565b6106bc828260405160240161063a929190610dd7565b6040516020818303038152906040527f9710a9d0000000000000000000000000000000000000000000000000000000007bffffffffffffffffffffffffffffffffffffffffffffffffffffffff19166020820180517bffffffffffffffffffffffffffffffffffffffffffffffffffffffff83818316178352505050506107f8565b5050565b61075882826040516024016106d6929190610d1d565b6040516020818303038152906040527f319af333000000000000000000000000000000000000000000000000000000007bffffffffffffffffffffffffffffffffffffffffffffffffffffffff19166020820180517bffffffffffffffffffffffffffffffffffffffffffffffffffffffff83818316178352505050506107f8565b5050565b6107f48282604051602401610772929190610da0565b6040516020818303038152906040527f4b5c4277000000000000000000000000000000000000000000000000000000007bffffffffffffffffffffffffffffffffffffffffffffffffffffffff19166020820180517bffffffffffffffffffffffffffffffffffffffffffffffffffffffff83818316178352505050506107f8565b5050565b60008151905060006a636f6e736f6c652e6c6f679050602083016000808483855afa5050505050565b600061083461082f84610ec5565b610ea0565b9050808382526020820190508285602086028201111561085357600080fd5b60005b8581101561089d57815167ffffffffffffffff81111561087557600080fd5b80860161088289826109b6565b85526020850194506020840193505050600181019050610856565b5050509392505050565b60006108ba6108b584610ef1565b610ea0565b9050828152602081018484840111156108d257600080fd5b6108dd848285610fc4565b509392505050565b60006108f86108f384610ef1565b610ea0565b90508281526020810184848401111561091057600080fd5b61091b848285610fd3565b509392505050565b60008151905061093281611115565b92915050565b600082601f83011261094957600080fd5b8151610959848260208601610821565b91505092915050565b600082601f83011261097357600080fd5b81356109838482602086016108a7565b91505092915050565b600082601f83011261099d57600080fd5b81516109ad8482602086016108e5565b91505092915050565b6000604082840312156109c857600080fd5b6109d26040610ea0565b905060006109e284828501610923565b600083015250602082015167ffffffffffffffff811115610a0257600080fd5b610a0e8482850161098c565b60208301525092915050565b600081359050610a298161112c565b92915050565b600060208284031215610a4157600080fd5b600082015167ffffffffffffffff811115610a5b57600080fd5b610a6784828501610938565b91505092915050565b600060208284031215610a8257600080fd5b600082013567ffffffffffffffff811115610a9c57600080fd5b610aa884828501610962565b91505092915050565b600060208284031215610ac357600080fd5b6000610ad184828501610a1a565b91505092915050565b60008060408385031215610aed57600080fd5b6000610afb85828601610a1a565b925050602083013567ffffffffffffffff811115610b1857600080fd5b610b2485828601610962565b9150509250929050565b6000610b3a8383610c8d565b905092915050565b610b4b81610f88565b82525050565b610b5a81610f88565b82525050565b6000610b6b82610f32565b610b758185610f55565b935083602082028501610b8785610f22565b8060005b85811015610bc35784840389528151610ba48582610b2e565b9450610baf83610f48565b925060208a01995050600181019050610b8b565b50829750879550505050505092915050565b6000610be082610f3d565b610bea8185610f66565b9350610bfa818560208601610fd3565b610c0381611066565b840191505092915050565b6000610c1982610f3d565b610c238185610f77565b9350610c33818560208601610fd3565b610c3c81611066565b840191505092915050565b6000610c54602a83610f77565b9150610c5f82611077565b604082019050919050565b6000610c77602b83610f77565b9150610c82826110c6565b604082019050919050565b6000604083016000830151610ca56000860182610b42565b5060208301518482036020860152610cbd8282610bd5565b9150508091505092915050565b610cd381610fba565b82525050565b60006020820190508181036000830152610cf38184610b60565b905092915050565b60006020820190508181036000830152610d158184610c0e565b905092915050565b60006040820190508181036000830152610d378185610c0e565b9050610d466020830184610b51565b9392505050565b60006080820190508181036000830152610d678187610c0e565b9050610d766020830186610b51565b610d836040830185610cca565b8181036060830152610d958184610c0e565b905095945050505050565b60006040820190508181036000830152610dba8185610c0e565b90508181036020830152610dce8184610c0e565b90509392505050565b60006040820190508181036000830152610df18185610c0e565b9050610e006020830184610cca565b9392505050565b60006020820190508181036000830152610e2081610c47565b9050919050565b60006020820190508181036000830152610e4081610c6a565b9050919050565b6000602082019050610e5c6000830184610cca565b92915050565b6000606082019050610e776000830186610cca565b610e846020830185610b51565b8181036040830152610e968184610c0e565b9050949350505050565b6000610eaa610ebb565b9050610eb68282611006565b919050565b6000604051905090565b600067ffffffffffffffff821115610ee057610edf611037565b5b602082029050602081019050919050565b600067ffffffffffffffff821115610f0c57610f0b611037565b5b610f1582611066565b9050602081019050919050565b6000819050602082019050919050565b600081519050919050565b600081519050919050565b6000602082019050919050565b600082825260208201905092915050565b600082825260208201905092915050565b600082825260208201905092915050565b6000610f9382610f9a565b9050919050565b600073ffffffffffffffffffffffffffffffffffffffff82169050919050565b6000819050919050565b82818337600083830152505050565b60005b83811015610ff1578082015181840152602081019050610fd6565b83811115611000576000848401525b50505050565b61100f82611066565b810181811067ffffffffffffffff8211171561102e5761102d611037565b5b80604052505050565b7f4e487b7100000000000000000000000000000000000000000000000000000000600052604160045260246000fd5b6000601f19601f8301169050919050565b7f4f6e6c79207468652061646d696e6973747261746f722063616e20636c6f736560008201527f207175657374696f6e7300000000000000000000000000000000000000000000602082015250565b7f4f6e6c79207468652061646d696e6973747261746f722063616e20637265617460008201527f65207175657374696f6e73000000000000000000000000000000000000000000602082015250565b61111e81610f88565b811461112957600080fd5b50565b61113581610fba565b811461114057600080fd5b5056fe557365723a2025732c205175657374696f6e49443a2025732c205375626d697373696f6e3a202573696e697469616c6973696e67207175657374696f6e2077697468207374696d756c75733a202573a2646970667358221220656d80b67cb7c3e66a0d0f6e88ad9dbd78311f02597c56a3a4c0db119b4cfdc864736f6c63430008040033608060405234801561001057600080fd5b506102c7806100206000396000f3fe608060405234801561001057600080fd5b50600436106100365760003560e01c80636a08b5111461003b578063db89c0441461006b575b600080fd5b6100556004803603810190610050919061018b565b61009b565b60405161006291906101e5565b60405180910390f35b61008560048036038101906100809190610162565b6100ed565b6040516100929190610200565b60405180910390f35b6000816000808573ffffffffffffffffffffffffffffffffffffffff1673ffffffffffffffffffffffffffffffffffffffff168152602001908152602001600020600001819055506001905092915050565b60008060008373ffffffffffffffffffffffffffffffffffffffff1673ffffffffffffffffffffffffffffffffffffffff168152602001908152602001600020600001549050919050565b60008135905061014781610263565b92915050565b60008135905061015c8161027a565b92915050565b60006020828403121561017457600080fd5b600061018284828501610138565b91505092915050565b6000806040838503121561019e57600080fd5b60006101ac85828601610138565b92505060206101bd8582860161014d565b9150509250929050565b6101d08161022d565b82525050565b6101df81610239565b82525050565b60006020820190506101fa60008301846101c7565b92915050565b600060208201905061021560008301846101d6565b92915050565b600061022682610243565b9050919050565b60008115159050919050565b6000819050919050565b600073ffffffffffffffffffffffffffffffffffffffff82169050919050565b61026c8161021b565b811461027757600080fd5b50565b61028381610239565b811461028e57600080fd5b5056fea264697066735822122014ce3eaadf3bbd67cbfe06f28a2cea8812e00886200420ccb317ab62f86757cd64736f6c63430008040033608060405234801561001057600080fd5b50611002806100206000396000f3fe608060405234801561001057600080fd5b506004361061004c5760003560e01c806394b99f2014610051578063ba3995f514610081578063c09f32e81461009d578063c9616bde146100b9575b600080fd5b61006b6004803603810190610066919061096c565b6100d5565b6040516100789190610b98565b60405180910390f35b61009b60048036038101906100969190610995565b6102f9565b005b6100b760048036038101906100b2919061096c565b61049a565b005b6100d360048036038101906100ce919061092b565b6104d3565b005b6060600080600084815260200190815260200160002060020154905060008167ffffffffffffffff811115610133577f4e487b7100000000000000000000000000000000000000000000000000000000600052604160045260246000fd5b60405190808252806020026020018201604052801561016c57816020015b6101596107c6565b8152602001906001900390816101515790505b50905060005b828110156102ee5760006002600087815260200190815260200160002060008381526020019081526020016000209050806040518060400160405290816000820160009054906101000a900473ffffffffffffffffffffffffffffffffffffffff1673ffffffffffffffffffffffffffffffffffffffff1673ffffffffffffffffffffffffffffffffffffffff16815260200160018201805461021490610db6565b80601f016020809104026020016040519081016040528092919081815260200182805461024090610db6565b801561028d5780601f106102625761010080835404028352916020019161028d565b820191906000526020600020905b81548152906001019060200180831161027057829003601f168201915b5050505050815250508383815181106102cf577f4e487b7100000000000000000000000000000000000000000000000000000000600052603260045260246000fd5b60200260200101819052505080806102e690610e19565b915050610172565b508092505050919050565b600154831061033d576040517f08c379a000000000000000000000000000000000000000000000000000000000815260040161033490610c2c565b60405180910390fd5b60008084815260200190815260200160002060000160009054906101000a900460ff1661039f576040517f08c379a000000000000000000000000000000000000000000000000000000000815260040161039690610c0c565b60405180910390fd5b60405180604001604052808373ffffffffffffffffffffffffffffffffffffffff1681526020018281525060026000858152602001908152602001600020600080600087815260200190815260200160002060020154815260200190815260200160002060008201518160000160006101000a81548173ffffffffffffffffffffffffffffffffffffffff021916908373ffffffffffffffffffffffffffffffffffffffff16021790555060208201518160010190805190602001906104669291906107f6565b50905050600080848152602001908152602001600020600201600081548092919061049090610e19565b9190505550505050565b600080600083815260200190815260200160002060000160006101000a81548160ff0219169083151502179055506104d0610628565b50565b6105146040518060400160405280600e81526020017f7175657374696f6e49443a202573000000000000000000000000000000000000815250600154610668565b60405180606001604052806001151581526020018281526020016000815250600080600154815260200190815260200160002060008201518160000160006101000a81548160ff02191690831515021790555060208201518160010190805190602001906105839291906107f6565b50604082015181600201559050507fa5fbefdc56bf0d2d586a82a9f50784dfe29ae6d3cfe3e0491131259d4f2042ee600154826040516105c4929190610c4c565b60405180910390a1600160008154809291906105df90610e19565b91905055506106256040518060400160405280601281526020017f5175657374696f6e20636f756e743a2025730000000000000000000000000000815250600154610668565b50565b6106666040518060400160405280601681526020017f70726f63657373696e6720726577617264732e2e2e2e00000000000000000000815250610704565b565b610700828260405160240161067e929190610bdc565b6040516020818303038152906040527f9710a9d0000000000000000000000000000000000000000000000000000000007bffffffffffffffffffffffffffffffffffffffffffffffffffffffff19166020820180517bffffffffffffffffffffffffffffffffffffffffffffffffffffffff838183161783525050505061079d565b5050565b61079a816040516024016107189190610bba565b6040516020818303038152906040527f41304fac000000000000000000000000000000000000000000000000000000007bffffffffffffffffffffffffffffffffffffffffffffffffffffffff19166020820180517bffffffffffffffffffffffffffffffffffffffffffffffffffffffff838183161783525050505061079d565b50565b60008151905060006a636f6e736f6c652e6c6f679050602083016000808483855afa5050505050565b6040518060400160405280600073ffffffffffffffffffffffffffffffffffffffff168152602001606081525090565b82805461080290610db6565b90600052602060002090601f016020900481019282610824576000855561086b565b82601f1061083d57805160ff191683800117855561086b565b8280016001018555821561086b579182015b8281111561086a57825182559160200191906001019061084f565b5b509050610878919061087c565b5090565b5b8082111561089557600081600090555060010161087d565b5090565b60006108ac6108a784610ca1565b610c7c565b9050828152602081018484840111156108c457600080fd5b6108cf848285610d74565b509392505050565b6000813590506108e681610f9e565b92915050565b600082601f8301126108fd57600080fd5b813561090d848260208601610899565b91505092915050565b60008135905061092581610fb5565b92915050565b60006020828403121561093d57600080fd5b600082013567ffffffffffffffff81111561095757600080fd5b610963848285016108ec565b91505092915050565b60006020828403121561097e57600080fd5b600061098c84828501610916565b91505092915050565b6000806000606084860312156109aa57600080fd5b60006109b886828701610916565b93505060206109c9868287016108d7565b925050604084013567ffffffffffffffff8111156109e657600080fd5b6109f2868287016108ec565b9150509250925092565b6000610a088383610b4c565b905092915050565b610a1981610d38565b82525050565b6000610a2a82610ce2565b610a348185610d05565b935083602082028501610a4685610cd2565b8060005b85811015610a825784840389528151610a6385826109fc565b9450610a6e83610cf8565b925060208a01995050600181019050610a4a565b50829750879550505050505092915050565b6000610a9f82610ced565b610aa98185610d16565b9350610ab9818560208601610d83565b610ac281610eef565b840191505092915050565b6000610ad882610ced565b610ae28185610d27565b9350610af2818560208601610d83565b610afb81610eef565b840191505092915050565b6000610b13602e83610d27565b9150610b1e82610f00565b604082019050919050565b6000610b36602d83610d27565b9150610b4182610f4f565b604082019050919050565b6000604083016000830151610b646000860182610a10565b5060208301518482036020860152610b7c8282610a94565b9150508091505092915050565b610b9281610d6a565b82525050565b60006020820190508181036000830152610bb28184610a1f565b905092915050565b60006020820190508181036000830152610bd48184610acd565b905092915050565b60006040820190508181036000830152610bf68185610acd565b9050610c056020830184610b89565b9392505050565b60006020820190508181036000830152610c2581610b06565b9050919050565b60006020820190508181036000830152610c4581610b29565b9050919050565b6000604082019050610c616000830185610b89565b8181036020830152610c738184610acd565b90509392505050565b6000610c86610c97565b9050610c928282610de8565b919050565b6000604051905090565b600067ffffffffffffffff821115610cbc57610cbb610ec0565b5b610cc582610eef565b9050602081019050919050565b6000819050602082019050919050565b600081519050919050565b600081519050919050565b6000602082019050919050565b600082825260208201905092915050565b600082825260208201905092915050565b600082825260208201905092915050565b6000610d4382610d4a565b9050919050565b600073ffffffffffffffffffffffffffffffffffffffff82169050919050565b6000819050919050565b82818337600083830152505050565b60005b83811015610da1578082015181840152602081019050610d86565b83811115610db0576000848401525b50505050565b60006002820490506001821680610dce57607f821691505b60208210811415610de257610de1610e91565b5b50919050565b610df182610eef565b810181811067ffffffffffffffff82111715610e1057610e0f610ec0565b5b80604052505050565b6000610e2482610d6a565b91507fffffffffffffffffffffffffffffffffffffffffffffffffffffffffffffffff821415610e5757610e56610e62565b5b600182019050919050565b7f4e487b7100000000000000000000000000000000000000000000000000000000600052601160045260246000fd5b7f4e487b7100000000000000000000000000000000000000000000000000000000600052602260045260246000fd5b7f4e487b7100000000000000000000000000000000000000000000000000000000600052604160045260246000fd5b6000601f19601f8301169050919050565b7f496e76616c6964207175657374696f6e204944202d207175657374696f6e206860008201527f6173206265656e20636c6f736564000000000000000000000000000000000000602082015250565b7f496e76616c6964207175657374696f6e204944202d207175657374696f6e206460008201527f6f6573206e6f7420657869737400000000000000000000000000000000000000602082015250565b610fa781610d38565b8114610fb257600080fd5b50565b610fbe81610d6a565b8114610fc957600080fd5b5056fea2646970667358221220aa6ee3c22d714a050bdb180bac5f4bec546992e546c65db8aef7d8b77e67cc8b64736f6c63430008040033",
  "linkReferences": {},
  "deployedLinkReferences": {}
}