{
  "_format": "hh-sol-artifact-1",
  "contractName": "TruthDisco",
  "sourceName": "contracts/TruthDisco.sol",
  "abi": [
    {
      "inputs": [
        {
          "internalType": "address",
          "name": "tokenAddress",
          "type": "address"
        },
        {
          "internalType": "string",
          "name": "publicKey",
          "type": "string"
        }
      ],
      "stateMutability": "nonpayable",
      "type": "constructor"
    },
    {
      "inputs": [],
      "name": "_owner",
      "outputs": [
        {
          "internalType": "address",
          "name": "",
          "type": "address"
        }
      ],
      "stateMutability": "view",
      "type": "function"
    },
    {
      "inputs": [],
      "name": "_publicKey",
      "outputs": [
        {
          "internalType": "string",
          "name": "",
          "type": "string"
        }
      ],
      "stateMutability": "view",
      "type": "function"
    },
    {
      "inputs": [],
      "name": "_tokenAddr",
      "outputs": [
        {
          "internalType": "address",
          "name": "",
          "type": "address"
        }
      ],
      "stateMutability": "view",
      "type": "function"
    },
    {
      "inputs": [
        {
          "internalType": "uint256",
          "name": "qId",
          "type": "uint256"
        }
      ],
      "name": "getQuestionSubmissions",
      "outputs": [
        {
          "components": [
            {
              "internalType": "address",
              "name": "submittedBy",
              "type": "address"
            },
            {
              "internalType": "uint256",
              "name": "reputation",
              "type": "uint256"
            },
            {
              "internalType": "string",
              "name": "submission",
              "type": "string"
            }
          ],
          "internalType": "struct Questions.Answer[]",
          "name": "",
          "type": "tuple[]"
        }
      ],
      "stateMutability": "view",
      "type": "function"
    },
    {
      "inputs": [],
      "name": "getQuestions",
      "outputs": [
        {
          "components": [
            {
              "internalType": "uint256",
              "name": "id",
              "type": "uint256"
            },
            {
              "internalType": "bool",
              "name": "active",
              "type": "bool"
            },
            {
              "internalType": "string",
              "name": "stimulus",
              "type": "string"
            },
            {
              "internalType": "uint256",
              "name": "ansCount",
              "type": "uint256"
            },
            {
              "internalType": "string",
              "name": "answer",
              "type": "string"
            }
          ],
          "internalType": "struct Questions.Question[]",
          "name": "",
          "type": "tuple[]"
        }
      ],
      "stateMutability": "view",
      "type": "function"
    },
    {
      "inputs": [
        {
          "internalType": "string",
          "name": "stimulus",
          "type": "string"
        }
      ],
      "name": "initQuestion",
      "outputs": [],
      "stateMutability": "nonpayable",
      "type": "function"
    },
    {
      "inputs": [
        {
          "internalType": "uint256",
          "name": "qId",
          "type": "uint256"
        },
        {
          "internalType": "address[]",
          "name": "users",
          "type": "address[]"
        },
        {
          "internalType": "uint256[]",
          "name": "reputations",
          "type": "uint256[]"
        },
        {
          "internalType": "uint256[]",
          "name": "rewards",
          "type": "uint256[]"
        },
        {
          "internalType": "string",
          "name": "answer",
          "type": "string"
        }
      ],
      "name": "processQuestion",
      "outputs": [],
      "stateMutability": "nonpayable",
      "type": "function"
    },
    {
      "inputs": [
        {
          "internalType": "uint256",
          "name": "qId",
          "type": "uint256"
        },
        {
          "internalType": "string",
          "name": "sub",
          "type": "string"
        }
      ],
      "name": "submitAnswer",
      "outputs": [],
      "stateMutability": "nonpayable",
      "type": "function"
    }
  ],
  "bytecode": "0x60806040523480156200001157600080fd5b5060405162003ec238038062003ec2833981810160405281019062000037919062000306565b336000806101000a81548173ffffffffffffffffffffffffffffffffffffffff021916908373ffffffffffffffffffffffffffffffffffffffff1602179055506040516200008590620001b1565b604051809103906000f080158015620000a2573d6000803e3d6000fd5b50600160006101000a81548173ffffffffffffffffffffffffffffffffffffffff021916908373ffffffffffffffffffffffffffffffffffffffff160217905550604051620000f190620001bf565b604051809103906000f0801580156200010e573d6000803e3d6000fd5b50600260006101000a81548173ffffffffffffffffffffffffffffffffffffffff021916908373ffffffffffffffffffffffffffffffffffffffff16021790555081600360006101000a81548173ffffffffffffffffffffffffffffffffffffffff021916908373ffffffffffffffffffffffffffffffffffffffff1602179055508060049080519060200190620001a8929190620001cd565b5050506200051e565b61029580620024b383390190565b61177a806200274883390190565b828054620001db9062000429565b90600052602060002090601f016020900481019282620001ff57600085556200024b565b82601f106200021a57805160ff19168380011785556200024b565b828001600101855582156200024b579182015b828111156200024a5782518255916020019190600101906200022d565b5b5090506200025a91906200025e565b5090565b5b80821115620002795760008160009055506001016200025f565b5090565b6000620002946200028e8462000389565b62000360565b905082815260208101848484011115620002ad57600080fd5b620002ba848285620003f3565b509392505050565b600081519050620002d38162000504565b92915050565b600082601f830112620002eb57600080fd5b8151620002fd8482602086016200027d565b91505092915050565b600080604083850312156200031a57600080fd5b60006200032a85828601620002c2565b925050602083015167ffffffffffffffff8111156200034857600080fd5b6200035685828601620002d9565b9150509250929050565b60006200036c6200037f565b90506200037a82826200045f565b919050565b6000604051905090565b600067ffffffffffffffff821115620003a757620003a6620004c4565b5b620003b282620004f3565b9050602081019050919050565b6000620003cc82620003d3565b9050919050565b600073ffffffffffffffffffffffffffffffffffffffff82169050919050565b60005b8381101562000413578082015181840152602081019050620003f6565b8381111562000423576000848401525b50505050565b600060028204905060018216806200044257607f821691505b6020821081141562000459576200045862000495565b5b50919050565b6200046a82620004f3565b810181811067ffffffffffffffff821117156200048c576200048b620004c4565b5b80604052505050565b7f4e487b7100000000000000000000000000000000000000000000000000000000600052602260045260246000fd5b7f4e487b7100000000000000000000000000000000000000000000000000000000600052604160045260246000fd5b6000601f19601f8301169050919050565b6200050f81620003bf565b81146200051b57600080fd5b50565b611f85806200052e6000396000f3fe608060405234801561001057600080fd5b50600436106100875760003560e01c806397221ab71161005b57806397221ab7146101125780639ab804e414610130578063b2bdfa7b1461014e578063c9616bde1461016c57610087565b8062607a7d1461008c57806301fa3bec146100aa57806378e0965c146100c65780638aee48d7146100e2575b600080fd5b610094610188565b6040516100a19190611852565b60405180910390f35b6100c460048036038101906100bf919061149a565b610216565b005b6100e060048036038101906100db91906113c3565b610381565b005b6100fc60048036038101906100f79190611371565b6106c0565b604051610109919061180e565b60405180910390f35b61011a610846565b6040516101279190611830565b60405180910390f35b6101386108f2565b60405161014591906117f3565b60405180910390f35b610156610918565b60405161016391906117f3565b60405180910390f35b61018660048036038101906101819190611330565b61093c565b005b6004805461019590611c84565b80601f01602080910402602001604051908101604052809291908181526020018280546101c190611c84565b801561020e5780601f106101e35761010080835404028352916020019161020e565b820191906000526020600020905b8154815290600101906020018083116101f157829003601f168201915b505050505081565b6000600160009054906101000a900473ffffffffffffffffffffffffffffffffffffffff1673ffffffffffffffffffffffffffffffffffffffff1663db89c044336040518263ffffffff1660e01b815260040161027391906117f3565b60206040518083038186803b15801561028b57600080fd5b505afa15801561029f573d6000803e3d6000fd5b505050506040513d601f19601f820116820180604052508101906102c3919061139a565b9050600260009054906101000a900473ffffffffffffffffffffffffffffffffffffffff1673ffffffffffffffffffffffffffffffffffffffff16633b53b63b843384866040518563ffffffff1660e01b815260040161032694939291906119d9565b600060405180830381600087803b15801561034057600080fd5b505af1158015610354573d6000803e3d6000fd5b5050505061037c604051806060016040528060288152602001611f0160289139338585610b1a565b505050565b60008054906101000a900473ffffffffffffffffffffffffffffffffffffffff1673ffffffffffffffffffffffffffffffffffffffff163373ffffffffffffffffffffffffffffffffffffffff161461040f576040517f08c379a00000000000000000000000000000000000000000000000000000000081526004016104069061199e565b60405180910390fd5b61044e6040518060400160405280601681526020017f70726f63657373696e67205175657374696f6e2025730000000000000000000081525086610bbc565b61048d6040518060400160405280601381526020017f46696e616c20616e737765722069733a2025730000000000000000000000000081525082610c58565b60005b8451811015610629576105186040518060400160405280600881526020017f557365723a20257300000000000000000000000000000000000000000000000081525086838151811061050b577f4e487b7100000000000000000000000000000000000000000000000000000000600052603260045260246000fd5b6020026020010151610cf4565b6105976040518060400160405280601281526020017f6765747320726577617264206f663a202573000000000000000000000000000081525084838151811061058a577f4e487b7100000000000000000000000000000000000000000000000000000000600052603260045260246000fd5b6020026020010151610bbc565b6106166040518060400160405280601f81526020017f416e642074686569722072657075746174696f6e206973206e6f773a20257300815250858381518110610609577f4e487b7100000000000000000000000000000000000000000000000000000000600052603260045260246000fd5b6020026020010151610bbc565b808061062190611ce7565b915050610490565b50600260009054906101000a900473ffffffffffffffffffffffffffffffffffffffff1673ffffffffffffffffffffffffffffffffffffffff16631d239ef586836040518363ffffffff1660e01b8152600401610687929190611a25565b600060405180830381600087803b1580156106a157600080fd5b505af11580156106b5573d6000803e3d6000fd5b505050505050505050565b606060008054906101000a900473ffffffffffffffffffffffffffffffffffffffff1673ffffffffffffffffffffffffffffffffffffffff163373ffffffffffffffffffffffffffffffffffffffff1614610750576040517f08c379a00000000000000000000000000000000000000000000000000000000081526004016107479061197e565b60405180910390fd5b61078f6040518060400160405280601e81526020017f636865636b20616e737765727320666f72207175657374696f6e3a202573000081525083610bbc565b600260009054906101000a900473ffffffffffffffffffffffffffffffffffffffff1673ffffffffffffffffffffffffffffffffffffffff166394b99f20836040518263ffffffff1660e01b81526004016107ea91906119be565b60006040518083038186803b15801561080257600080fd5b505afa158015610816573d6000803e3d6000fd5b505050506040513d6000823e3d601f19601f8201168201806040525081019061083f91906112ae565b9050919050565b6060600260009054906101000a900473ffffffffffffffffffffffffffffffffffffffff1673ffffffffffffffffffffffffffffffffffffffff166356fe5bb06040518163ffffffff1660e01b815260040160006040518083038186803b1580156108b057600080fd5b505afa1580156108c4573d6000803e3d6000fd5b505050506040513d6000823e3d601f19601f820116820180604052508101906108ed91906112ef565b905090565b600360009054906101000a900473ffffffffffffffffffffffffffffffffffffffff1681565b60008054906101000a900473ffffffffffffffffffffffffffffffffffffffff1681565b60008054906101000a900473ffffffffffffffffffffffffffffffffffffffff1673ffffffffffffffffffffffffffffffffffffffff163373ffffffffffffffffffffffffffffffffffffffff16146109ca576040517f08c379a00000000000000000000000000000000000000000000000000000000081526004016109c19061195e565b60405180910390fd5b610a296040518060400160405280600a81526020017f5f6f776e65723a2025730000000000000000000000000000000000000000000081525060008054906101000a900473ffffffffffffffffffffffffffffffffffffffff16610cf4565b610a686040518060400160405280600e81526020017f6d73672e73656e6465723a20257300000000000000000000000000000000000081525033610cf4565b610a8a604051806060016040528060278152602001611f296027913982610c58565b600260009054906101000a900473ffffffffffffffffffffffffffffffffffffffff1673ffffffffffffffffffffffffffffffffffffffff1663c9616bde826040518263ffffffff1660e01b8152600401610ae59190611852565b600060405180830381600087803b158015610aff57600080fd5b505af1158015610b13573d6000803e3d6000fd5b5050505050565b610bb684848484604051602401610b3494939291906118a4565b6040516020818303038152906040527f4c55f234000000000000000000000000000000000000000000000000000000007bffffffffffffffffffffffffffffffffffffffffffffffffffffffff19166020820180517bffffffffffffffffffffffffffffffffffffffffffffffffffffffff8381831617835250505050610d90565b50505050565b610c548282604051602401610bd292919061192e565b6040516020818303038152906040527f9710a9d0000000000000000000000000000000000000000000000000000000007bffffffffffffffffffffffffffffffffffffffffffffffffffffffff19166020820180517bffffffffffffffffffffffffffffffffffffffffffffffffffffffff8381831617835250505050610d90565b5050565b610cf08282604051602401610c6e9291906118f7565b6040516020818303038152906040527f4b5c4277000000000000000000000000000000000000000000000000000000007bffffffffffffffffffffffffffffffffffffffffffffffffffffffff19166020820180517bffffffffffffffffffffffffffffffffffffffffffffffffffffffff8381831617835250505050610d90565b5050565b610d8c8282604051602401610d0a929190611874565b6040516020818303038152906040527f319af333000000000000000000000000000000000000000000000000000000007bffffffffffffffffffffffffffffffffffffffffffffffffffffffff19166020820180517bffffffffffffffffffffffffffffffffffffffffffffffffffffffff8381831617835250505050610d90565b5050565b60008151905060006a636f6e736f6c652e6c6f679050602083016000808483855afa5050505050565b6000610dcc610dc784611a7a565b611a55565b90508083825260208201905082856020860282011115610deb57600080fd5b60005b85811015610e1b5781610e018882611019565b845260208401935060208301925050600181019050610dee565b5050509392505050565b6000610e38610e3384611aa6565b611a55565b90508083825260208201905082856020860282011115610e5757600080fd5b60005b85811015610ea157815167ffffffffffffffff811115610e7957600080fd5b808601610e868982611154565b85526020850194506020840193505050600181019050610e5a565b5050509392505050565b6000610ebe610eb984611ad2565b611a55565b90508083825260208201905082856020860282011115610edd57600080fd5b60005b85811015610f2757815167ffffffffffffffff811115610eff57600080fd5b808601610f0c89826111cc565b85526020850194506020840193505050600181019050610ee0565b5050509392505050565b6000610f44610f3f84611afe565b611a55565b90508083825260208201905082856020860282011115610f6357600080fd5b60005b85811015610f935781610f798882611284565b845260208401935060208301925050600181019050610f66565b5050509392505050565b6000610fb0610fab84611b2a565b611a55565b905082815260208101848484011115610fc857600080fd5b610fd3848285611c42565b509392505050565b6000610fee610fe984611b2a565b611a55565b90508281526020810184848401111561100657600080fd5b611011848285611c51565b509392505050565b60008135905061102881611ebb565b92915050565b60008151905061103d81611ebb565b92915050565b600082601f83011261105457600080fd5b8135611064848260208601610db9565b91505092915050565b600082601f83011261107e57600080fd5b815161108e848260208601610e25565b91505092915050565b600082601f8301126110a857600080fd5b81516110b8848260208601610eab565b91505092915050565b600082601f8301126110d257600080fd5b81356110e2848260208601610f31565b91505092915050565b6000815190506110fa81611ed2565b92915050565b600082601f83011261111157600080fd5b8135611121848260208601610f9d565b91505092915050565b600082601f83011261113b57600080fd5b815161114b848260208601610fdb565b91505092915050565b60006060828403121561116657600080fd5b6111706060611a55565b905060006111808482850161102e565b600083015250602061119484828501611299565b602083015250604082015167ffffffffffffffff8111156111b457600080fd5b6111c08482850161112a565b60408301525092915050565b600060a082840312156111de57600080fd5b6111e860a0611a55565b905060006111f884828501611299565b600083015250602061120c848285016110eb565b602083015250604082015167ffffffffffffffff81111561122c57600080fd5b6112388482850161112a565b604083015250606061124c84828501611299565b606083015250608082015167ffffffffffffffff81111561126c57600080fd5b6112788482850161112a565b60808301525092915050565b60008135905061129381611ee9565b92915050565b6000815190506112a881611ee9565b92915050565b6000602082840312156112c057600080fd5b600082015167ffffffffffffffff8111156112da57600080fd5b6112e68482850161106d565b91505092915050565b60006020828403121561130157600080fd5b600082015167ffffffffffffffff81111561131b57600080fd5b61132784828501611097565b91505092915050565b60006020828403121561134257600080fd5b600082013567ffffffffffffffff81111561135c57600080fd5b61136884828501611100565b91505092915050565b60006020828403121561138357600080fd5b600061139184828501611284565b91505092915050565b6000602082840312156113ac57600080fd5b60006113ba84828501611299565b91505092915050565b600080600080600060a086880312156113db57600080fd5b60006113e988828901611284565b955050602086013567ffffffffffffffff81111561140657600080fd5b61141288828901611043565b945050604086013567ffffffffffffffff81111561142f57600080fd5b61143b888289016110c1565b935050606086013567ffffffffffffffff81111561145857600080fd5b611464888289016110c1565b925050608086013567ffffffffffffffff81111561148157600080fd5b61148d88828901611100565b9150509295509295909350565b600080604083850312156114ad57600080fd5b60006114bb85828601611284565b925050602083013567ffffffffffffffff8111156114d857600080fd5b6114e485828601611100565b9150509250929050565b60006114fa8383611708565b905092915050565b600061150e8383611758565b905092915050565b61151f81611bfa565b82525050565b61152e81611bfa565b82525050565b600061153f82611b7b565b6115498185611bb6565b93508360208202850161155b85611b5b565b8060005b85811015611597578484038952815161157885826114ee565b945061158383611b9c565b925060208a0199505060018101905061155f565b50829750879550505050505092915050565b60006115b482611b86565b6115be8185611bc7565b9350836020820285016115d085611b6b565b8060005b8581101561160c57848403895281516115ed8582611502565b94506115f883611ba9565b925060208a019950506001810190506115d4565b50829750879550505050505092915050565b61162781611c0c565b82525050565b600061163882611b91565b6116428185611bd8565b9350611652818560208601611c51565b61165b81611dbd565b840191505092915050565b600061167182611b91565b61167b8185611be9565b935061168b818560208601611c51565b61169481611dbd565b840191505092915050565b60006116ac602b83611be9565b91506116b782611dce565b604082019050919050565b60006116cf602e83611be9565b91506116da82611e1d565b604082019050919050565b60006116f2602b83611be9565b91506116fd82611e6c565b604082019050919050565b60006060830160008301516117206000860182611516565b50602083015161173360208601826117d5565b506040830151848203604086015261174b828261162d565b9150508091505092915050565b600060a08301600083015161177060008601826117d5565b506020830151611783602086018261161e565b506040830151848203604086015261179b828261162d565b91505060608301516117b060608601826117d5565b50608083015184820360808601526117c8828261162d565b9150508091505092915050565b6117de81611c38565b82525050565b6117ed81611c38565b82525050565b60006020820190506118086000830184611525565b92915050565b600060208201905081810360008301526118288184611534565b905092915050565b6000602082019050818103600083015261184a81846115a9565b905092915050565b6000602082019050818103600083015261186c8184611666565b905092915050565b6000604082019050818103600083015261188e8185611666565b905061189d6020830184611525565b9392505050565b600060808201905081810360008301526118be8187611666565b90506118cd6020830186611525565b6118da60408301856117e4565b81810360608301526118ec8184611666565b905095945050505050565b600060408201905081810360008301526119118185611666565b905081810360208301526119258184611666565b90509392505050565b600060408201905081810360008301526119488185611666565b905061195760208301846117e4565b9392505050565b600060208201905081810360008301526119778161169f565b9050919050565b60006020820190508181036000830152611997816116c2565b9050919050565b600060208201905081810360008301526119b7816116e5565b9050919050565b60006020820190506119d360008301846117e4565b92915050565b60006080820190506119ee60008301876117e4565b6119fb6020830186611525565b611a0860408301856117e4565b8181036060830152611a1a8184611666565b905095945050505050565b6000604082019050611a3a60008301856117e4565b8181036020830152611a4c8184611666565b90509392505050565b6000611a5f611a70565b9050611a6b8282611cb6565b919050565b6000604051905090565b600067ffffffffffffffff821115611a9557611a94611d8e565b5b602082029050602081019050919050565b600067ffffffffffffffff821115611ac157611ac0611d8e565b5b602082029050602081019050919050565b600067ffffffffffffffff821115611aed57611aec611d8e565b5b602082029050602081019050919050565b600067ffffffffffffffff821115611b1957611b18611d8e565b5b602082029050602081019050919050565b600067ffffffffffffffff821115611b4557611b44611d8e565b5b611b4e82611dbd565b9050602081019050919050565b6000819050602082019050919050565b6000819050602082019050919050565b600081519050919050565b600081519050919050565b600081519050919050565b6000602082019050919050565b6000602082019050919050565b600082825260208201905092915050565b600082825260208201905092915050565b600082825260208201905092915050565b600082825260208201905092915050565b6000611c0582611c18565b9050919050565b60008115159050919050565b600073ffffffffffffffffffffffffffffffffffffffff82169050919050565b6000819050919050565b82818337600083830152505050565b60005b83811015611c6f578082015181840152602081019050611c54565b83811115611c7e576000848401525b50505050565b60006002820490506001821680611c9c57607f821691505b60208210811415611cb057611caf611d5f565b5b50919050565b611cbf82611dbd565b810181811067ffffffffffffffff82111715611cde57611cdd611d8e565b5b80604052505050565b6000611cf282611c38565b91507fffffffffffffffffffffffffffffffffffffffffffffffffffffffffffffffff821415611d2557611d24611d30565b5b600182019050919050565b7f4e487b7100000000000000000000000000000000000000000000000000000000600052601160045260246000fd5b7f4e487b7100000000000000000000000000000000000000000000000000000000600052602260045260246000fd5b7f4e487b7100000000000000000000000000000000000000000000000000000000600052604160045260246000fd5b6000601f19601f8301169050919050565b7f4f6e6c79207468652061646d696e6973747261746f722063616e20637265617460008201527f65207175657374696f6e73000000000000000000000000000000000000000000602082015250565b7f4f6e6c79207468652061646d696e6973747261746f722063616e20726571756560008201527f7374207375626d697373696f6e73000000000000000000000000000000000000602082015250565b7f4f6e6c79207468652061646d696e6973747261746f722063616e20616c6c6f6360008201527f6174652072657761726473000000000000000000000000000000000000000000602082015250565b611ec481611bfa565b8114611ecf57600080fd5b50565b611edb81611c0c565b8114611ee657600080fd5b50565b611ef281611c38565b8114611efd57600080fd5b5056fe557365723a2025732c205175657374696f6e49443a2025732c205375626d697373696f6e3a202573696e697469616c6973696e67207175657374696f6e2077697468207374696d756c75733a202573a26469706673582212207b8f2f4e2a2be0ed355d6a2c82272892d955a821ed95fd906121e653cc3f7efd64736f6c63430008040033608060405234801561001057600080fd5b50610275806100206000396000f3fe608060405234801561001057600080fd5b50600436106100365760003560e01c8063db89c0441461003b578063f5c91a081461006b575b600080fd5b61005560048036038101906100509190610146565b610087565b60405161006291906101ba565b60405180910390f35b6100856004803603810190610080919061016f565b6100d2565b005b60008060008373ffffffffffffffffffffffffffffffffffffffff1673ffffffffffffffffffffffffffffffffffffffff168152602001908152602001600020600001549050919050565b806000808473ffffffffffffffffffffffffffffffffffffffff1673ffffffffffffffffffffffffffffffffffffffff168152602001908152602001600020600001819055505050565b60008135905061012b81610211565b92915050565b60008135905061014081610228565b92915050565b60006020828403121561015857600080fd5b60006101668482850161011c565b91505092915050565b6000806040838503121561018257600080fd5b60006101908582860161011c565b92505060206101a185828601610131565b9150509250929050565b6101b481610207565b82525050565b60006020820190506101cf60008301846101ab565b92915050565b60006101e0826101e7565b9050919050565b600073ffffffffffffffffffffffffffffffffffffffff82169050919050565b6000819050919050565b61021a816101d5565b811461022557600080fd5b50565b61023181610207565b811461023c57600080fd5b5056fea26469706673582212208ed5858775c73925235ecc500698c619505d00e6096135449294855d656c91ad64736f6c6343000804003360806040523480156200001157600080fd5b506200005d6040518060400160405280601981526020017f5175657374696f6e20696e7374616e63652063726561746564000000000000008152506200007360201b620009611760201c565b6000600281905550600060038190555062000207565b62000113816040516024016200008a919062000180565b6040516020818303038152906040527f41304fac000000000000000000000000000000000000000000000000000000007bffffffffffffffffffffffffffffffffffffffffffffffffffffffff19166020820180517bffffffffffffffffffffffffffffffffffffffffffffffffffffffff83818316178352505050506200011660201b60201c565b50565b60008151905060006a636f6e736f6c652e6c6f679050602083016000808483855afa5050505050565b60006200014c82620001a4565b620001588185620001af565b93506200016a818560208601620001c0565b6200017581620001f6565b840191505092915050565b600060208201905081810360008301526200019c81846200013f565b905092915050565b600081519050919050565b600082825260208201905092915050565b60005b83811015620001e0578082015181840152602081019050620001c3565b83811115620001f0576000848401525b50505050565b6000601f19601f8301169050919050565b61156380620002176000396000f3fe608060405234801561001057600080fd5b50600436106100575760003560e01c80631d239ef51461005c5780633b53b63b1461007857806356fe5bb01461009457806394b99f20146100b2578063c9616bde146100e2575b600080fd5b61007660048036038101906100719190610d41565b6100fe565b005b610092600480360381019061008d9190610cc6565b610172565b005b61009c610324565b6040516100a9919061108a565b60405180910390f35b6100cc60048036038101906100c79190610c9d565b610582565b6040516100d99190611068565b60405180910390f35b6100fc60048036038101906100f79190610c5c565b6107b0565b005b600080600084815260200190815260200160002060010160006101000a81548160ff021916908315150217905550806000808481526020019081526020016000206004019080519060200190610155929190610abf565b5060036000815480929190610169906112ed565b91905055505050565b60025484106101b6576040517f08c379a00000000000000000000000000000000000000000000000000000000081526004016101ad9061111e565b60405180910390fd5b60008085815260200190815260200160002060010160009054906101000a900460ff16610218576040517f08c379a000000000000000000000000000000000000000000000000000000000815260040161020f906110fe565b60405180910390fd5b60405180606001604052808473ffffffffffffffffffffffffffffffffffffffff1681526020018381526020018281525060016000868152602001908152602001600020600080600088815260200190815260200160002060030154815260200190815260200160002060008201518160000160006101000a81548173ffffffffffffffffffffffffffffffffffffffff021916908373ffffffffffffffffffffffffffffffffffffffff1602179055506020820151816001015560408201518160020190805190602001906102ef929190610abf565b5090505060008085815260200190815260200160002060030160008154809291906103199061137a565b919050555050505050565b6060600060025467ffffffffffffffff81111561036a577f4e487b7100000000000000000000000000000000000000000000000000000000600052604160045260246000fd5b6040519080825280602002602001820160405280156103a357816020015b610390610b45565b8152602001906001900390816103885790505b50905060005b60025481101561057a576000808281526020019081526020016000206040518060a0016040529081600082015481526020016001820160009054906101000a900460ff1615151515815260200160028201805461040590611317565b80601f016020809104026020016040519081016040528092919081815260200182805461043190611317565b801561047e5780601f106104535761010080835404028352916020019161047e565b820191906000526020600020905b81548152906001019060200180831161046157829003601f168201915b50505050508152602001600382015481526020016004820180546104a190611317565b80601f01602080910402602001604051908101604052809291908181526020018280546104cd90611317565b801561051a5780601f106104ef5761010080835404028352916020019161051a565b820191906000526020600020905b8154815290600101906020018083116104fd57829003601f168201915b50505050508152505082828151811061055c577f4e487b7100000000000000000000000000000000000000000000000000000000600052603260045260246000fd5b602002602001018190525080806105729061137a565b9150506103a9565b508091505090565b6060600080600084815260200190815260200160002060030154905060008167ffffffffffffffff8111156105e0577f4e487b7100000000000000000000000000000000000000000000000000000000600052604160045260246000fd5b60405190808252806020026020018201604052801561061957816020015b610606610b76565b8152602001906001900390816105fe5790505b50905060005b828110156107a55760006001600087815260200190815260200160002060008381526020019081526020016000209050806040518060600160405290816000820160009054906101000a900473ffffffffffffffffffffffffffffffffffffffff1673ffffffffffffffffffffffffffffffffffffffff1673ffffffffffffffffffffffffffffffffffffffff168152602001600182015481526020016002820180546106cb90611317565b80601f01602080910402602001604051908101604052809291908181526020018280546106f790611317565b80156107445780601f1061071957610100808354040283529160200191610744565b820191906000526020600020905b81548152906001019060200180831161072757829003601f168201915b505050505081525050838381518110610786577f4e487b7100000000000000000000000000000000000000000000000000000000600052603260045260246000fd5b602002602001018190525050808061079d9061137a565b91505061061f565b508092505050919050565b6107f16040518060400160405280600e81526020017f7175657374696f6e49443a2025730000000000000000000000000000000000008152506002546109fa565b6040518060a001604052806002548152602001600115158152602001828152602001600081526020016040518060200160405280600081525081525060008060025481526020019081526020016000206000820151816000015560208201518160010160006101000a81548160ff0219169083151502179055506040820151816002019080519060200190610887929190610abf565b506060820151816003015560808201518160040190805190602001906108ae929190610abf565b509050507fa5fbefdc56bf0d2d586a82a9f50784dfe29ae6d3cfe3e0491131259d4f2042ee600254826040516108e592919061113e565b60405180910390a1600260008154809291906109009061137a565b9190505550600360008154809291906109189061137a565b919050555061095e6040518060400160405280601281526020017f5175657374696f6e20636f756e743a20257300000000000000000000000000008152506002546109fa565b50565b6109f78160405160240161097591906110ac565b6040516020818303038152906040527f41304fac000000000000000000000000000000000000000000000000000000007bffffffffffffffffffffffffffffffffffffffffffffffffffffffff19166020820180517bffffffffffffffffffffffffffffffffffffffffffffffffffffffff8381831617835250505050610a96565b50565b610a928282604051602401610a109291906110ce565b6040516020818303038152906040527f9710a9d0000000000000000000000000000000000000000000000000000000007bffffffffffffffffffffffffffffffffffffffffffffffffffffffff19166020820180517bffffffffffffffffffffffffffffffffffffffffffffffffffffffff8381831617835250505050610a96565b5050565b60008151905060006a636f6e736f6c652e6c6f679050602083016000808483855afa5050505050565b828054610acb90611317565b90600052602060002090601f016020900481019282610aed5760008555610b34565b82601f10610b0657805160ff1916838001178555610b34565b82800160010185558215610b34579182015b82811115610b33578251825591602001919060010190610b18565b5b509050610b419190610bad565b5090565b6040518060a00160405280600081526020016000151581526020016060815260200160008152602001606081525090565b6040518060600160405280600073ffffffffffffffffffffffffffffffffffffffff16815260200160008152602001606081525090565b5b80821115610bc6576000816000905550600101610bae565b5090565b6000610bdd610bd884611193565b61116e565b905082815260208101848484011115610bf557600080fd5b610c008482856112ab565b509392505050565b600081359050610c17816114ff565b92915050565b600082601f830112610c2e57600080fd5b8135610c3e848260208601610bca565b91505092915050565b600081359050610c5681611516565b92915050565b600060208284031215610c6e57600080fd5b600082013567ffffffffffffffff811115610c8857600080fd5b610c9484828501610c1d565b91505092915050565b600060208284031215610caf57600080fd5b6000610cbd84828501610c47565b91505092915050565b60008060008060808587031215610cdc57600080fd5b6000610cea87828801610c47565b9450506020610cfb87828801610c08565b9350506040610d0c87828801610c47565b925050606085013567ffffffffffffffff811115610d2957600080fd5b610d3587828801610c1d565b91505092959194509250565b60008060408385031215610d5457600080fd5b6000610d6285828601610c47565b925050602083013567ffffffffffffffff811115610d7f57600080fd5b610d8b85828601610c1d565b9150509250929050565b6000610da18383610f7d565b905092915050565b6000610db58383610fcd565b905092915050565b610dc681611263565b82525050565b6000610dd7826111e4565b610de1818561121f565b935083602082028501610df3856111c4565b8060005b85811015610e2f5784840389528151610e108582610d95565b9450610e1b83611205565b925060208a01995050600181019050610df7565b50829750879550505050505092915050565b6000610e4c826111ef565b610e568185611230565b935083602082028501610e68856111d4565b8060005b85811015610ea45784840389528151610e858582610da9565b9450610e9083611212565b925060208a01995050600181019050610e6c565b50829750879550505050505092915050565b610ebf81611275565b82525050565b6000610ed0826111fa565b610eda8185611241565b9350610eea8185602086016112ba565b610ef381611450565b840191505092915050565b6000610f09826111fa565b610f138185611252565b9350610f238185602086016112ba565b610f2c81611450565b840191505092915050565b6000610f44602e83611252565b9150610f4f82611461565b604082019050919050565b6000610f67602d83611252565b9150610f72826114b0565b604082019050919050565b6000606083016000830151610f956000860182610dbd565b506020830151610fa8602086018261104a565b5060408301518482036040860152610fc08282610ec5565b9150508091505092915050565b600060a083016000830151610fe5600086018261104a565b506020830151610ff86020860182610eb6565b50604083015184820360408601526110108282610ec5565b9150506060830151611025606086018261104a565b506080830151848203608086015261103d8282610ec5565b9150508091505092915050565b611053816112a1565b82525050565b611062816112a1565b82525050565b600060208201905081810360008301526110828184610dcc565b905092915050565b600060208201905081810360008301526110a48184610e41565b905092915050565b600060208201905081810360008301526110c68184610efe565b905092915050565b600060408201905081810360008301526110e88185610efe565b90506110f76020830184611059565b9392505050565b6000602082019050818103600083015261111781610f37565b9050919050565b6000602082019050818103600083015261113781610f5a565b9050919050565b60006040820190506111536000830185611059565b81810360208301526111658184610efe565b90509392505050565b6000611178611189565b90506111848282611349565b919050565b6000604051905090565b600067ffffffffffffffff8211156111ae576111ad611421565b5b6111b782611450565b9050602081019050919050565b6000819050602082019050919050565b6000819050602082019050919050565b600081519050919050565b600081519050919050565b600081519050919050565b6000602082019050919050565b6000602082019050919050565b600082825260208201905092915050565b600082825260208201905092915050565b600082825260208201905092915050565b600082825260208201905092915050565b600061126e82611281565b9050919050565b60008115159050919050565b600073ffffffffffffffffffffffffffffffffffffffff82169050919050565b6000819050919050565b82818337600083830152505050565b60005b838110156112d85780820151818401526020810190506112bd565b838111156112e7576000848401525b50505050565b60006112f8826112a1565b9150600082141561130c5761130b6113c3565b5b600182039050919050565b6000600282049050600182168061132f57607f821691505b60208210811415611343576113426113f2565b5b50919050565b61135282611450565b810181811067ffffffffffffffff8211171561137157611370611421565b5b80604052505050565b6000611385826112a1565b91507fffffffffffffffffffffffffffffffffffffffffffffffffffffffffffffffff8214156113b8576113b76113c3565b5b600182019050919050565b7f4e487b7100000000000000000000000000000000000000000000000000000000600052601160045260246000fd5b7f4e487b7100000000000000000000000000000000000000000000000000000000600052602260045260246000fd5b7f4e487b7100000000000000000000000000000000000000000000000000000000600052604160045260246000fd5b6000601f19601f8301169050919050565b7f496e76616c6964207175657374696f6e204944202d207175657374696f6e206860008201527f6173206265656e20636c6f736564000000000000000000000000000000000000602082015250565b7f496e76616c6964207175657374696f6e204944202d207175657374696f6e206460008201527f6f6573206e6f7420657869737400000000000000000000000000000000000000602082015250565b61150881611263565b811461151357600080fd5b50565b61151f816112a1565b811461152a57600080fd5b5056fea26469706673582212204fd3d3148d89b00cef60b0a470b974e25b0b7c936eda08107289f8dba76110ee64736f6c63430008040033",
  "linkReferences": {},
  "deployedLinkReferences": {}
}