{
  "_format": "hh-sol-artifact-1",
  "contractName": "TruthDisco",
  "sourceName": "contracts/TruthDisco.sol",
  "abi": [
    {
      "inputs": [
        {
          "internalType": "string",
          "name": "publicKey",
          "type": "string"
        },
        {
          "internalType": "string",
          "name": "name_",
          "type": "string"
        },
        {
          "internalType": "string",
          "name": "symbol_",
          "type": "string"
        }
      ],
      "stateMutability": "nonpayable",
      "type": "constructor"
    },
    {
      "anonymous": false,
      "inputs": [
        {
          "indexed": true,
          "internalType": "address",
          "name": "owner",
          "type": "address"
        },
        {
          "indexed": true,
          "internalType": "address",
          "name": "spender",
          "type": "address"
        },
        {
          "indexed": false,
          "internalType": "uint256",
          "name": "value",
          "type": "uint256"
        }
      ],
      "name": "Approval",
      "type": "event"
    },
    {
      "anonymous": false,
      "inputs": [
        {
          "indexed": true,
          "internalType": "address",
          "name": "from",
          "type": "address"
        },
        {
          "indexed": true,
          "internalType": "address",
          "name": "to",
          "type": "address"
        },
        {
          "indexed": false,
          "internalType": "uint256",
          "name": "value",
          "type": "uint256"
        }
      ],
      "name": "Transfer",
      "type": "event"
    },
    {
      "inputs": [],
      "name": "_owner",
      "outputs": [
        {
          "internalType": "address",
          "name": "",
          "type": "address"
        }
      ],
      "stateMutability": "view",
      "type": "function"
    },
    {
      "inputs": [],
      "name": "_publicKey",
      "outputs": [
        {
          "internalType": "string",
          "name": "",
          "type": "string"
        }
      ],
      "stateMutability": "view",
      "type": "function"
    },
    {
      "inputs": [
        {
          "internalType": "address",
          "name": "owner",
          "type": "address"
        },
        {
          "internalType": "address",
          "name": "spender",
          "type": "address"
        }
      ],
      "name": "allowance",
      "outputs": [
        {
          "internalType": "uint256",
          "name": "",
          "type": "uint256"
        }
      ],
      "stateMutability": "view",
      "type": "function"
    },
    {
      "inputs": [
        {
          "internalType": "address",
          "name": "spender",
          "type": "address"
        },
        {
          "internalType": "uint256",
          "name": "amount",
          "type": "uint256"
        }
      ],
      "name": "approve",
      "outputs": [
        {
          "internalType": "bool",
          "name": "",
          "type": "bool"
        }
      ],
      "stateMutability": "nonpayable",
      "type": "function"
    },
    {
      "inputs": [
        {
          "internalType": "address",
          "name": "account",
          "type": "address"
        }
      ],
      "name": "balanceOf",
      "outputs": [
        {
          "internalType": "uint256",
          "name": "",
          "type": "uint256"
        }
      ],
      "stateMutability": "view",
      "type": "function"
    },
    {
      "inputs": [],
      "name": "decimals",
      "outputs": [
        {
          "internalType": "uint8",
          "name": "",
          "type": "uint8"
        }
      ],
      "stateMutability": "view",
      "type": "function"
    },
    {
      "inputs": [
        {
          "internalType": "address",
          "name": "spender",
          "type": "address"
        },
        {
          "internalType": "uint256",
          "name": "subtractedValue",
          "type": "uint256"
        }
      ],
      "name": "decreaseAllowance",
      "outputs": [
        {
          "internalType": "bool",
          "name": "",
          "type": "bool"
        }
      ],
      "stateMutability": "nonpayable",
      "type": "function"
    },
    {
      "inputs": [
        {
          "internalType": "uint256",
          "name": "qId",
          "type": "uint256"
        }
      ],
      "name": "getQuestionSubmissions",
      "outputs": [
        {
          "components": [
            {
              "internalType": "address",
              "name": "submittedBy",
              "type": "address"
            },
            {
              "internalType": "uint256",
              "name": "reputation",
              "type": "uint256"
            },
            {
              "internalType": "string",
              "name": "submission",
              "type": "string"
            }
          ],
          "internalType": "struct Questions.Answer[]",
          "name": "",
          "type": "tuple[]"
        }
      ],
      "stateMutability": "view",
      "type": "function"
    },
    {
      "inputs": [],
      "name": "getQuestions",
      "outputs": [
        {
          "components": [
            {
              "internalType": "uint256",
              "name": "id",
              "type": "uint256"
            },
            {
              "internalType": "bool",
              "name": "active",
              "type": "bool"
            },
            {
              "internalType": "string",
              "name": "stimulus",
              "type": "string"
            },
            {
              "internalType": "uint256",
              "name": "ansCount",
              "type": "uint256"
            },
            {
              "internalType": "string",
              "name": "answer",
              "type": "string"
            }
          ],
          "internalType": "struct Questions.Question[]",
          "name": "",
          "type": "tuple[]"
        }
      ],
      "stateMutability": "view",
      "type": "function"
    },
    {
      "inputs": [
        {
          "internalType": "address",
          "name": "spender",
          "type": "address"
        },
        {
          "internalType": "uint256",
          "name": "addedValue",
          "type": "uint256"
        }
      ],
      "name": "increaseAllowance",
      "outputs": [
        {
          "internalType": "bool",
          "name": "",
          "type": "bool"
        }
      ],
      "stateMutability": "nonpayable",
      "type": "function"
    },
    {
      "inputs": [
        {
          "internalType": "string",
          "name": "stimulus",
          "type": "string"
        }
      ],
      "name": "initQuestion",
      "outputs": [],
      "stateMutability": "nonpayable",
      "type": "function"
    },
    {
      "inputs": [],
      "name": "name",
      "outputs": [
        {
          "internalType": "string",
          "name": "",
          "type": "string"
        }
      ],
      "stateMutability": "view",
      "type": "function"
    },
    {
      "inputs": [
        {
          "internalType": "uint256",
          "name": "qId",
          "type": "uint256"
        },
        {
          "internalType": "address[]",
          "name": "users",
          "type": "address[]"
        },
        {
          "internalType": "uint256[]",
          "name": "reputations",
          "type": "uint256[]"
        },
        {
          "internalType": "uint256[]",
          "name": "rewards",
          "type": "uint256[]"
        },
        {
          "internalType": "string",
          "name": "answer",
          "type": "string"
        }
      ],
      "name": "processQuestion",
      "outputs": [],
      "stateMutability": "nonpayable",
      "type": "function"
    },
    {
      "inputs": [
        {
          "internalType": "uint256",
          "name": "qId",
          "type": "uint256"
        },
        {
          "internalType": "string",
          "name": "sub",
          "type": "string"
        }
      ],
      "name": "submitAnswer",
      "outputs": [],
      "stateMutability": "nonpayable",
      "type": "function"
    },
    {
      "inputs": [],
      "name": "symbol",
      "outputs": [
        {
          "internalType": "string",
          "name": "",
          "type": "string"
        }
      ],
      "stateMutability": "view",
      "type": "function"
    },
    {
      "inputs": [],
      "name": "totalSupply",
      "outputs": [
        {
          "internalType": "uint256",
          "name": "",
          "type": "uint256"
        }
      ],
      "stateMutability": "view",
      "type": "function"
    },
    {
      "inputs": [
        {
          "internalType": "address",
          "name": "recipient",
          "type": "address"
        },
        {
          "internalType": "uint256",
          "name": "amount",
          "type": "uint256"
        }
      ],
      "name": "transfer",
      "outputs": [
        {
          "internalType": "bool",
          "name": "",
          "type": "bool"
        }
      ],
      "stateMutability": "nonpayable",
      "type": "function"
    },
    {
      "inputs": [
        {
          "internalType": "address",
          "name": "sender",
          "type": "address"
        },
        {
          "internalType": "address",
          "name": "recipient",
          "type": "address"
        },
        {
          "internalType": "uint256",
          "name": "amount",
          "type": "uint256"
        }
      ],
      "name": "transferFrom",
      "outputs": [
        {
          "internalType": "bool",
          "name": "",
          "type": "bool"
        }
      ],
      "stateMutability": "nonpayable",
      "type": "function"
    }
  ],
  "bytecode": "0x60806040523480156200001157600080fd5b506040516200528c3803806200528c8339818101604052810190620000379190620002e1565b336000806101000a81548173ffffffffffffffffffffffffffffffffffffffff021916908373ffffffffffffffffffffffffffffffffffffffff1602179055506040516200008590620001a3565b604051809103906000f080158015620000a2573d6000803e3d6000fd5b50600160006101000a81548173ffffffffffffffffffffffffffffffffffffffff021916908373ffffffffffffffffffffffffffffffffffffffff160217905550604051620000f190620001b1565b604051809103906000f0801580156200010e573d6000803e3d6000fd5b50600260006101000a81548173ffffffffffffffffffffffffffffffffffffffff021916908373ffffffffffffffffffffffffffffffffffffffff160217905550826003908051906020019062000167929190620001bf565b50816004908051906020019062000180929190620001bf565b50806005908051906020019062000199929190620001bf565b50505050620004f2565b610295806200387d83390190565b61177a8062003b1283390190565b828054620001cd9062000417565b90600052602060002090601f016020900481019282620001f157600085556200023d565b82601f106200020c57805160ff19168380011785556200023d565b828001600101855582156200023d579182015b828111156200023c5782518255916020019190600101906200021f565b5b5090506200024c919062000250565b5090565b5b808211156200026b57600081600090555060010162000251565b5090565b6000620002866200028084620003ab565b62000382565b9050828152602081018484840111156200029f57600080fd5b620002ac848285620003e1565b509392505050565b600082601f830112620002c657600080fd5b8151620002d88482602086016200026f565b91505092915050565b600080600060608486031215620002f757600080fd5b600084015167ffffffffffffffff8111156200031257600080fd5b6200032086828701620002b4565b935050602084015167ffffffffffffffff8111156200033e57600080fd5b6200034c86828701620002b4565b925050604084015167ffffffffffffffff8111156200036a57600080fd5b6200037886828701620002b4565b9150509250925092565b60006200038e620003a1565b90506200039c82826200044d565b919050565b6000604051905090565b600067ffffffffffffffff821115620003c957620003c8620004b2565b5b620003d482620004e1565b9050602081019050919050565b60005b8381101562000401578082015181840152602081019050620003e4565b8381111562000411576000848401525b50505050565b600060028204905060018216806200043057607f821691505b6020821081141562000447576200044662000483565b5b50919050565b6200045882620004e1565b810181811067ffffffffffffffff821117156200047a5762000479620004b2565b5b80604052505050565b7f4e487b7100000000000000000000000000000000000000000000000000000000600052602260045260246000fd5b7f4e487b7100000000000000000000000000000000000000000000000000000000600052604160045260246000fd5b6000601f19601f8301169050919050565b61337b80620005026000396000f3fe608060405234801561001057600080fd5b50600436106101155760003560e01c806378e0965c116100a2578063a457c2d711610071578063a457c2d7146102f6578063a9059cbb14610326578063b2bdfa7b14610356578063c9616bde14610374578063dd62ed3e1461039057610115565b806378e0965c1461026e5780638aee48d71461028a57806395d89b41146102ba57806397221ab7146102d857610115565b806318160ddd116100e957806318160ddd146101a257806323b872dd146101c0578063313ce567146101f0578063395093511461020e57806370a082311461023e57610115565b8062607a7d1461011a57806301fa3bec1461013857806306fdde0314610154578063095ea7b314610172575b600080fd5b6101226103c0565b60405161012f9190612878565b60405180910390f35b610152600480360381019061014d9190612346565b61044e565b005b61015c6105b9565b6040516101699190612878565b60405180910390f35b61018c6004803603810190610187919061211e565b61064b565b604051610199919061285d565b60405180910390f35b6101aa610669565b6040516101b79190612ae4565b60405180910390f35b6101da60048036038101906101d591906120cf565b610673565b6040516101e7919061285d565b60405180910390f35b6101f861076b565b6040516102059190612b7b565b60405180910390f35b6102286004803603810190610223919061211e565b610770565b604051610235919061285d565b60405180910390f35b6102586004803603810190610253919061206a565b61081c565b6040516102659190612ae4565b60405180910390f35b6102886004803603810190610283919061226f565b610865565b005b6102a4600480360381019061029f919061221d565b610cbe565b6040516102b19190612819565b60405180910390f35b6102c2610e44565b6040516102cf9190612878565b60405180910390f35b6102e0610ed6565b6040516102ed919061283b565b60405180910390f35b610310600480360381019061030b919061211e565b610f82565b60405161031d919061285d565b60405180910390f35b610340600480360381019061033b919061211e565b61106d565b60405161034d919061285d565b60405180910390f35b61035e61108b565b60405161036b91906127d5565b60405180910390f35b61038e600480360381019061038991906121dc565b6110af565b005b6103aa60048036038101906103a59190612093565b61128d565b6040516103b79190612ae4565b60405180910390f35b600380546103cd90612e28565b80601f01602080910402602001604051908101604052809291908181526020018280546103f990612e28565b80156104465780601f1061041b57610100808354040283529160200191610446565b820191906000526020600020905b81548152906001019060200180831161042957829003601f168201915b505050505081565b6000600160009054906101000a900473ffffffffffffffffffffffffffffffffffffffff1673ffffffffffffffffffffffffffffffffffffffff1663db89c044336040518263ffffffff1660e01b81526004016104ab91906127d5565b60206040518083038186803b1580156104c357600080fd5b505afa1580156104d7573d6000803e3d6000fd5b505050506040513d601f19601f820116820180604052508101906104fb9190612246565b9050600260009054906101000a900473ffffffffffffffffffffffffffffffffffffffff1673ffffffffffffffffffffffffffffffffffffffff16633b53b63b843384866040518563ffffffff1660e01b815260040161055e9493929190612aff565b600060405180830381600087803b15801561057857600080fd5b505af115801561058c573d6000803e3d6000fd5b505050506105b46040518060600160405280602881526020016132f760289139338585611314565b505050565b6060600480546105c890612e28565b80601f01602080910402602001604051908101604052809291908181526020018280546105f490612e28565b80156106415780601f1061061657610100808354040283529160200191610641565b820191906000526020600020905b81548152906001019060200180831161062457829003601f168201915b5050505050905090565b600061065f6106586113b6565b84846113be565b6001905092915050565b6000600654905090565b6000610680848484611589565b6000600860008673ffffffffffffffffffffffffffffffffffffffff1673ffffffffffffffffffffffffffffffffffffffff16815260200190815260200160002060006106cb6113b6565b73ffffffffffffffffffffffffffffffffffffffff1673ffffffffffffffffffffffffffffffffffffffff1681526020019081526020016000205490508281101561074b576040517f08c379a000000000000000000000000000000000000000000000000000000000815260040161074290612a04565b60405180910390fd5b61075f856107576113b6565b8584036113be565b60019150509392505050565b600090565b600061081261077d6113b6565b84846008600061078b6113b6565b73ffffffffffffffffffffffffffffffffffffffff1673ffffffffffffffffffffffffffffffffffffffff16815260200190815260200160002060008873ffffffffffffffffffffffffffffffffffffffff1673ffffffffffffffffffffffffffffffffffffffff1681526020019081526020016000205461080d9190612d3b565b6113be565b6001905092915050565b6000600760008373ffffffffffffffffffffffffffffffffffffffff1673ffffffffffffffffffffffffffffffffffffffff168152602001908152602001600020549050919050565b60008054906101000a900473ffffffffffffffffffffffffffffffffffffffff1673ffffffffffffffffffffffffffffffffffffffff163373ffffffffffffffffffffffffffffffffffffffff16146108f3576040517f08c379a00000000000000000000000000000000000000000000000000000000081526004016108ea90612a64565b60405180910390fd5b6109326040518060400160405280601681526020017f70726f63657373696e67205175657374696f6e202573000000000000000000008152508661180d565b6109716040518060400160405280601381526020017f46696e616c20616e737765722069733a20257300000000000000000000000000815250826118a9565b60005b8451811015610c27576109fc6040518060400160405280600881526020017f557365723a2025730000000000000000000000000000000000000000000000008152508683815181106109ef577f4e487b7100000000000000000000000000000000000000000000000000000000600052603260045260246000fd5b6020026020010151611945565b610a86858281518110610a38577f4e487b7100000000000000000000000000000000000000000000000000000000600052603260045260246000fd5b6020026020010151848381518110610a79577f4e487b7100000000000000000000000000000000000000000000000000000000600052603260045260246000fd5b60200260200101516119e1565b600160009054906101000a900473ffffffffffffffffffffffffffffffffffffffff1673ffffffffffffffffffffffffffffffffffffffff1663f5c91a08868381518110610afd577f4e487b7100000000000000000000000000000000000000000000000000000000600052603260045260246000fd5b6020026020010151868481518110610b3e577f4e487b7100000000000000000000000000000000000000000000000000000000600052603260045260246000fd5b60200260200101516040518363ffffffff1660e01b8152600401610b639291906127f0565b600060405180830381600087803b158015610b7d57600080fd5b505af1158015610b91573d6000803e3d6000fd5b50505050610c146040518060400160405280601f81526020017f416e642074686569722072657075746174696f6e206973206e6f773a20257300815250858381518110610c07577f4e487b7100000000000000000000000000000000000000000000000000000000600052603260045260246000fd5b602002602001015161180d565b8080610c1f90612e8b565b915050610974565b50600260009054906101000a900473ffffffffffffffffffffffffffffffffffffffff1673ffffffffffffffffffffffffffffffffffffffff16631d239ef586836040518363ffffffff1660e01b8152600401610c85929190612b4b565b600060405180830381600087803b158015610c9f57600080fd5b505af1158015610cb3573d6000803e3d6000fd5b505050505050505050565b606060008054906101000a900473ffffffffffffffffffffffffffffffffffffffff1673ffffffffffffffffffffffffffffffffffffffff163373ffffffffffffffffffffffffffffffffffffffff1614610d4e576040517f08c379a0000000000000000000000000000000000000000000000000000000008152600401610d4590612a24565b60405180910390fd5b610d8d6040518060400160405280601e81526020017f636865636b20616e737765727320666f72207175657374696f6e3a20257300008152508361180d565b600260009054906101000a900473ffffffffffffffffffffffffffffffffffffffff1673ffffffffffffffffffffffffffffffffffffffff166394b99f20836040518263ffffffff1660e01b8152600401610de89190612ae4565b60006040518083038186803b158015610e0057600080fd5b505afa158015610e14573d6000803e3d6000fd5b505050506040513d6000823e3d601f19601f82011682018060405250810190610e3d919061215a565b9050919050565b606060058054610e5390612e28565b80601f0160208091040260200160405190810160405280929190818152602001828054610e7f90612e28565b8015610ecc5780601f10610ea157610100808354040283529160200191610ecc565b820191906000526020600020905b815481529060010190602001808311610eaf57829003601f168201915b5050505050905090565b6060600260009054906101000a900473ffffffffffffffffffffffffffffffffffffffff1673ffffffffffffffffffffffffffffffffffffffff166356fe5bb06040518163ffffffff1660e01b815260040160006040518083038186803b158015610f4057600080fd5b505afa158015610f54573d6000803e3d6000fd5b505050506040513d6000823e3d601f19601f82011682018060405250810190610f7d919061219b565b905090565b60008060086000610f916113b6565b73ffffffffffffffffffffffffffffffffffffffff1673ffffffffffffffffffffffffffffffffffffffff16815260200190815260200160002060008573ffffffffffffffffffffffffffffffffffffffff1673ffffffffffffffffffffffffffffffffffffffff1681526020019081526020016000205490508281101561104e576040517f08c379a000000000000000000000000000000000000000000000000000000000815260040161104590612aa4565b60405180910390fd5b6110626110596113b6565b858584036113be565b600191505092915050565b600061108161107a6113b6565b8484611589565b6001905092915050565b60008054906101000a900473ffffffffffffffffffffffffffffffffffffffff1681565b60008054906101000a900473ffffffffffffffffffffffffffffffffffffffff1673ffffffffffffffffffffffffffffffffffffffff163373ffffffffffffffffffffffffffffffffffffffff161461113d576040517f08c379a0000000000000000000000000000000000000000000000000000000008152600401611134906129e4565b60405180910390fd5b61119c6040518060400160405280600a81526020017f5f6f776e65723a2025730000000000000000000000000000000000000000000081525060008054906101000a900473ffffffffffffffffffffffffffffffffffffffff16611945565b6111db6040518060400160405280600e81526020017f6d73672e73656e6465723a20257300000000000000000000000000000000000081525033611945565b6111fd60405180606001604052806027815260200161331f60279139826118a9565b600260009054906101000a900473ffffffffffffffffffffffffffffffffffffffff1673ffffffffffffffffffffffffffffffffffffffff1663c9616bde826040518263ffffffff1660e01b81526004016112589190612878565b600060405180830381600087803b15801561127257600080fd5b505af1158015611286573d6000803e3d6000fd5b5050505050565b6000600860008473ffffffffffffffffffffffffffffffffffffffff1673ffffffffffffffffffffffffffffffffffffffff16815260200190815260200160002060008373ffffffffffffffffffffffffffffffffffffffff1673ffffffffffffffffffffffffffffffffffffffff16815260200190815260200160002054905092915050565b6113b08484848460405160240161132e94939291906128ca565b6040516020818303038152906040527f4c55f234000000000000000000000000000000000000000000000000000000007bffffffffffffffffffffffffffffffffffffffffffffffffffffffff19166020820180517bffffffffffffffffffffffffffffffffffffffffffffffffffffffff8381831617835250505050611b42565b50505050565b600033905090565b600073ffffffffffffffffffffffffffffffffffffffff168373ffffffffffffffffffffffffffffffffffffffff16141561142e576040517f08c379a000000000000000000000000000000000000000000000000000000000815260040161142590612a84565b60405180910390fd5b600073ffffffffffffffffffffffffffffffffffffffff168273ffffffffffffffffffffffffffffffffffffffff16141561149e576040517f08c379a0000000000000000000000000000000000000000000000000000000008152600401611495906129a4565b60405180910390fd5b80600860008573ffffffffffffffffffffffffffffffffffffffff1673ffffffffffffffffffffffffffffffffffffffff16815260200190815260200160002060008473ffffffffffffffffffffffffffffffffffffffff1673ffffffffffffffffffffffffffffffffffffffff168152602001908152602001600020819055508173ffffffffffffffffffffffffffffffffffffffff168373ffffffffffffffffffffffffffffffffffffffff167f8c5be1e5ebec7d5bd14f71427d1e84f3dd0314c0f7b2291e5b200ac8c7c3b9258360405161157c9190612ae4565b60405180910390a3505050565b600073ffffffffffffffffffffffffffffffffffffffff168373ffffffffffffffffffffffffffffffffffffffff1614156115f9576040517f08c379a00000000000000000000000000000000000000000000000000000000081526004016115f090612a44565b60405180910390fd5b600073ffffffffffffffffffffffffffffffffffffffff168273ffffffffffffffffffffffffffffffffffffffff161415611669576040517f08c379a000000000000000000000000000000000000000000000000000000000815260040161166090612984565b60405180910390fd5b611674838383611b6b565b6000600760008573ffffffffffffffffffffffffffffffffffffffff1673ffffffffffffffffffffffffffffffffffffffff168152602001908152602001600020549050818110156116fb576040517f08c379a00000000000000000000000000000000000000000000000000000000081526004016116f2906129c4565b60405180910390fd5b818103600760008673ffffffffffffffffffffffffffffffffffffffff1673ffffffffffffffffffffffffffffffffffffffff1681526020019081526020016000208190555081600760008573ffffffffffffffffffffffffffffffffffffffff1673ffffffffffffffffffffffffffffffffffffffff16815260200190815260200160002060008282546117909190612d3b565b925050819055508273ffffffffffffffffffffffffffffffffffffffff168473ffffffffffffffffffffffffffffffffffffffff167fddf252ad1be2c89b69c2b068fc378daa952ba7f163c4a11628f55a4df523b3ef846040516117f49190612ae4565b60405180910390a3611807848484611b70565b50505050565b6118a58282604051602401611823929190612954565b6040516020818303038152906040527f9710a9d0000000000000000000000000000000000000000000000000000000007bffffffffffffffffffffffffffffffffffffffffffffffffffffffff19166020820180517bffffffffffffffffffffffffffffffffffffffffffffffffffffffff8381831617835250505050611b42565b5050565b61194182826040516024016118bf92919061291d565b6040516020818303038152906040527f4b5c4277000000000000000000000000000000000000000000000000000000007bffffffffffffffffffffffffffffffffffffffffffffffffffffffff19166020820180517bffffffffffffffffffffffffffffffffffffffffffffffffffffffff8381831617835250505050611b42565b5050565b6119dd828260405160240161195b92919061289a565b6040516020818303038152906040527f319af333000000000000000000000000000000000000000000000000000000007bffffffffffffffffffffffffffffffffffffffffffffffffffffffff19166020820180517bffffffffffffffffffffffffffffffffffffffffffffffffffffffff8381831617835250505050611b42565b5050565b600073ffffffffffffffffffffffffffffffffffffffff168273ffffffffffffffffffffffffffffffffffffffff161415611a51576040517f08c379a0000000000000000000000000000000000000000000000000000000008152600401611a4890612ac4565b60405180910390fd5b611a5d60008383611b6b565b8060066000828254611a6f9190612d3b565b9250508190555080600760008473ffffffffffffffffffffffffffffffffffffffff1673ffffffffffffffffffffffffffffffffffffffff1681526020019081526020016000206000828254611ac59190612d3b565b925050819055508173ffffffffffffffffffffffffffffffffffffffff16600073ffffffffffffffffffffffffffffffffffffffff167fddf252ad1be2c89b69c2b068fc378daa952ba7f163c4a11628f55a4df523b3ef83604051611b2a9190612ae4565b60405180910390a3611b3e60008383611b70565b5050565b60008151905060006a636f6e736f6c652e6c6f679050602083016000808483855afa5050505050565b505050565b505050565b6000611b88611b8384612bbb565b612b96565b90508083825260208201905082856020860282011115611ba757600080fd5b60005b85811015611bd75781611bbd8882611dd5565b845260208401935060208301925050600181019050611baa565b5050509392505050565b6000611bf4611bef84612be7565b612b96565b90508083825260208201905082856020860282011115611c1357600080fd5b60005b85811015611c5d57815167ffffffffffffffff811115611c3557600080fd5b808601611c428982611f10565b85526020850194506020840193505050600181019050611c16565b5050509392505050565b6000611c7a611c7584612c13565b612b96565b90508083825260208201905082856020860282011115611c9957600080fd5b60005b85811015611ce357815167ffffffffffffffff811115611cbb57600080fd5b808601611cc88982611f88565b85526020850194506020840193505050600181019050611c9c565b5050509392505050565b6000611d00611cfb84612c3f565b612b96565b90508083825260208201905082856020860282011115611d1f57600080fd5b60005b85811015611d4f5781611d358882612040565b845260208401935060208301925050600181019050611d22565b5050509392505050565b6000611d6c611d6784612c6b565b612b96565b905082815260208101848484011115611d8457600080fd5b611d8f848285612de6565b509392505050565b6000611daa611da584612c6b565b612b96565b905082815260208101848484011115611dc257600080fd5b611dcd848285612df5565b509392505050565b600081359050611de4816132b1565b92915050565b600081519050611df9816132b1565b92915050565b600082601f830112611e1057600080fd5b8135611e20848260208601611b75565b91505092915050565b600082601f830112611e3a57600080fd5b8151611e4a848260208601611be1565b91505092915050565b600082601f830112611e6457600080fd5b8151611e74848260208601611c67565b91505092915050565b600082601f830112611e8e57600080fd5b8135611e9e848260208601611ced565b91505092915050565b600081519050611eb6816132c8565b92915050565b600082601f830112611ecd57600080fd5b8135611edd848260208601611d59565b91505092915050565b600082601f830112611ef757600080fd5b8151611f07848260208601611d97565b91505092915050565b600060608284031215611f2257600080fd5b611f2c6060612b96565b90506000611f3c84828501611dea565b6000830152506020611f5084828501612055565b602083015250604082015167ffffffffffffffff811115611f7057600080fd5b611f7c84828501611ee6565b60408301525092915050565b600060a08284031215611f9a57600080fd5b611fa460a0612b96565b90506000611fb484828501612055565b6000830152506020611fc884828501611ea7565b602083015250604082015167ffffffffffffffff811115611fe857600080fd5b611ff484828501611ee6565b604083015250606061200884828501612055565b606083015250608082015167ffffffffffffffff81111561202857600080fd5b61203484828501611ee6565b60808301525092915050565b60008135905061204f816132df565b92915050565b600081519050612064816132df565b92915050565b60006020828403121561207c57600080fd5b600061208a84828501611dd5565b91505092915050565b600080604083850312156120a657600080fd5b60006120b485828601611dd5565b92505060206120c585828601611dd5565b9150509250929050565b6000806000606084860312156120e457600080fd5b60006120f286828701611dd5565b935050602061210386828701611dd5565b925050604061211486828701612040565b9150509250925092565b6000806040838503121561213157600080fd5b600061213f85828601611dd5565b925050602061215085828601612040565b9150509250929050565b60006020828403121561216c57600080fd5b600082015167ffffffffffffffff81111561218657600080fd5b61219284828501611e29565b91505092915050565b6000602082840312156121ad57600080fd5b600082015167ffffffffffffffff8111156121c757600080fd5b6121d384828501611e53565b91505092915050565b6000602082840312156121ee57600080fd5b600082013567ffffffffffffffff81111561220857600080fd5b61221484828501611ebc565b91505092915050565b60006020828403121561222f57600080fd5b600061223d84828501612040565b91505092915050565b60006020828403121561225857600080fd5b600061226684828501612055565b91505092915050565b600080600080600060a0868803121561228757600080fd5b600061229588828901612040565b955050602086013567ffffffffffffffff8111156122b257600080fd5b6122be88828901611dff565b945050604086013567ffffffffffffffff8111156122db57600080fd5b6122e788828901611e7d565b935050606086013567ffffffffffffffff81111561230457600080fd5b61231088828901611e7d565b925050608086013567ffffffffffffffff81111561232d57600080fd5b61233988828901611ebc565b9150509295509295909350565b6000806040838503121561235957600080fd5b600061236785828601612040565b925050602083013567ffffffffffffffff81111561238457600080fd5b61239085828601611ebc565b9150509250929050565b60006123a683836126db565b905092915050565b60006123ba838361272b565b905092915050565b6123cb81612d91565b82525050565b6123da81612d91565b82525050565b60006123eb82612cbc565b6123f58185612cf7565b93508360208202850161240785612c9c565b8060005b858110156124435784840389528151612424858261239a565b945061242f83612cdd565b925060208a0199505060018101905061240b565b50829750879550505050505092915050565b600061246082612cc7565b61246a8185612d08565b93508360208202850161247c85612cac565b8060005b858110156124b8578484038952815161249985826123ae565b94506124a483612cea565b925060208a01995050600181019050612480565b50829750879550505050505092915050565b6124d381612da3565b82525050565b6124e281612da3565b82525050565b60006124f382612cd2565b6124fd8185612d19565b935061250d818560208601612df5565b61251681612f61565b840191505092915050565b600061252c82612cd2565b6125368185612d2a565b9350612546818560208601612df5565b61254f81612f61565b840191505092915050565b6000612567602383612d2a565b915061257282612f72565b604082019050919050565b600061258a602283612d2a565b915061259582612fc1565b604082019050919050565b60006125ad602683612d2a565b91506125b882613010565b604082019050919050565b60006125d0602b83612d2a565b91506125db8261305f565b604082019050919050565b60006125f3602883612d2a565b91506125fe826130ae565b604082019050919050565b6000612616602e83612d2a565b9150612621826130fd565b604082019050919050565b6000612639602583612d2a565b91506126448261314c565b604082019050919050565b600061265c602b83612d2a565b91506126678261319b565b604082019050919050565b600061267f602483612d2a565b915061268a826131ea565b604082019050919050565b60006126a2602583612d2a565b91506126ad82613239565b604082019050919050565b60006126c5601f83612d2a565b91506126d082613288565b602082019050919050565b60006060830160008301516126f360008601826123c2565b50602083015161270660208601826127a8565b506040830151848203604086015261271e82826124e8565b9150508091505092915050565b600060a08301600083015161274360008601826127a8565b50602083015161275660208601826124ca565b506040830151848203604086015261276e82826124e8565b915050606083015161278360608601826127a8565b506080830151848203608086015261279b82826124e8565b9150508091505092915050565b6127b181612dcf565b82525050565b6127c081612dcf565b82525050565b6127cf81612dd9565b82525050565b60006020820190506127ea60008301846123d1565b92915050565b600060408201905061280560008301856123d1565b61281260208301846127b7565b9392505050565b6000602082019050818103600083015261283381846123e0565b905092915050565b600060208201905081810360008301526128558184612455565b905092915050565b600060208201905061287260008301846124d9565b92915050565b600060208201905081810360008301526128928184612521565b905092915050565b600060408201905081810360008301526128b48185612521565b90506128c360208301846123d1565b9392505050565b600060808201905081810360008301526128e48187612521565b90506128f360208301866123d1565b61290060408301856127b7565b81810360608301526129128184612521565b905095945050505050565b600060408201905081810360008301526129378185612521565b9050818103602083015261294b8184612521565b90509392505050565b6000604082019050818103600083015261296e8185612521565b905061297d60208301846127b7565b9392505050565b6000602082019050818103600083015261299d8161255a565b9050919050565b600060208201905081810360008301526129bd8161257d565b9050919050565b600060208201905081810360008301526129dd816125a0565b9050919050565b600060208201905081810360008301526129fd816125c3565b9050919050565b60006020820190508181036000830152612a1d816125e6565b9050919050565b60006020820190508181036000830152612a3d81612609565b9050919050565b60006020820190508181036000830152612a5d8161262c565b9050919050565b60006020820190508181036000830152612a7d8161264f565b9050919050565b60006020820190508181036000830152612a9d81612672565b9050919050565b60006020820190508181036000830152612abd81612695565b9050919050565b60006020820190508181036000830152612add816126b8565b9050919050565b6000602082019050612af960008301846127b7565b92915050565b6000608082019050612b1460008301876127b7565b612b2160208301866123d1565b612b2e60408301856127b7565b8181036060830152612b408184612521565b905095945050505050565b6000604082019050612b6060008301856127b7565b8181036020830152612b728184612521565b90509392505050565b6000602082019050612b9060008301846127c6565b92915050565b6000612ba0612bb1565b9050612bac8282612e5a565b919050565b6000604051905090565b600067ffffffffffffffff821115612bd657612bd5612f32565b5b602082029050602081019050919050565b600067ffffffffffffffff821115612c0257612c01612f32565b5b602082029050602081019050919050565b600067ffffffffffffffff821115612c2e57612c2d612f32565b5b602082029050602081019050919050565b600067ffffffffffffffff821115612c5a57612c59612f32565b5b602082029050602081019050919050565b600067ffffffffffffffff821115612c8657612c85612f32565b5b612c8f82612f61565b9050602081019050919050565b6000819050602082019050919050565b6000819050602082019050919050565b600081519050919050565b600081519050919050565b600081519050919050565b6000602082019050919050565b6000602082019050919050565b600082825260208201905092915050565b600082825260208201905092915050565b600082825260208201905092915050565b600082825260208201905092915050565b6000612d4682612dcf565b9150612d5183612dcf565b9250827fffffffffffffffffffffffffffffffffffffffffffffffffffffffffffffffff03821115612d8657612d85612ed4565b5b828201905092915050565b6000612d9c82612daf565b9050919050565b60008115159050919050565b600073ffffffffffffffffffffffffffffffffffffffff82169050919050565b6000819050919050565b600060ff82169050919050565b82818337600083830152505050565b60005b83811015612e13578082015181840152602081019050612df8565b83811115612e22576000848401525b50505050565b60006002820490506001821680612e4057607f821691505b60208210811415612e5457612e53612f03565b5b50919050565b612e6382612f61565b810181811067ffffffffffffffff82111715612e8257612e81612f32565b5b80604052505050565b6000612e9682612dcf565b91507fffffffffffffffffffffffffffffffffffffffffffffffffffffffffffffffff821415612ec957612ec8612ed4565b5b600182019050919050565b7f4e487b7100000000000000000000000000000000000000000000000000000000600052601160045260246000fd5b7f4e487b7100000000000000000000000000000000000000000000000000000000600052602260045260246000fd5b7f4e487b7100000000000000000000000000000000000000000000000000000000600052604160045260246000fd5b6000601f19601f8301169050919050565b7f45524332303a207472616e7366657220746f20746865207a65726f206164647260008201527f6573730000000000000000000000000000000000000000000000000000000000602082015250565b7f45524332303a20617070726f766520746f20746865207a65726f20616464726560008201527f7373000000000000000000000000000000000000000000000000000000000000602082015250565b7f45524332303a207472616e7366657220616d6f756e742065786365656473206260008201527f616c616e63650000000000000000000000000000000000000000000000000000602082015250565b7f4f6e6c79207468652061646d696e6973747261746f722063616e20637265617460008201527f65207175657374696f6e73000000000000000000000000000000000000000000602082015250565b7f45524332303a207472616e7366657220616d6f756e742065786365656473206160008201527f6c6c6f77616e6365000000000000000000000000000000000000000000000000602082015250565b7f4f6e6c79207468652061646d696e6973747261746f722063616e20726571756560008201527f7374207375626d697373696f6e73000000000000000000000000000000000000602082015250565b7f45524332303a207472616e736665722066726f6d20746865207a65726f20616460008201527f6472657373000000000000000000000000000000000000000000000000000000602082015250565b7f4f6e6c79207468652061646d696e6973747261746f722063616e20616c6c6f6360008201527f6174652072657761726473000000000000000000000000000000000000000000602082015250565b7f45524332303a20617070726f76652066726f6d20746865207a65726f2061646460008201527f7265737300000000000000000000000000000000000000000000000000000000602082015250565b7f45524332303a2064656372656173656420616c6c6f77616e63652062656c6f7760008201527f207a65726f000000000000000000000000000000000000000000000000000000602082015250565b7f45524332303a206d696e7420746f20746865207a65726f206164647265737300600082015250565b6132ba81612d91565b81146132c557600080fd5b50565b6132d181612da3565b81146132dc57600080fd5b50565b6132e881612dcf565b81146132f357600080fd5b5056fe557365723a2025732c205175657374696f6e49443a2025732c205375626d697373696f6e3a202573696e697469616c6973696e67207175657374696f6e2077697468207374696d756c75733a202573a2646970667358221220520e5820fcb591bb55b7207c8ec553195af125fca4fdc318dfe3731f554d803a64736f6c63430008040033608060405234801561001057600080fd5b50610275806100206000396000f3fe608060405234801561001057600080fd5b50600436106100365760003560e01c8063db89c0441461003b578063f5c91a081461006b575b600080fd5b61005560048036038101906100509190610146565b610087565b60405161006291906101ba565b60405180910390f35b6100856004803603810190610080919061016f565b6100d2565b005b60008060008373ffffffffffffffffffffffffffffffffffffffff1673ffffffffffffffffffffffffffffffffffffffff168152602001908152602001600020600001549050919050565b806000808473ffffffffffffffffffffffffffffffffffffffff1673ffffffffffffffffffffffffffffffffffffffff168152602001908152602001600020600001819055505050565b60008135905061012b81610211565b92915050565b60008135905061014081610228565b92915050565b60006020828403121561015857600080fd5b60006101668482850161011c565b91505092915050565b6000806040838503121561018257600080fd5b60006101908582860161011c565b92505060206101a185828601610131565b9150509250929050565b6101b481610207565b82525050565b60006020820190506101cf60008301846101ab565b92915050565b60006101e0826101e7565b9050919050565b600073ffffffffffffffffffffffffffffffffffffffff82169050919050565b6000819050919050565b61021a816101d5565b811461022557600080fd5b50565b61023181610207565b811461023c57600080fd5b5056fea26469706673582212208ed5858775c73925235ecc500698c619505d00e6096135449294855d656c91ad64736f6c6343000804003360806040523480156200001157600080fd5b506200005d6040518060400160405280601981526020017f5175657374696f6e20696e7374616e63652063726561746564000000000000008152506200007360201b620009611760201c565b6000600281905550600060038190555062000207565b62000113816040516024016200008a919062000180565b6040516020818303038152906040527f41304fac000000000000000000000000000000000000000000000000000000007bffffffffffffffffffffffffffffffffffffffffffffffffffffffff19166020820180517bffffffffffffffffffffffffffffffffffffffffffffffffffffffff83818316178352505050506200011660201b60201c565b50565b60008151905060006a636f6e736f6c652e6c6f679050602083016000808483855afa5050505050565b60006200014c82620001a4565b620001588185620001af565b93506200016a818560208601620001c0565b6200017581620001f6565b840191505092915050565b600060208201905081810360008301526200019c81846200013f565b905092915050565b600081519050919050565b600082825260208201905092915050565b60005b83811015620001e0578082015181840152602081019050620001c3565b83811115620001f0576000848401525b50505050565b6000601f19601f8301169050919050565b61156380620002176000396000f3fe608060405234801561001057600080fd5b50600436106100575760003560e01c80631d239ef51461005c5780633b53b63b1461007857806356fe5bb01461009457806394b99f20146100b2578063c9616bde146100e2575b600080fd5b61007660048036038101906100719190610d41565b6100fe565b005b610092600480360381019061008d9190610cc6565b610172565b005b61009c610324565b6040516100a9919061108a565b60405180910390f35b6100cc60048036038101906100c79190610c9d565b610582565b6040516100d99190611068565b60405180910390f35b6100fc60048036038101906100f79190610c5c565b6107b0565b005b600080600084815260200190815260200160002060010160006101000a81548160ff021916908315150217905550806000808481526020019081526020016000206004019080519060200190610155929190610abf565b5060036000815480929190610169906112ed565b91905055505050565b60025484106101b6576040517f08c379a00000000000000000000000000000000000000000000000000000000081526004016101ad9061111e565b60405180910390fd5b60008085815260200190815260200160002060010160009054906101000a900460ff16610218576040517f08c379a000000000000000000000000000000000000000000000000000000000815260040161020f906110fe565b60405180910390fd5b60405180606001604052808473ffffffffffffffffffffffffffffffffffffffff1681526020018381526020018281525060016000868152602001908152602001600020600080600088815260200190815260200160002060030154815260200190815260200160002060008201518160000160006101000a81548173ffffffffffffffffffffffffffffffffffffffff021916908373ffffffffffffffffffffffffffffffffffffffff1602179055506020820151816001015560408201518160020190805190602001906102ef929190610abf565b5090505060008085815260200190815260200160002060030160008154809291906103199061137a565b919050555050505050565b6060600060025467ffffffffffffffff81111561036a577f4e487b7100000000000000000000000000000000000000000000000000000000600052604160045260246000fd5b6040519080825280602002602001820160405280156103a357816020015b610390610b45565b8152602001906001900390816103885790505b50905060005b60025481101561057a576000808281526020019081526020016000206040518060a0016040529081600082015481526020016001820160009054906101000a900460ff1615151515815260200160028201805461040590611317565b80601f016020809104026020016040519081016040528092919081815260200182805461043190611317565b801561047e5780601f106104535761010080835404028352916020019161047e565b820191906000526020600020905b81548152906001019060200180831161046157829003601f168201915b50505050508152602001600382015481526020016004820180546104a190611317565b80601f01602080910402602001604051908101604052809291908181526020018280546104cd90611317565b801561051a5780601f106104ef5761010080835404028352916020019161051a565b820191906000526020600020905b8154815290600101906020018083116104fd57829003601f168201915b50505050508152505082828151811061055c577f4e487b7100000000000000000000000000000000000000000000000000000000600052603260045260246000fd5b602002602001018190525080806105729061137a565b9150506103a9565b508091505090565b6060600080600084815260200190815260200160002060030154905060008167ffffffffffffffff8111156105e0577f4e487b7100000000000000000000000000000000000000000000000000000000600052604160045260246000fd5b60405190808252806020026020018201604052801561061957816020015b610606610b76565b8152602001906001900390816105fe5790505b50905060005b828110156107a55760006001600087815260200190815260200160002060008381526020019081526020016000209050806040518060600160405290816000820160009054906101000a900473ffffffffffffffffffffffffffffffffffffffff1673ffffffffffffffffffffffffffffffffffffffff1673ffffffffffffffffffffffffffffffffffffffff168152602001600182015481526020016002820180546106cb90611317565b80601f01602080910402602001604051908101604052809291908181526020018280546106f790611317565b80156107445780601f1061071957610100808354040283529160200191610744565b820191906000526020600020905b81548152906001019060200180831161072757829003601f168201915b505050505081525050838381518110610786577f4e487b7100000000000000000000000000000000000000000000000000000000600052603260045260246000fd5b602002602001018190525050808061079d9061137a565b91505061061f565b508092505050919050565b6107f16040518060400160405280600e81526020017f7175657374696f6e49443a2025730000000000000000000000000000000000008152506002546109fa565b6040518060a001604052806002548152602001600115158152602001828152602001600081526020016040518060200160405280600081525081525060008060025481526020019081526020016000206000820151816000015560208201518160010160006101000a81548160ff0219169083151502179055506040820151816002019080519060200190610887929190610abf565b506060820151816003015560808201518160040190805190602001906108ae929190610abf565b509050507fa5fbefdc56bf0d2d586a82a9f50784dfe29ae6d3cfe3e0491131259d4f2042ee600254826040516108e592919061113e565b60405180910390a1600260008154809291906109009061137a565b9190505550600360008154809291906109189061137a565b919050555061095e6040518060400160405280601281526020017f5175657374696f6e20636f756e743a20257300000000000000000000000000008152506002546109fa565b50565b6109f78160405160240161097591906110ac565b6040516020818303038152906040527f41304fac000000000000000000000000000000000000000000000000000000007bffffffffffffffffffffffffffffffffffffffffffffffffffffffff19166020820180517bffffffffffffffffffffffffffffffffffffffffffffffffffffffff8381831617835250505050610a96565b50565b610a928282604051602401610a109291906110ce565b6040516020818303038152906040527f9710a9d0000000000000000000000000000000000000000000000000000000007bffffffffffffffffffffffffffffffffffffffffffffffffffffffff19166020820180517bffffffffffffffffffffffffffffffffffffffffffffffffffffffff8381831617835250505050610a96565b5050565b60008151905060006a636f6e736f6c652e6c6f679050602083016000808483855afa5050505050565b828054610acb90611317565b90600052602060002090601f016020900481019282610aed5760008555610b34565b82601f10610b0657805160ff1916838001178555610b34565b82800160010185558215610b34579182015b82811115610b33578251825591602001919060010190610b18565b5b509050610b419190610bad565b5090565b6040518060a00160405280600081526020016000151581526020016060815260200160008152602001606081525090565b6040518060600160405280600073ffffffffffffffffffffffffffffffffffffffff16815260200160008152602001606081525090565b5b80821115610bc6576000816000905550600101610bae565b5090565b6000610bdd610bd884611193565b61116e565b905082815260208101848484011115610bf557600080fd5b610c008482856112ab565b509392505050565b600081359050610c17816114ff565b92915050565b600082601f830112610c2e57600080fd5b8135610c3e848260208601610bca565b91505092915050565b600081359050610c5681611516565b92915050565b600060208284031215610c6e57600080fd5b600082013567ffffffffffffffff811115610c8857600080fd5b610c9484828501610c1d565b91505092915050565b600060208284031215610caf57600080fd5b6000610cbd84828501610c47565b91505092915050565b60008060008060808587031215610cdc57600080fd5b6000610cea87828801610c47565b9450506020610cfb87828801610c08565b9350506040610d0c87828801610c47565b925050606085013567ffffffffffffffff811115610d2957600080fd5b610d3587828801610c1d565b91505092959194509250565b60008060408385031215610d5457600080fd5b6000610d6285828601610c47565b925050602083013567ffffffffffffffff811115610d7f57600080fd5b610d8b85828601610c1d565b9150509250929050565b6000610da18383610f7d565b905092915050565b6000610db58383610fcd565b905092915050565b610dc681611263565b82525050565b6000610dd7826111e4565b610de1818561121f565b935083602082028501610df3856111c4565b8060005b85811015610e2f5784840389528151610e108582610d95565b9450610e1b83611205565b925060208a01995050600181019050610df7565b50829750879550505050505092915050565b6000610e4c826111ef565b610e568185611230565b935083602082028501610e68856111d4565b8060005b85811015610ea45784840389528151610e858582610da9565b9450610e9083611212565b925060208a01995050600181019050610e6c565b50829750879550505050505092915050565b610ebf81611275565b82525050565b6000610ed0826111fa565b610eda8185611241565b9350610eea8185602086016112ba565b610ef381611450565b840191505092915050565b6000610f09826111fa565b610f138185611252565b9350610f238185602086016112ba565b610f2c81611450565b840191505092915050565b6000610f44602e83611252565b9150610f4f82611461565b604082019050919050565b6000610f67602d83611252565b9150610f72826114b0565b604082019050919050565b6000606083016000830151610f956000860182610dbd565b506020830151610fa8602086018261104a565b5060408301518482036040860152610fc08282610ec5565b9150508091505092915050565b600060a083016000830151610fe5600086018261104a565b506020830151610ff86020860182610eb6565b50604083015184820360408601526110108282610ec5565b9150506060830151611025606086018261104a565b506080830151848203608086015261103d8282610ec5565b9150508091505092915050565b611053816112a1565b82525050565b611062816112a1565b82525050565b600060208201905081810360008301526110828184610dcc565b905092915050565b600060208201905081810360008301526110a48184610e41565b905092915050565b600060208201905081810360008301526110c68184610efe565b905092915050565b600060408201905081810360008301526110e88185610efe565b90506110f76020830184611059565b9392505050565b6000602082019050818103600083015261111781610f37565b9050919050565b6000602082019050818103600083015261113781610f5a565b9050919050565b60006040820190506111536000830185611059565b81810360208301526111658184610efe565b90509392505050565b6000611178611189565b90506111848282611349565b919050565b6000604051905090565b600067ffffffffffffffff8211156111ae576111ad611421565b5b6111b782611450565b9050602081019050919050565b6000819050602082019050919050565b6000819050602082019050919050565b600081519050919050565b600081519050919050565b600081519050919050565b6000602082019050919050565b6000602082019050919050565b600082825260208201905092915050565b600082825260208201905092915050565b600082825260208201905092915050565b600082825260208201905092915050565b600061126e82611281565b9050919050565b60008115159050919050565b600073ffffffffffffffffffffffffffffffffffffffff82169050919050565b6000819050919050565b82818337600083830152505050565b60005b838110156112d85780820151818401526020810190506112bd565b838111156112e7576000848401525b50505050565b60006112f8826112a1565b9150600082141561130c5761130b6113c3565b5b600182039050919050565b6000600282049050600182168061132f57607f821691505b60208210811415611343576113426113f2565b5b50919050565b61135282611450565b810181811067ffffffffffffffff8211171561137157611370611421565b5b80604052505050565b6000611385826112a1565b91507fffffffffffffffffffffffffffffffffffffffffffffffffffffffffffffffff8214156113b8576113b76113c3565b5b600182019050919050565b7f4e487b7100000000000000000000000000000000000000000000000000000000600052601160045260246000fd5b7f4e487b7100000000000000000000000000000000000000000000000000000000600052602260045260246000fd5b7f4e487b7100000000000000000000000000000000000000000000000000000000600052604160045260246000fd5b6000601f19601f8301169050919050565b7f496e76616c6964207175657374696f6e204944202d207175657374696f6e206860008201527f6173206265656e20636c6f736564000000000000000000000000000000000000602082015250565b7f496e76616c6964207175657374696f6e204944202d207175657374696f6e206460008201527f6f6573206e6f7420657869737400000000000000000000000000000000000000602082015250565b61150881611263565b811461151357600080fd5b50565b61151f816112a1565b811461152a57600080fd5b5056fea26469706673582212204fd3d3148d89b00cef60b0a470b974e25b0b7c936eda08107289f8dba76110ee64736f6c63430008040033",
  "linkReferences": {},
  "deployedLinkReferences": {}
}