{
  "_format": "hh-sol-artifact-1",
  "contractName": "Reputations",
  "sourceName": "contracts/Modules/Reputations.sol",
  "abi": [
    {
      "inputs": [
        {
          "internalType": "address",
          "name": "user",
          "type": "address"
        }
      ],
      "name": "reputationOf",
      "outputs": [
        {
          "internalType": "uint256",
          "name": "",
          "type": "uint256"
        }
      ],
      "stateMutability": "view",
      "type": "function"
    },
    {
      "inputs": [
        {
          "internalType": "address",
          "name": "user",
          "type": "address"
        },
        {
          "internalType": "uint256",
          "name": "reputation",
          "type": "uint256"
        }
      ],
      "name": "updateReputation",
      "outputs": [],
      "stateMutability": "nonpayable",
      "type": "function"
    }
  ],
  "bytecode": "0x608060405234801561001057600080fd5b50610275806100206000396000f3fe608060405234801561001057600080fd5b50600436106100365760003560e01c8063db89c0441461003b578063f5c91a081461006b575b600080fd5b61005560048036038101906100509190610146565b610087565b60405161006291906101ba565b60405180910390f35b6100856004803603810190610080919061016f565b6100d2565b005b60008060008373ffffffffffffffffffffffffffffffffffffffff1673ffffffffffffffffffffffffffffffffffffffff168152602001908152602001600020600001549050919050565b806000808473ffffffffffffffffffffffffffffffffffffffff1673ffffffffffffffffffffffffffffffffffffffff168152602001908152602001600020600001819055505050565b60008135905061012b81610211565b92915050565b60008135905061014081610228565b92915050565b60006020828403121561015857600080fd5b60006101668482850161011c565b91505092915050565b6000806040838503121561018257600080fd5b60006101908582860161011c565b92505060206101a185828601610131565b9150509250929050565b6101b481610207565b82525050565b60006020820190506101cf60008301846101ab565b92915050565b60006101e0826101e7565b9050919050565b600073ffffffffffffffffffffffffffffffffffffffff82169050919050565b6000819050919050565b61021a816101d5565b811461022557600080fd5b50565b61023181610207565b811461023c57600080fd5b5056fea26469706673582212208ed5858775c73925235ecc500698c619505d00e6096135449294855d656c91ad64736f6c63430008040033",
  "linkReferences": {},
  "deployedLinkReferences": {}
}