{
  "_format": "hh-sol-artifact-1",
  "contractName": "TruthDisco",
  "sourceName": "contracts/TruthDisco.sol",
  "abi": [
    {
      "inputs": [
        {
          "internalType": "address",
          "name": "tokenAddress",
          "type": "address"
        }
      ],
      "stateMutability": "nonpayable",
      "type": "constructor"
    },
    {
      "inputs": [
        {
          "internalType": "uint256",
          "name": "qId",
          "type": "uint256"
        }
      ],
      "name": "closeQuestion",
      "outputs": [],
      "stateMutability": "nonpayable",
      "type": "function"
    },
    {
      "inputs": [
        {
          "internalType": "string",
          "name": "stimulus",
          "type": "string"
        }
      ],
      "name": "initQuestion",
      "outputs": [],
      "stateMutability": "nonpayable",
      "type": "function"
    },
    {
      "inputs": [
        {
          "internalType": "uint256",
          "name": "qId",
          "type": "uint256"
        },
        {
          "internalType": "string",
          "name": "sub",
          "type": "string"
        }
      ],
      "name": "submitAnswer",
      "outputs": [],
      "stateMutability": "nonpayable",
      "type": "function"
    }
  ],
  "bytecode": "0x60806040523480156200001157600080fd5b50604051620022a2380380620022a28339818101604052810190620000379190620001ca565b336000806101000a81548173ffffffffffffffffffffffffffffffffffffffff021916908373ffffffffffffffffffffffffffffffffffffffff160217905550604051620000859062000197565b604051809103906000f080158015620000a2573d6000803e3d6000fd5b50600160006101000a81548173ffffffffffffffffffffffffffffffffffffffff021916908373ffffffffffffffffffffffffffffffffffffffff160217905550604051620000f190620001a5565b604051809103906000f0801580156200010e573d6000803e3d6000fd5b50600260006101000a81548173ffffffffffffffffffffffffffffffffffffffff021916908373ffffffffffffffffffffffffffffffffffffffff16021790555080600360006101000a81548173ffffffffffffffffffffffffffffffffffffffff021916908373ffffffffffffffffffffffffffffffffffffffff1602179055505062000244565b6102e78062000f9983390190565b611022806200128083390190565b600081519050620001c4816200022a565b92915050565b600060208284031215620001dd57600080fd5b6000620001ed84828501620001b3565b91505092915050565b600062000203826200020a565b9050919050565b600073ffffffffffffffffffffffffffffffffffffffff82169050919050565b6200023581620001f6565b81146200024157600080fd5b50565b610d4580620002546000396000f3fe608060405234801561001057600080fd5b50600436106100415760003560e01c806301fa3bec14610046578063c09f32e814610062578063c9616bde1461007e575b600080fd5b610060600480360381019061005b9190610814565b61009a565b005b61007c600480360381019061007791906107eb565b610153565b005b610098600480360381019061009391906107aa565b6102b0565b005b600260009054906101000a900473ffffffffffffffffffffffffffffffffffffffff1673ffffffffffffffffffffffffffffffffffffffff1663ba3995f58333846040518463ffffffff1660e01b81526004016100f993929190610a6c565b600060405180830381600087803b15801561011357600080fd5b505af1158015610127573d6000803e3d6000fd5b5050505061014f604051806060016040528060288152602001610cc16028913933848461048e565b5050565b60008054906101000a900473ffffffffffffffffffffffffffffffffffffffff1673ffffffffffffffffffffffffffffffffffffffff163373ffffffffffffffffffffffffffffffffffffffff16146101e1576040517f08c379a00000000000000000000000000000000000000000000000000000000081526004016101d890610a11565b60405180910390fd5b600260009054906101000a900473ffffffffffffffffffffffffffffffffffffffff1673ffffffffffffffffffffffffffffffffffffffff1663c09f32e8826040518263ffffffff1660e01b815260040161023c9190610a51565b600060405180830381600087803b15801561025657600080fd5b505af115801561026a573d6000803e3d6000fd5b505050506102ad6040518060400160405280601481526020017f436c6f73696e67207175657374696f6e3a20257300000000000000000000000081525082610530565b50565b60008054906101000a900473ffffffffffffffffffffffffffffffffffffffff1673ffffffffffffffffffffffffffffffffffffffff163373ffffffffffffffffffffffffffffffffffffffff161461033e576040517f08c379a000000000000000000000000000000000000000000000000000000000815260040161033590610a31565b60405180910390fd5b61039d6040518060400160405280600a81526020017f5f6f776e65723a2025730000000000000000000000000000000000000000000081525060008054906101000a900473ffffffffffffffffffffffffffffffffffffffff166105cc565b6103dc6040518060400160405280600e81526020017f6d73672e73656e6465723a202573000000000000000000000000000000000000815250336105cc565b6103fe604051806060016040528060278152602001610ce96027913982610668565b600260009054906101000a900473ffffffffffffffffffffffffffffffffffffffff1673ffffffffffffffffffffffffffffffffffffffff1663c9616bde826040518263ffffffff1660e01b81526004016104599190610905565b600060405180830381600087803b15801561047357600080fd5b505af1158015610487573d6000803e3d6000fd5b5050505050565b61052a848484846040516024016104a89493929190610957565b6040516020818303038152906040527f4c55f234000000000000000000000000000000000000000000000000000000007bffffffffffffffffffffffffffffffffffffffffffffffffffffffff19166020820180517bffffffffffffffffffffffffffffffffffffffffffffffffffffffff8381831617835250505050610704565b50505050565b6105c882826040516024016105469291906109e1565b6040516020818303038152906040527f9710a9d0000000000000000000000000000000000000000000000000000000007bffffffffffffffffffffffffffffffffffffffffffffffffffffffff19166020820180517bffffffffffffffffffffffffffffffffffffffffffffffffffffffff8381831617835250505050610704565b5050565b61066482826040516024016105e2929190610927565b6040516020818303038152906040527f319af333000000000000000000000000000000000000000000000000000000007bffffffffffffffffffffffffffffffffffffffffffffffffffffffff19166020820180517bffffffffffffffffffffffffffffffffffffffffffffffffffffffff8381831617835250505050610704565b5050565b610700828260405160240161067e9291906109aa565b6040516020818303038152906040527f4b5c4277000000000000000000000000000000000000000000000000000000007bffffffffffffffffffffffffffffffffffffffffffffffffffffffff19166020820180517bffffffffffffffffffffffffffffffffffffffffffffffffffffffff8381831617835250505050610704565b5050565b60008151905060006a636f6e736f6c652e6c6f679050602083016000808483855afa5050505050565b600061074061073b84610acf565b610aaa565b90508281526020810184848401111561075857600080fd5b610763848285610b58565b509392505050565b600082601f83011261077c57600080fd5b813561078c84826020860161072d565b91505092915050565b6000813590506107a481610ca9565b92915050565b6000602082840312156107bc57600080fd5b600082013567ffffffffffffffff8111156107d657600080fd5b6107e28482850161076b565b91505092915050565b6000602082840312156107fd57600080fd5b600061080b84828501610795565b91505092915050565b6000806040838503121561082757600080fd5b600061083585828601610795565b925050602083013567ffffffffffffffff81111561085257600080fd5b61085e8582860161076b565b9150509250929050565b61087181610b1c565b82525050565b600061088282610b00565b61088c8185610b0b565b935061089c818560208601610b67565b6108a581610bfa565b840191505092915050565b60006108bd602a83610b0b565b91506108c882610c0b565b604082019050919050565b60006108e0602b83610b0b565b91506108eb82610c5a565b604082019050919050565b6108ff81610b4e565b82525050565b6000602082019050818103600083015261091f8184610877565b905092915050565b600060408201905081810360008301526109418185610877565b90506109506020830184610868565b9392505050565b600060808201905081810360008301526109718187610877565b90506109806020830186610868565b61098d60408301856108f6565b818103606083015261099f8184610877565b905095945050505050565b600060408201905081810360008301526109c48185610877565b905081810360208301526109d88184610877565b90509392505050565b600060408201905081810360008301526109fb8185610877565b9050610a0a60208301846108f6565b9392505050565b60006020820190508181036000830152610a2a816108b0565b9050919050565b60006020820190508181036000830152610a4a816108d3565b9050919050565b6000602082019050610a6660008301846108f6565b92915050565b6000606082019050610a8160008301866108f6565b610a8e6020830185610868565b8181036040830152610aa08184610877565b9050949350505050565b6000610ab4610ac5565b9050610ac08282610b9a565b919050565b6000604051905090565b600067ffffffffffffffff821115610aea57610ae9610bcb565b5b610af382610bfa565b9050602081019050919050565b600081519050919050565b600082825260208201905092915050565b6000610b2782610b2e565b9050919050565b600073ffffffffffffffffffffffffffffffffffffffff82169050919050565b6000819050919050565b82818337600083830152505050565b60005b83811015610b85578082015181840152602081019050610b6a565b83811115610b94576000848401525b50505050565b610ba382610bfa565b810181811067ffffffffffffffff82111715610bc257610bc1610bcb565b5b80604052505050565b7f4e487b7100000000000000000000000000000000000000000000000000000000600052604160045260246000fd5b6000601f19601f8301169050919050565b7f4f6e6c79207468652061646d696e6973747261746f722063616e20636c6f736560008201527f207175657374696f6e7300000000000000000000000000000000000000000000602082015250565b7f4f6e6c79207468652061646d696e6973747261746f722063616e20637265617460008201527f65207175657374696f6e73000000000000000000000000000000000000000000602082015250565b610cb281610b4e565b8114610cbd57600080fd5b5056fe557365723a2025732c205175657374696f6e49443a2025732c205375626d697373696f6e3a202573696e697469616c6973696e67207175657374696f6e2077697468207374696d756c75733a202573a2646970667358221220260dfccff52f9e14da4957ca0cef706714ea85c7e020e0e2adc689576d71ff2864736f6c63430008040033608060405234801561001057600080fd5b506102c7806100206000396000f3fe608060405234801561001057600080fd5b50600436106100365760003560e01c80636a08b5111461003b578063db89c0441461006b575b600080fd5b6100556004803603810190610050919061018b565b61009b565b60405161006291906101e5565b60405180910390f35b61008560048036038101906100809190610162565b6100ed565b6040516100929190610200565b60405180910390f35b6000816000808573ffffffffffffffffffffffffffffffffffffffff1673ffffffffffffffffffffffffffffffffffffffff168152602001908152602001600020600001819055506001905092915050565b60008060008373ffffffffffffffffffffffffffffffffffffffff1673ffffffffffffffffffffffffffffffffffffffff168152602001908152602001600020600001549050919050565b60008135905061014781610263565b92915050565b60008135905061015c8161027a565b92915050565b60006020828403121561017457600080fd5b600061018284828501610138565b91505092915050565b6000806040838503121561019e57600080fd5b60006101ac85828601610138565b92505060206101bd8582860161014d565b9150509250929050565b6101d08161022d565b82525050565b6101df81610239565b82525050565b60006020820190506101fa60008301846101c7565b92915050565b600060208201905061021560008301846101d6565b92915050565b600061022682610243565b9050919050565b60008115159050919050565b6000819050919050565b600073ffffffffffffffffffffffffffffffffffffffff82169050919050565b61026c8161021b565b811461027757600080fd5b50565b61028381610239565b811461028e57600080fd5b5056fea264697066735822122014ce3eaadf3bbd67cbfe06f28a2cea8812e00886200420ccb317ab62f86757cd64736f6c63430008040033608060405234801561001057600080fd5b50611002806100206000396000f3fe608060405234801561001057600080fd5b506004361061004c5760003560e01c806394b99f2014610051578063ba3995f514610081578063c09f32e81461009d578063c9616bde146100b9575b600080fd5b61006b6004803603810190610066919061096c565b6100d5565b6040516100789190610b98565b60405180910390f35b61009b60048036038101906100969190610995565b6102f9565b005b6100b760048036038101906100b2919061096c565b61049a565b005b6100d360048036038101906100ce919061092b565b6104d3565b005b6060600080600084815260200190815260200160002060020154905060008167ffffffffffffffff811115610133577f4e487b7100000000000000000000000000000000000000000000000000000000600052604160045260246000fd5b60405190808252806020026020018201604052801561016c57816020015b6101596107c6565b8152602001906001900390816101515790505b50905060005b828110156102ee5760006002600087815260200190815260200160002060008381526020019081526020016000209050806040518060400160405290816000820160009054906101000a900473ffffffffffffffffffffffffffffffffffffffff1673ffffffffffffffffffffffffffffffffffffffff1673ffffffffffffffffffffffffffffffffffffffff16815260200160018201805461021490610db6565b80601f016020809104026020016040519081016040528092919081815260200182805461024090610db6565b801561028d5780601f106102625761010080835404028352916020019161028d565b820191906000526020600020905b81548152906001019060200180831161027057829003601f168201915b5050505050815250508383815181106102cf577f4e487b7100000000000000000000000000000000000000000000000000000000600052603260045260246000fd5b60200260200101819052505080806102e690610e19565b915050610172565b508092505050919050565b600154831061033d576040517f08c379a000000000000000000000000000000000000000000000000000000000815260040161033490610c2c565b60405180910390fd5b60008084815260200190815260200160002060000160009054906101000a900460ff1661039f576040517f08c379a000000000000000000000000000000000000000000000000000000000815260040161039690610c0c565b60405180910390fd5b60405180604001604052808373ffffffffffffffffffffffffffffffffffffffff1681526020018281525060026000858152602001908152602001600020600080600087815260200190815260200160002060020154815260200190815260200160002060008201518160000160006101000a81548173ffffffffffffffffffffffffffffffffffffffff021916908373ffffffffffffffffffffffffffffffffffffffff16021790555060208201518160010190805190602001906104669291906107f6565b50905050600080848152602001908152602001600020600201600081548092919061049090610e19565b9190505550505050565b600080600083815260200190815260200160002060000160006101000a81548160ff0219169083151502179055506104d0610628565b50565b6105146040518060400160405280600e81526020017f7175657374696f6e49443a202573000000000000000000000000000000000000815250600154610668565b60405180606001604052806001151581526020018281526020016000815250600080600154815260200190815260200160002060008201518160000160006101000a81548160ff02191690831515021790555060208201518160010190805190602001906105839291906107f6565b50604082015181600201559050507fa5fbefdc56bf0d2d586a82a9f50784dfe29ae6d3cfe3e0491131259d4f2042ee600154826040516105c4929190610c4c565b60405180910390a1600160008154809291906105df90610e19565b91905055506106256040518060400160405280601281526020017f5175657374696f6e20636f756e743a2025730000000000000000000000000000815250600154610668565b50565b6106666040518060400160405280601681526020017f70726f63657373696e6720726577617264732e2e2e2e00000000000000000000815250610704565b565b610700828260405160240161067e929190610bdc565b6040516020818303038152906040527f9710a9d0000000000000000000000000000000000000000000000000000000007bffffffffffffffffffffffffffffffffffffffffffffffffffffffff19166020820180517bffffffffffffffffffffffffffffffffffffffffffffffffffffffff838183161783525050505061079d565b5050565b61079a816040516024016107189190610bba565b6040516020818303038152906040527f41304fac000000000000000000000000000000000000000000000000000000007bffffffffffffffffffffffffffffffffffffffffffffffffffffffff19166020820180517bffffffffffffffffffffffffffffffffffffffffffffffffffffffff838183161783525050505061079d565b50565b60008151905060006a636f6e736f6c652e6c6f679050602083016000808483855afa5050505050565b6040518060400160405280600073ffffffffffffffffffffffffffffffffffffffff168152602001606081525090565b82805461080290610db6565b90600052602060002090601f016020900481019282610824576000855561086b565b82601f1061083d57805160ff191683800117855561086b565b8280016001018555821561086b579182015b8281111561086a57825182559160200191906001019061084f565b5b509050610878919061087c565b5090565b5b8082111561089557600081600090555060010161087d565b5090565b60006108ac6108a784610ca1565b610c7c565b9050828152602081018484840111156108c457600080fd5b6108cf848285610d74565b509392505050565b6000813590506108e681610f9e565b92915050565b600082601f8301126108fd57600080fd5b813561090d848260208601610899565b91505092915050565b60008135905061092581610fb5565b92915050565b60006020828403121561093d57600080fd5b600082013567ffffffffffffffff81111561095757600080fd5b610963848285016108ec565b91505092915050565b60006020828403121561097e57600080fd5b600061098c84828501610916565b91505092915050565b6000806000606084860312156109aa57600080fd5b60006109b886828701610916565b93505060206109c9868287016108d7565b925050604084013567ffffffffffffffff8111156109e657600080fd5b6109f2868287016108ec565b9150509250925092565b6000610a088383610b4c565b905092915050565b610a1981610d38565b82525050565b6000610a2a82610ce2565b610a348185610d05565b935083602082028501610a4685610cd2565b8060005b85811015610a825784840389528151610a6385826109fc565b9450610a6e83610cf8565b925060208a01995050600181019050610a4a565b50829750879550505050505092915050565b6000610a9f82610ced565b610aa98185610d16565b9350610ab9818560208601610d83565b610ac281610eef565b840191505092915050565b6000610ad882610ced565b610ae28185610d27565b9350610af2818560208601610d83565b610afb81610eef565b840191505092915050565b6000610b13602e83610d27565b9150610b1e82610f00565b604082019050919050565b6000610b36602d83610d27565b9150610b4182610f4f565b604082019050919050565b6000604083016000830151610b646000860182610a10565b5060208301518482036020860152610b7c8282610a94565b9150508091505092915050565b610b9281610d6a565b82525050565b60006020820190508181036000830152610bb28184610a1f565b905092915050565b60006020820190508181036000830152610bd48184610acd565b905092915050565b60006040820190508181036000830152610bf68185610acd565b9050610c056020830184610b89565b9392505050565b60006020820190508181036000830152610c2581610b06565b9050919050565b60006020820190508181036000830152610c4581610b29565b9050919050565b6000604082019050610c616000830185610b89565b8181036020830152610c738184610acd565b90509392505050565b6000610c86610c97565b9050610c928282610de8565b919050565b6000604051905090565b600067ffffffffffffffff821115610cbc57610cbb610ec0565b5b610cc582610eef565b9050602081019050919050565b6000819050602082019050919050565b600081519050919050565b600081519050919050565b6000602082019050919050565b600082825260208201905092915050565b600082825260208201905092915050565b600082825260208201905092915050565b6000610d4382610d4a565b9050919050565b600073ffffffffffffffffffffffffffffffffffffffff82169050919050565b6000819050919050565b82818337600083830152505050565b60005b83811015610da1578082015181840152602081019050610d86565b83811115610db0576000848401525b50505050565b60006002820490506001821680610dce57607f821691505b60208210811415610de257610de1610e91565b5b50919050565b610df182610eef565b810181811067ffffffffffffffff82111715610e1057610e0f610ec0565b5b80604052505050565b6000610e2482610d6a565b91507fffffffffffffffffffffffffffffffffffffffffffffffffffffffffffffffff821415610e5757610e56610e62565b5b600182019050919050565b7f4e487b7100000000000000000000000000000000000000000000000000000000600052601160045260246000fd5b7f4e487b7100000000000000000000000000000000000000000000000000000000600052602260045260246000fd5b7f4e487b7100000000000000000000000000000000000000000000000000000000600052604160045260246000fd5b6000601f19601f8301169050919050565b7f496e76616c6964207175657374696f6e204944202d207175657374696f6e206860008201527f6173206265656e20636c6f736564000000000000000000000000000000000000602082015250565b7f496e76616c6964207175657374696f6e204944202d207175657374696f6e206460008201527f6f6573206e6f7420657869737400000000000000000000000000000000000000602082015250565b610fa781610d38565b8114610fb257600080fd5b50565b610fbe81610d6a565b8114610fc957600080fd5b5056fea264697066735822122047190b13a7fb58b7aa3c92ebe6473c1b0e765c84752ff7883c3d9f2576ca45ca64736f6c63430008040033",
  "linkReferences": {},
  "deployedLinkReferences": {}
}