{
  "_format": "hh-sol-artifact-1",
  "contractName": "TruthDisco",
  "sourceName": "contracts/TruthDisco.sol",
  "abi": [
    {
      "inputs": [
        {
          "internalType": "address",
          "name": "tokenAddress",
          "type": "address"
        }
      ],
      "stateMutability": "nonpayable",
      "type": "constructor"
    },
    {
      "inputs": [],
      "name": "_owner",
      "outputs": [
        {
          "internalType": "address",
          "name": "",
          "type": "address"
        }
      ],
      "stateMutability": "view",
      "type": "function"
    },
    {
      "inputs": [],
      "name": "_tokenAddr",
      "outputs": [
        {
          "internalType": "address",
          "name": "",
          "type": "address"
        }
      ],
      "stateMutability": "view",
      "type": "function"
    },
    {
      "inputs": [
        {
          "internalType": "uint256",
          "name": "qId",
          "type": "uint256"
        }
      ],
      "name": "checkAnswers",
      "outputs": [
        {
          "components": [
            {
              "internalType": "address",
              "name": "submittedBy",
              "type": "address"
            },
            {
              "internalType": "string",
              "name": "submission",
              "type": "string"
            }
          ],
          "internalType": "struct Questions.Answer[]",
          "name": "",
          "type": "tuple[]"
        }
      ],
      "stateMutability": "view",
      "type": "function"
    },
    {
      "inputs": [
        {
          "internalType": "uint256",
          "name": "qId",
          "type": "uint256"
        }
      ],
      "name": "closeQuestion",
      "outputs": [],
      "stateMutability": "nonpayable",
      "type": "function"
    },
    {
      "inputs": [
        {
          "internalType": "uint256",
          "name": "qId",
          "type": "uint256"
        }
      ],
      "name": "fetchQuestion",
      "outputs": [
        {
          "components": [
            {
              "internalType": "uint256",
              "name": "id",
              "type": "uint256"
            },
            {
              "internalType": "bool",
              "name": "active",
              "type": "bool"
            },
            {
              "internalType": "string",
              "name": "stimulus",
              "type": "string"
            },
            {
              "internalType": "uint256",
              "name": "ansCount",
              "type": "uint256"
            }
          ],
          "internalType": "struct Questions.Question",
          "name": "",
          "type": "tuple"
        }
      ],
      "stateMutability": "view",
      "type": "function"
    },
    {
      "inputs": [],
      "name": "getQuestions",
      "outputs": [
        {
          "components": [
            {
              "internalType": "uint256",
              "name": "id",
              "type": "uint256"
            },
            {
              "internalType": "bool",
              "name": "active",
              "type": "bool"
            },
            {
              "internalType": "string",
              "name": "stimulus",
              "type": "string"
            },
            {
              "internalType": "uint256",
              "name": "ansCount",
              "type": "uint256"
            }
          ],
          "internalType": "struct Questions.Question[]",
          "name": "",
          "type": "tuple[]"
        }
      ],
      "stateMutability": "view",
      "type": "function"
    },
    {
      "inputs": [
        {
          "internalType": "string",
          "name": "stimulus",
          "type": "string"
        }
      ],
      "name": "initQuestion",
      "outputs": [],
      "stateMutability": "nonpayable",
      "type": "function"
    },
    {
      "inputs": [
        {
          "internalType": "uint256",
          "name": "qId",
          "type": "uint256"
        },
        {
          "internalType": "address[]",
          "name": "users",
          "type": "address[]"
        },
        {
          "internalType": "uint256[]",
          "name": "rewards",
          "type": "uint256[]"
        },
        {
          "internalType": "uint256[]",
          "name": "reputation",
          "type": "uint256[]"
        }
      ],
      "name": "processQuestion",
      "outputs": [],
      "stateMutability": "nonpayable",
      "type": "function"
    },
    {
      "inputs": [
        {
          "internalType": "uint256",
          "name": "qId",
          "type": "uint256"
        },
        {
          "internalType": "string",
          "name": "sub",
          "type": "string"
        }
      ],
      "name": "submitAnswer",
      "outputs": [],
      "stateMutability": "nonpayable",
      "type": "function"
    }
  ],
  "bytecode": "0x60806040523480156200001157600080fd5b5060405162003a2338038062003a238339818101604052810190620000379190620001ca565b336000806101000a81548173ffffffffffffffffffffffffffffffffffffffff021916908373ffffffffffffffffffffffffffffffffffffffff160217905550604051620000859062000197565b604051809103906000f080158015620000a2573d6000803e3d6000fd5b50600160006101000a81548173ffffffffffffffffffffffffffffffffffffffff021916908373ffffffffffffffffffffffffffffffffffffffff160217905550604051620000f190620001a5565b604051809103906000f0801580156200010e573d6000803e3d6000fd5b50600260006101000a81548173ffffffffffffffffffffffffffffffffffffffff021916908373ffffffffffffffffffffffffffffffffffffffff16021790555080600360006101000a81548173ffffffffffffffffffffffffffffffffffffffff021916908373ffffffffffffffffffffffffffffffffffffffff1602179055505062000244565b6102e78062001f9983390190565b6117a3806200228083390190565b600081519050620001c4816200022a565b92915050565b600060208284031215620001dd57600080fd5b6000620001ed84828501620001b3565b91505092915050565b600062000203826200020a565b9050919050565b600073ffffffffffffffffffffffffffffffffffffffff82169050919050565b6200023581620001f6565b81146200024157600080fd5b50565b611d4580620002546000396000f3fe608060405234801561001057600080fd5b50600436106100935760003560e01c8063a7737bd311610066578063a7737bd314610120578063b2bdfa7b14610150578063bb4807a71461016e578063c09f32e81461018a578063c9616bde146101a657610093565b806301fa3bec1461009857806397221ab7146100b45780639ab804e4146100d2578063a5a65c10146100f0575b600080fd5b6100b260048036038101906100ad9190611319565b6101c2565b005b6100bc61027b565b6040516100c991906116e5565b60405180910390f35b6100da610327565b6040516100e791906116a8565b60405180910390f35b61010a60048036038101906101059190611245565b61034d565b60405161011791906116c3565b60405180910390f35b61013a60048036038101906101359190611245565b610445565b6040516101479190611873565b60405180910390f35b610158610504565b60405161016591906116a8565b60405180910390f35b6101886004803603810190610183919061126e565b610528565b005b6101a4600480360381019061019f9190611245565b610688565b005b6101c060048036038101906101bb91906111c3565b6107e5565b005b600260009054906101000a900473ffffffffffffffffffffffffffffffffffffffff1673ffffffffffffffffffffffffffffffffffffffff1663ba3995f58333846040518463ffffffff1660e01b8152600401610221939291906118b0565b600060405180830381600087803b15801561023b57600080fd5b505af115801561024f573d6000803e3d6000fd5b50505050610277604051806060016040528060288152602001611cc1602891393384846109c3565b5050565b6060600260009054906101000a900473ffffffffffffffffffffffffffffffffffffffff1673ffffffffffffffffffffffffffffffffffffffff166356fe5bb06040518163ffffffff1660e01b815260040160006040518083038186803b1580156102e557600080fd5b505afa1580156102f9573d6000803e3d6000fd5b505050506040513d6000823e3d601f19601f820116820180604052508101906103229190611182565b905090565b600360009054906101000a900473ffffffffffffffffffffffffffffffffffffffff1681565b606061038e6040518060400160405280601e81526020017f636865636b20616e737765727320666f72207175657374696f6e3a202573000081525083610a65565b600260009054906101000a900473ffffffffffffffffffffffffffffffffffffffff1673ffffffffffffffffffffffffffffffffffffffff166394b99f20836040518263ffffffff1660e01b81526004016103e99190611895565b60006040518083038186803b15801561040157600080fd5b505afa158015610415573d6000803e3d6000fd5b505050506040513d6000823e3d601f19601f8201168201806040525081019061043e9190611141565b9050919050565b61044d610c62565b600260009054906101000a900473ffffffffffffffffffffffffffffffffffffffff1673ffffffffffffffffffffffffffffffffffffffff1663db88176f836040518263ffffffff1660e01b81526004016104a89190611895565b60006040518083038186803b1580156104c057600080fd5b505afa1580156104d4573d6000803e3d6000fd5b505050506040513d6000823e3d601f19601f820116820180604052508101906104fd9190611204565b9050919050565b60008054906101000a900473ffffffffffffffffffffffffffffffffffffffff1681565b60008054906101000a900473ffffffffffffffffffffffffffffffffffffffff1673ffffffffffffffffffffffffffffffffffffffff163373ffffffffffffffffffffffffffffffffffffffff16146105b6576040517f08c379a00000000000000000000000000000000000000000000000000000000081526004016105ad90611853565b60405180910390fd5b6105f56040518060400160405280601681526020017f70726f63657373696e67205175657374696f6e2025730000000000000000000081525085610a65565b600260009054906101000a900473ffffffffffffffffffffffffffffffffffffffff1673ffffffffffffffffffffffffffffffffffffffff1663c09f32e8856040518263ffffffff1660e01b81526004016106509190611895565b600060405180830381600087803b15801561066a57600080fd5b505af115801561067e573d6000803e3d6000fd5b5050505050505050565b60008054906101000a900473ffffffffffffffffffffffffffffffffffffffff1673ffffffffffffffffffffffffffffffffffffffff163373ffffffffffffffffffffffffffffffffffffffff1614610716576040517f08c379a000000000000000000000000000000000000000000000000000000000815260040161070d90611813565b60405180910390fd5b600260009054906101000a900473ffffffffffffffffffffffffffffffffffffffff1673ffffffffffffffffffffffffffffffffffffffff1663c09f32e8826040518263ffffffff1660e01b81526004016107719190611895565b600060405180830381600087803b15801561078b57600080fd5b505af115801561079f573d6000803e3d6000fd5b505050506107e26040518060400160405280601481526020017f436c6f73696e67207175657374696f6e3a20257300000000000000000000000081525082610a65565b50565b60008054906101000a900473ffffffffffffffffffffffffffffffffffffffff1673ffffffffffffffffffffffffffffffffffffffff163373ffffffffffffffffffffffffffffffffffffffff1614610873576040517f08c379a000000000000000000000000000000000000000000000000000000000815260040161086a90611833565b60405180910390fd5b6108d26040518060400160405280600a81526020017f5f6f776e65723a2025730000000000000000000000000000000000000000000081525060008054906101000a900473ffffffffffffffffffffffffffffffffffffffff16610b01565b6109116040518060400160405280600e81526020017f6d73672e73656e6465723a20257300000000000000000000000000000000000081525033610b01565b610933604051806060016040528060278152602001611ce96027913982610b9d565b600260009054906101000a900473ffffffffffffffffffffffffffffffffffffffff1673ffffffffffffffffffffffffffffffffffffffff1663c9616bde826040518263ffffffff1660e01b815260040161098e9190611707565b600060405180830381600087803b1580156109a857600080fd5b505af11580156109bc573d6000803e3d6000fd5b5050505050565b610a5f848484846040516024016109dd9493929190611759565b6040516020818303038152906040527f4c55f234000000000000000000000000000000000000000000000000000000007bffffffffffffffffffffffffffffffffffffffffffffffffffffffff19166020820180517bffffffffffffffffffffffffffffffffffffffffffffffffffffffff8381831617835250505050610c39565b50505050565b610afd8282604051602401610a7b9291906117e3565b6040516020818303038152906040527f9710a9d0000000000000000000000000000000000000000000000000000000007bffffffffffffffffffffffffffffffffffffffffffffffffffffffff19166020820180517bffffffffffffffffffffffffffffffffffffffffffffffffffffffff8381831617835250505050610c39565b5050565b610b998282604051602401610b17929190611729565b6040516020818303038152906040527f319af333000000000000000000000000000000000000000000000000000000007bffffffffffffffffffffffffffffffffffffffffffffffffffffffff19166020820180517bffffffffffffffffffffffffffffffffffffffffffffffffffffffff8381831617835250505050610c39565b5050565b610c358282604051602401610bb39291906117ac565b6040516020818303038152906040527f4b5c4277000000000000000000000000000000000000000000000000000000007bffffffffffffffffffffffffffffffffffffffffffffffffffffffff19166020820180517bffffffffffffffffffffffffffffffffffffffffffffffffffffffff8381831617835250505050610c39565b5050565b60008151905060006a636f6e736f6c652e6c6f679050602083016000808483855afa5050505050565b60405180608001604052806000815260200160001515815260200160608152602001600081525090565b6000610c9f610c9a84611913565b6118ee565b90508083825260208201905082856020860282011115610cbe57600080fd5b60005b85811015610cee5781610cd48882610eec565b845260208401935060208301925050600181019050610cc1565b5050509392505050565b6000610d0b610d068461193f565b6118ee565b90508083825260208201905082856020860282011115610d2a57600080fd5b60005b85811015610d7457815167ffffffffffffffff811115610d4c57600080fd5b808601610d598982611027565b85526020850194506020840193505050600181019050610d2d565b5050509392505050565b6000610d91610d8c8461196b565b6118ee565b90508083825260208201905082856020860282011115610db057600080fd5b60005b85811015610dfa57815167ffffffffffffffff811115610dd257600080fd5b808601610ddf898261108b565b85526020850194506020840193505050600181019050610db3565b5050509392505050565b6000610e17610e1284611997565b6118ee565b90508083825260208201905082856020860282011115610e3657600080fd5b60005b85811015610e665781610e4c8882611117565b845260208401935060208301925050600181019050610e39565b5050509392505050565b6000610e83610e7e846119c3565b6118ee565b905082815260208101848484011115610e9b57600080fd5b610ea6848285611adb565b509392505050565b6000610ec1610ebc846119c3565b6118ee565b905082815260208101848484011115610ed957600080fd5b610ee4848285611aea565b509392505050565b600081359050610efb81611c7b565b92915050565b600081519050610f1081611c7b565b92915050565b600082601f830112610f2757600080fd5b8135610f37848260208601610c8c565b91505092915050565b600082601f830112610f5157600080fd5b8151610f61848260208601610cf8565b91505092915050565b600082601f830112610f7b57600080fd5b8151610f8b848260208601610d7e565b91505092915050565b600082601f830112610fa557600080fd5b8135610fb5848260208601610e04565b91505092915050565b600081519050610fcd81611c92565b92915050565b600082601f830112610fe457600080fd5b8135610ff4848260208601610e70565b91505092915050565b600082601f83011261100e57600080fd5b815161101e848260208601610eae565b91505092915050565b60006040828403121561103957600080fd5b61104360406118ee565b9050600061105384828501610f01565b600083015250602082015167ffffffffffffffff81111561107357600080fd5b61107f84828501610ffd565b60208301525092915050565b60006080828403121561109d57600080fd5b6110a760806118ee565b905060006110b78482850161112c565b60008301525060206110cb84828501610fbe565b602083015250604082015167ffffffffffffffff8111156110eb57600080fd5b6110f784828501610ffd565b604083015250606061110b8482850161112c565b60608301525092915050565b60008135905061112681611ca9565b92915050565b60008151905061113b81611ca9565b92915050565b60006020828403121561115357600080fd5b600082015167ffffffffffffffff81111561116d57600080fd5b61117984828501610f40565b91505092915050565b60006020828403121561119457600080fd5b600082015167ffffffffffffffff8111156111ae57600080fd5b6111ba84828501610f6a565b91505092915050565b6000602082840312156111d557600080fd5b600082013567ffffffffffffffff8111156111ef57600080fd5b6111fb84828501610fd3565b91505092915050565b60006020828403121561121657600080fd5b600082015167ffffffffffffffff81111561123057600080fd5b61123c8482850161108b565b91505092915050565b60006020828403121561125757600080fd5b600061126584828501611117565b91505092915050565b6000806000806080858703121561128457600080fd5b600061129287828801611117565b945050602085013567ffffffffffffffff8111156112af57600080fd5b6112bb87828801610f16565b935050604085013567ffffffffffffffff8111156112d857600080fd5b6112e487828801610f94565b925050606085013567ffffffffffffffff81111561130157600080fd5b61130d87828801610f94565b91505092959194509250565b6000806040838503121561132c57600080fd5b600061133a85828601611117565b925050602083013567ffffffffffffffff81111561135757600080fd5b61136385828601610fd3565b9150509250929050565b60006113798383611587565b905092915050565b600061138d83836115c4565b905092915050565b61139e81611a93565b82525050565b6113ad81611a93565b82525050565b60006113be82611a14565b6113c88185611a4f565b9350836020820285016113da856119f4565b8060005b8581101561141657848403895281516113f7858261136d565b945061140283611a35565b925060208a019950506001810190506113de565b50829750879550505050505092915050565b600061143382611a1f565b61143d8185611a60565b93508360208202850161144f85611a04565b8060005b8581101561148b578484038952815161146c8582611381565b945061147783611a42565b925060208a01995050600181019050611453565b50829750879550505050505092915050565b6114a681611aa5565b82525050565b60006114b782611a2a565b6114c18185611a71565b93506114d1818560208601611aea565b6114da81611b7d565b840191505092915050565b60006114f082611a2a565b6114fa8185611a82565b935061150a818560208601611aea565b61151381611b7d565b840191505092915050565b600061152b602a83611a82565b915061153682611b8e565b604082019050919050565b600061154e602b83611a82565b915061155982611bdd565b604082019050919050565b6000611571602b83611a82565b915061157c82611c2c565b604082019050919050565b600060408301600083015161159f6000860182611395565b50602083015184820360208601526115b782826114ac565b9150508091505092915050565b60006080830160008301516115dc600086018261168a565b5060208301516115ef602086018261149d565b506040830151848203604086015261160782826114ac565b915050606083015161161c606086018261168a565b508091505092915050565b600060808301600083015161163f600086018261168a565b506020830151611652602086018261149d565b506040830151848203604086015261166a82826114ac565b915050606083015161167f606086018261168a565b508091505092915050565b61169381611ad1565b82525050565b6116a281611ad1565b82525050565b60006020820190506116bd60008301846113a4565b92915050565b600060208201905081810360008301526116dd81846113b3565b905092915050565b600060208201905081810360008301526116ff8184611428565b905092915050565b6000602082019050818103600083015261172181846114e5565b905092915050565b6000604082019050818103600083015261174381856114e5565b905061175260208301846113a4565b9392505050565b6000608082019050818103600083015261177381876114e5565b905061178260208301866113a4565b61178f6040830185611699565b81810360608301526117a181846114e5565b905095945050505050565b600060408201905081810360008301526117c681856114e5565b905081810360208301526117da81846114e5565b90509392505050565b600060408201905081810360008301526117fd81856114e5565b905061180c6020830184611699565b9392505050565b6000602082019050818103600083015261182c8161151e565b9050919050565b6000602082019050818103600083015261184c81611541565b9050919050565b6000602082019050818103600083015261186c81611564565b9050919050565b6000602082019050818103600083015261188d8184611627565b905092915050565b60006020820190506118aa6000830184611699565b92915050565b60006060820190506118c56000830186611699565b6118d260208301856113a4565b81810360408301526118e481846114e5565b9050949350505050565b60006118f8611909565b90506119048282611b1d565b919050565b6000604051905090565b600067ffffffffffffffff82111561192e5761192d611b4e565b5b602082029050602081019050919050565b600067ffffffffffffffff82111561195a57611959611b4e565b5b602082029050602081019050919050565b600067ffffffffffffffff82111561198657611985611b4e565b5b602082029050602081019050919050565b600067ffffffffffffffff8211156119b2576119b1611b4e565b5b602082029050602081019050919050565b600067ffffffffffffffff8211156119de576119dd611b4e565b5b6119e782611b7d565b9050602081019050919050565b6000819050602082019050919050565b6000819050602082019050919050565b600081519050919050565b600081519050919050565b600081519050919050565b6000602082019050919050565b6000602082019050919050565b600082825260208201905092915050565b600082825260208201905092915050565b600082825260208201905092915050565b600082825260208201905092915050565b6000611a9e82611ab1565b9050919050565b60008115159050919050565b600073ffffffffffffffffffffffffffffffffffffffff82169050919050565b6000819050919050565b82818337600083830152505050565b60005b83811015611b08578082015181840152602081019050611aed565b83811115611b17576000848401525b50505050565b611b2682611b7d565b810181811067ffffffffffffffff82111715611b4557611b44611b4e565b5b80604052505050565b7f4e487b7100000000000000000000000000000000000000000000000000000000600052604160045260246000fd5b6000601f19601f8301169050919050565b7f4f6e6c79207468652061646d696e6973747261746f722063616e20636c6f736560008201527f207175657374696f6e7300000000000000000000000000000000000000000000602082015250565b7f4f6e6c79207468652061646d696e6973747261746f722063616e20637265617460008201527f65207175657374696f6e73000000000000000000000000000000000000000000602082015250565b7f4f6e6c79207468652061646d696e6973747261746f722063616e20616c6c6f6360008201527f6174652072657761726473000000000000000000000000000000000000000000602082015250565b611c8481611a93565b8114611c8f57600080fd5b50565b611c9b81611aa5565b8114611ca657600080fd5b50565b611cb281611ad1565b8114611cbd57600080fd5b5056fe557365723a2025732c205175657374696f6e49443a2025732c205375626d697373696f6e3a202573696e697469616c6973696e67207175657374696f6e2077697468207374696d756c75733a202573a264697066735822122046d13d34c4452721ade993a2fb35c5f5877ac0c40140a16ee1ebd8712f7ce55464736f6c63430008040033608060405234801561001057600080fd5b506102c7806100206000396000f3fe608060405234801561001057600080fd5b50600436106100365760003560e01c80636a08b5111461003b578063db89c0441461006b575b600080fd5b6100556004803603810190610050919061018b565b61009b565b60405161006291906101e5565b60405180910390f35b61008560048036038101906100809190610162565b6100ed565b6040516100929190610200565b60405180910390f35b6000816000808573ffffffffffffffffffffffffffffffffffffffff1673ffffffffffffffffffffffffffffffffffffffff168152602001908152602001600020600001819055506001905092915050565b60008060008373ffffffffffffffffffffffffffffffffffffffff1673ffffffffffffffffffffffffffffffffffffffff168152602001908152602001600020600001549050919050565b60008135905061014781610263565b92915050565b60008135905061015c8161027a565b92915050565b60006020828403121561017457600080fd5b600061018284828501610138565b91505092915050565b6000806040838503121561019e57600080fd5b60006101ac85828601610138565b92505060206101bd8582860161014d565b9150509250929050565b6101d08161022d565b82525050565b6101df81610239565b82525050565b60006020820190506101fa60008301846101c7565b92915050565b600060208201905061021560008301846101d6565b92915050565b600061022682610243565b9050919050565b60008115159050919050565b6000819050919050565b600073ffffffffffffffffffffffffffffffffffffffff82169050919050565b61026c8161021b565b811461027757600080fd5b50565b61028381610239565b811461028e57600080fd5b5056fea264697066735822122014ce3eaadf3bbd67cbfe06f28a2cea8812e00886200420ccb317ab62f86757cd64736f6c6343000804003360806040523480156200001157600080fd5b506200005d6040518060400160405280601981526020017f5175657374696f6e20696e7374616e63652063726561746564000000000000008152506200007360201b620009a81760201c565b6000600181905550600060028190555062000207565b62000113816040516024016200008a919062000180565b6040516020818303038152906040527f41304fac000000000000000000000000000000000000000000000000000000007bffffffffffffffffffffffffffffffffffffffffffffffffffffffff19166020820180517bffffffffffffffffffffffffffffffffffffffffffffffffffffffff83818316178352505050506200011660201b60201c565b50565b60008151905060006a636f6e736f6c652e6c6f679050602083016000808483855afa5050505050565b60006200014c82620001a4565b620001588185620001af565b93506200016a818560208601620001c0565b6200017581620001f6565b840191505092915050565b600060208201905081810360008301526200019c81846200013f565b905092915050565b600081519050919050565b600082825260208201905092915050565b60005b83811015620001e0578082015181840152602081019050620001c3565b83811115620001f0576000848401525b50505050565b6000601f19601f8301169050919050565b61158c80620002176000396000f3fe608060405234801561001057600080fd5b50600436106100625760003560e01c806356fe5bb01461006757806394b99f2014610085578063ba3995f5146100b5578063c09f32e8146100d1578063c9616bde146100ed578063db88176f14610109575b600080fd5b61006f610139565b60405161007c9190611091565b60405180910390f35b61009f600480360381019061009a9190610cd6565b61032e565b6040516100ac919061106f565b60405180910390f35b6100cf60048036038101906100ca9190610cff565b610552565b005b6100eb60048036038101906100e69190610cd6565b6106f3565b005b61010760048036038101906101029190610c95565b61073c565b005b610123600480360381019061011e9190610cd6565b6108bb565b6040516101309190611145565b60405180910390f35b6060600060025467ffffffffffffffff81111561017f577f4e487b7100000000000000000000000000000000000000000000000000000000600052604160045260246000fd5b6040519080825280602002602001820160405280156101b857816020015b6101a5610b06565b81526020019060019003908161019d5790505b50905060005b6002548110156103265760008082815260200190815260200160002060010160009054906101000a900460ff161561031357600080828152602001908152602001600020604051806080016040529081600082015481526020016001820160009054906101000a900460ff1615151515815260200160028201805461024290611340565b80601f016020809104026020016040519081016040528092919081815260200182805461026e90611340565b80156102bb5780601f10610290576101008083540402835291602001916102bb565b820191906000526020600020905b81548152906001019060200180831161029e57829003601f168201915b50505050508152602001600382015481525050828281518110610307577f4e487b7100000000000000000000000000000000000000000000000000000000600052603260045260246000fd5b60200260200101819052505b808061031e906113a3565b9150506101be565b508091505090565b6060600080600084815260200190815260200160002060030154905060008167ffffffffffffffff81111561038c577f4e487b7100000000000000000000000000000000000000000000000000000000600052604160045260246000fd5b6040519080825280602002602001820160405280156103c557816020015b6103b2610b30565b8152602001906001900390816103aa5790505b50905060005b828110156105475760006003600087815260200190815260200160002060008381526020019081526020016000209050806040518060400160405290816000820160009054906101000a900473ffffffffffffffffffffffffffffffffffffffff1673ffffffffffffffffffffffffffffffffffffffff1673ffffffffffffffffffffffffffffffffffffffff16815260200160018201805461046d90611340565b80601f016020809104026020016040519081016040528092919081815260200182805461049990611340565b80156104e65780601f106104bb576101008083540402835291602001916104e6565b820191906000526020600020905b8154815290600101906020018083116104c957829003601f168201915b505050505081525050838381518110610528577f4e487b7100000000000000000000000000000000000000000000000000000000600052603260045260246000fd5b602002602001018190525050808061053f906113a3565b9150506103cb565b508092505050919050565b6001548310610596576040517f08c379a000000000000000000000000000000000000000000000000000000000815260040161058d90611125565b60405180910390fd5b60008084815260200190815260200160002060010160009054906101000a900460ff166105f8576040517f08c379a00000000000000000000000000000000000000000000000000000000081526004016105ef90611105565b60405180910390fd5b60405180604001604052808373ffffffffffffffffffffffffffffffffffffffff1681526020018281525060036000858152602001908152602001600020600080600087815260200190815260200160002060030154815260200190815260200160002060008201518160000160006101000a81548173ffffffffffffffffffffffffffffffffffffffff021916908373ffffffffffffffffffffffffffffffffffffffff16021790555060208201518160010190805190602001906106bf929190610b60565b5090505060008084815260200190815260200160002060030160008154809291906106e9906113a3565b9190505550505050565b600080600083815260200190815260200160002060010160006101000a81548160ff0219169083151502179055506002600081548092919061073490611316565b919050555050565b61077d6040518060400160405280600e81526020017f7175657374696f6e49443a202573000000000000000000000000000000000000815250600154610a41565b60405180608001604052806001548152602001600115158152602001828152602001600081525060008060015481526020019081526020016000206000820151816000015560208201518160010160006101000a81548160ff02191690831515021790555060408201518160020190805190602001906107fe929190610b60565b50606082015181600301559050507fa5fbefdc56bf0d2d586a82a9f50784dfe29ae6d3cfe3e0491131259d4f2042ee6001548260405161083f929190611167565b60405180910390a16001600081548092919061085a906113a3565b919050555060026000815480929190610872906113a3565b91905055506108b86040518060400160405280601281526020017f5175657374696f6e20636f756e743a2025730000000000000000000000000000815250600154610a41565b50565b6108c3610b06565b600080838152602001908152602001600020604051806080016040529081600082015481526020016001820160009054906101000a900460ff1615151515815260200160028201805461091590611340565b80601f016020809104026020016040519081016040528092919081815260200182805461094190611340565b801561098e5780601f106109635761010080835404028352916020019161098e565b820191906000526020600020905b81548152906001019060200180831161097157829003601f168201915b505050505081526020016003820154815250509050919050565b610a3e816040516024016109bc91906110b3565b6040516020818303038152906040527f41304fac000000000000000000000000000000000000000000000000000000007bffffffffffffffffffffffffffffffffffffffffffffffffffffffff19166020820180517bffffffffffffffffffffffffffffffffffffffffffffffffffffffff8381831617835250505050610add565b50565b610ad98282604051602401610a579291906110d5565b6040516020818303038152906040527f9710a9d0000000000000000000000000000000000000000000000000000000007bffffffffffffffffffffffffffffffffffffffffffffffffffffffff19166020820180517bffffffffffffffffffffffffffffffffffffffffffffffffffffffff8381831617835250505050610add565b5050565b60008151905060006a636f6e736f6c652e6c6f679050602083016000808483855afa5050505050565b60405180608001604052806000815260200160001515815260200160608152602001600081525090565b6040518060400160405280600073ffffffffffffffffffffffffffffffffffffffff168152602001606081525090565b828054610b6c90611340565b90600052602060002090601f016020900481019282610b8e5760008555610bd5565b82601f10610ba757805160ff1916838001178555610bd5565b82800160010185558215610bd5579182015b82811115610bd4578251825591602001919060010190610bb9565b5b509050610be29190610be6565b5090565b5b80821115610bff576000816000905550600101610be7565b5090565b6000610c16610c11846111bc565b611197565b905082815260208101848484011115610c2e57600080fd5b610c398482856112d4565b509392505050565b600081359050610c5081611528565b92915050565b600082601f830112610c6757600080fd5b8135610c77848260208601610c03565b91505092915050565b600081359050610c8f8161153f565b92915050565b600060208284031215610ca757600080fd5b600082013567ffffffffffffffff811115610cc157600080fd5b610ccd84828501610c56565b91505092915050565b600060208284031215610ce857600080fd5b6000610cf684828501610c80565b91505092915050565b600080600060608486031215610d1457600080fd5b6000610d2286828701610c80565b9350506020610d3386828701610c41565b925050604084013567ffffffffffffffff811115610d5057600080fd5b610d5c86828701610c56565b9150509250925092565b6000610d728383610f4e565b905092915050565b6000610d868383610f8b565b905092915050565b610d978161128c565b82525050565b6000610da88261120d565b610db28185611248565b935083602082028501610dc4856111ed565b8060005b85811015610e005784840389528151610de18582610d66565b9450610dec8361122e565b925060208a01995050600181019050610dc8565b50829750879550505050505092915050565b6000610e1d82611218565b610e278185611259565b935083602082028501610e39856111fd565b8060005b85811015610e755784840389528151610e568582610d7a565b9450610e618361123b565b925060208a01995050600181019050610e3d565b50829750879550505050505092915050565b610e908161129e565b82525050565b6000610ea182611223565b610eab818561126a565b9350610ebb8185602086016112e3565b610ec481611479565b840191505092915050565b6000610eda82611223565b610ee4818561127b565b9350610ef48185602086016112e3565b610efd81611479565b840191505092915050565b6000610f15602e8361127b565b9150610f208261148a565b604082019050919050565b6000610f38602d8361127b565b9150610f43826114d9565b604082019050919050565b6000604083016000830151610f666000860182610d8e565b5060208301518482036020860152610f7e8282610e96565b9150508091505092915050565b6000608083016000830151610fa36000860182611051565b506020830151610fb66020860182610e87565b5060408301518482036040860152610fce8282610e96565b9150506060830151610fe36060860182611051565b508091505092915050565b60006080830160008301516110066000860182611051565b5060208301516110196020860182610e87565b50604083015184820360408601526110318282610e96565b91505060608301516110466060860182611051565b508091505092915050565b61105a816112ca565b82525050565b611069816112ca565b82525050565b600060208201905081810360008301526110898184610d9d565b905092915050565b600060208201905081810360008301526110ab8184610e12565b905092915050565b600060208201905081810360008301526110cd8184610ecf565b905092915050565b600060408201905081810360008301526110ef8185610ecf565b90506110fe6020830184611060565b9392505050565b6000602082019050818103600083015261111e81610f08565b9050919050565b6000602082019050818103600083015261113e81610f2b565b9050919050565b6000602082019050818103600083015261115f8184610fee565b905092915050565b600060408201905061117c6000830185611060565b818103602083015261118e8184610ecf565b90509392505050565b60006111a16111b2565b90506111ad8282611372565b919050565b6000604051905090565b600067ffffffffffffffff8211156111d7576111d661144a565b5b6111e082611479565b9050602081019050919050565b6000819050602082019050919050565b6000819050602082019050919050565b600081519050919050565b600081519050919050565b600081519050919050565b6000602082019050919050565b6000602082019050919050565b600082825260208201905092915050565b600082825260208201905092915050565b600082825260208201905092915050565b600082825260208201905092915050565b6000611297826112aa565b9050919050565b60008115159050919050565b600073ffffffffffffffffffffffffffffffffffffffff82169050919050565b6000819050919050565b82818337600083830152505050565b60005b838110156113015780820151818401526020810190506112e6565b83811115611310576000848401525b50505050565b6000611321826112ca565b91506000821415611335576113346113ec565b5b600182039050919050565b6000600282049050600182168061135857607f821691505b6020821081141561136c5761136b61141b565b5b50919050565b61137b82611479565b810181811067ffffffffffffffff8211171561139a5761139961144a565b5b80604052505050565b60006113ae826112ca565b91507fffffffffffffffffffffffffffffffffffffffffffffffffffffffffffffffff8214156113e1576113e06113ec565b5b600182019050919050565b7f4e487b7100000000000000000000000000000000000000000000000000000000600052601160045260246000fd5b7f4e487b7100000000000000000000000000000000000000000000000000000000600052602260045260246000fd5b7f4e487b7100000000000000000000000000000000000000000000000000000000600052604160045260246000fd5b6000601f19601f8301169050919050565b7f496e76616c6964207175657374696f6e204944202d207175657374696f6e206860008201527f6173206265656e20636c6f736564000000000000000000000000000000000000602082015250565b7f496e76616c6964207175657374696f6e204944202d207175657374696f6e206460008201527f6f6573206e6f7420657869737400000000000000000000000000000000000000602082015250565b6115318161128c565b811461153c57600080fd5b50565b611548816112ca565b811461155357600080fd5b5056fea264697066735822122016b907c4d6c4f3f03bf2a58e4ff5a68a60d3e8a55a4644a1e4f13d965efc7b1c64736f6c63430008040033",
  "linkReferences": {},
  "deployedLinkReferences": {}
}