{
  "_format": "hh-sol-artifact-1",
  "contractName": "Questions",
  "sourceName": "contracts/Modules/Questions.sol",
  "abi": [
    {
      "inputs": [],
      "stateMutability": "nonpayable",
      "type": "constructor"
    },
    {
      "anonymous": false,
      "inputs": [
        {
          "indexed": false,
          "internalType": "uint256",
          "name": "_questionId",
          "type": "uint256"
        },
        {
          "indexed": false,
          "internalType": "string",
          "name": "_stimulus",
          "type": "string"
        }
      ],
      "name": "QuestionCreated",
      "type": "event"
    },
    {
      "inputs": [
        {
          "internalType": "uint256",
          "name": "qId",
          "type": "uint256"
        },
        {
          "internalType": "string",
          "name": "answer",
          "type": "string"
        }
      ],
      "name": "closeQuestion",
      "outputs": [],
      "stateMutability": "nonpayable",
      "type": "function"
    },
    {
      "inputs": [],
      "name": "getQuestionList",
      "outputs": [
        {
          "components": [
            {
              "internalType": "uint256",
              "name": "id",
              "type": "uint256"
            },
            {
              "internalType": "bool",
              "name": "active",
              "type": "bool"
            },
            {
              "internalType": "string",
              "name": "stimulus",
              "type": "string"
            },
            {
              "internalType": "uint256",
              "name": "ansCount",
              "type": "uint256"
            },
            {
              "internalType": "string",
              "name": "answer",
              "type": "string"
            }
          ],
          "internalType": "struct Questions.Question[]",
          "name": "",
          "type": "tuple[]"
        }
      ],
      "stateMutability": "view",
      "type": "function"
    },
    {
      "inputs": [
        {
          "internalType": "string",
          "name": "stim",
          "type": "string"
        }
      ],
      "name": "initQuestion",
      "outputs": [],
      "stateMutability": "nonpayable",
      "type": "function"
    },
    {
      "inputs": [
        {
          "internalType": "uint256",
          "name": "qId",
          "type": "uint256"
        }
      ],
      "name": "scanSubmissions",
      "outputs": [
        {
          "components": [
            {
              "internalType": "address",
              "name": "submittedBy",
              "type": "address"
            },
            {
              "internalType": "uint256",
              "name": "reputation",
              "type": "uint256"
            },
            {
              "internalType": "string",
              "name": "submission",
              "type": "string"
            }
          ],
          "internalType": "struct Questions.Answer[]",
          "name": "",
          "type": "tuple[]"
        }
      ],
      "stateMutability": "view",
      "type": "function"
    },
    {
      "inputs": [
        {
          "internalType": "uint256",
          "name": "qId",
          "type": "uint256"
        },
        {
          "internalType": "address",
          "name": "user",
          "type": "address"
        },
        {
          "internalType": "uint256",
          "name": "rep",
          "type": "uint256"
        },
        {
          "internalType": "string",
          "name": "sub",
          "type": "string"
        }
      ],
      "name": "submitAnswer",
      "outputs": [],
      "stateMutability": "nonpayable",
      "type": "function"
    }
  ],
  "bytecode": "0x60806040523480156200001157600080fd5b506200005d6040518060400160405280601981526020017f5175657374696f6e20696e7374616e63652063726561746564000000000000008152506200007360201b620009611760201c565b6000600281905550600060038190555062000207565b62000113816040516024016200008a919062000180565b6040516020818303038152906040527f41304fac000000000000000000000000000000000000000000000000000000007bffffffffffffffffffffffffffffffffffffffffffffffffffffffff19166020820180517bffffffffffffffffffffffffffffffffffffffffffffffffffffffff83818316178352505050506200011660201b60201c565b50565b60008151905060006a636f6e736f6c652e6c6f679050602083016000808483855afa5050505050565b60006200014c82620001a4565b620001588185620001af565b93506200016a818560208601620001c0565b6200017581620001f6565b840191505092915050565b600060208201905081810360008301526200019c81846200013f565b905092915050565b600081519050919050565b600082825260208201905092915050565b60005b83811015620001e0578082015181840152602081019050620001c3565b83811115620001f0576000848401525b50505050565b6000601f19601f8301169050919050565b61156380620002176000396000f3fe608060405234801561001057600080fd5b50600436106100575760003560e01c80631d239ef51461005c5780633b53b63b1461007857806356fe5bb01461009457806394b99f20146100b2578063c9616bde146100e2575b600080fd5b61007660048036038101906100719190610d41565b6100fe565b005b610092600480360381019061008d9190610cc6565b610172565b005b61009c610324565b6040516100a9919061108a565b60405180910390f35b6100cc60048036038101906100c79190610c9d565b610582565b6040516100d99190611068565b60405180910390f35b6100fc60048036038101906100f79190610c5c565b6107b0565b005b600080600084815260200190815260200160002060010160006101000a81548160ff021916908315150217905550806000808481526020019081526020016000206004019080519060200190610155929190610abf565b5060036000815480929190610169906112ed565b91905055505050565b60025484106101b6576040517f08c379a00000000000000000000000000000000000000000000000000000000081526004016101ad9061111e565b60405180910390fd5b60008085815260200190815260200160002060010160009054906101000a900460ff16610218576040517f08c379a000000000000000000000000000000000000000000000000000000000815260040161020f906110fe565b60405180910390fd5b60405180606001604052808473ffffffffffffffffffffffffffffffffffffffff1681526020018381526020018281525060016000868152602001908152602001600020600080600088815260200190815260200160002060030154815260200190815260200160002060008201518160000160006101000a81548173ffffffffffffffffffffffffffffffffffffffff021916908373ffffffffffffffffffffffffffffffffffffffff1602179055506020820151816001015560408201518160020190805190602001906102ef929190610abf565b5090505060008085815260200190815260200160002060030160008154809291906103199061137a565b919050555050505050565b6060600060025467ffffffffffffffff81111561036a577f4e487b7100000000000000000000000000000000000000000000000000000000600052604160045260246000fd5b6040519080825280602002602001820160405280156103a357816020015b610390610b45565b8152602001906001900390816103885790505b50905060005b60025481101561057a576000808281526020019081526020016000206040518060a0016040529081600082015481526020016001820160009054906101000a900460ff1615151515815260200160028201805461040590611317565b80601f016020809104026020016040519081016040528092919081815260200182805461043190611317565b801561047e5780601f106104535761010080835404028352916020019161047e565b820191906000526020600020905b81548152906001019060200180831161046157829003601f168201915b50505050508152602001600382015481526020016004820180546104a190611317565b80601f01602080910402602001604051908101604052809291908181526020018280546104cd90611317565b801561051a5780601f106104ef5761010080835404028352916020019161051a565b820191906000526020600020905b8154815290600101906020018083116104fd57829003601f168201915b50505050508152505082828151811061055c577f4e487b7100000000000000000000000000000000000000000000000000000000600052603260045260246000fd5b602002602001018190525080806105729061137a565b9150506103a9565b508091505090565b6060600080600084815260200190815260200160002060030154905060008167ffffffffffffffff8111156105e0577f4e487b7100000000000000000000000000000000000000000000000000000000600052604160045260246000fd5b60405190808252806020026020018201604052801561061957816020015b610606610b76565b8152602001906001900390816105fe5790505b50905060005b828110156107a55760006001600087815260200190815260200160002060008381526020019081526020016000209050806040518060600160405290816000820160009054906101000a900473ffffffffffffffffffffffffffffffffffffffff1673ffffffffffffffffffffffffffffffffffffffff1673ffffffffffffffffffffffffffffffffffffffff168152602001600182015481526020016002820180546106cb90611317565b80601f01602080910402602001604051908101604052809291908181526020018280546106f790611317565b80156107445780601f1061071957610100808354040283529160200191610744565b820191906000526020600020905b81548152906001019060200180831161072757829003601f168201915b505050505081525050838381518110610786577f4e487b7100000000000000000000000000000000000000000000000000000000600052603260045260246000fd5b602002602001018190525050808061079d9061137a565b91505061061f565b508092505050919050565b6107f16040518060400160405280600e81526020017f7175657374696f6e49443a2025730000000000000000000000000000000000008152506002546109fa565b6040518060a001604052806002548152602001600115158152602001828152602001600081526020016040518060200160405280600081525081525060008060025481526020019081526020016000206000820151816000015560208201518160010160006101000a81548160ff0219169083151502179055506040820151816002019080519060200190610887929190610abf565b506060820151816003015560808201518160040190805190602001906108ae929190610abf565b509050507fa5fbefdc56bf0d2d586a82a9f50784dfe29ae6d3cfe3e0491131259d4f2042ee600254826040516108e592919061113e565b60405180910390a1600260008154809291906109009061137a565b9190505550600360008154809291906109189061137a565b919050555061095e6040518060400160405280601281526020017f5175657374696f6e20636f756e743a20257300000000000000000000000000008152506002546109fa565b50565b6109f78160405160240161097591906110ac565b6040516020818303038152906040527f41304fac000000000000000000000000000000000000000000000000000000007bffffffffffffffffffffffffffffffffffffffffffffffffffffffff19166020820180517bffffffffffffffffffffffffffffffffffffffffffffffffffffffff8381831617835250505050610a96565b50565b610a928282604051602401610a109291906110ce565b6040516020818303038152906040527f9710a9d0000000000000000000000000000000000000000000000000000000007bffffffffffffffffffffffffffffffffffffffffffffffffffffffff19166020820180517bffffffffffffffffffffffffffffffffffffffffffffffffffffffff8381831617835250505050610a96565b5050565b60008151905060006a636f6e736f6c652e6c6f679050602083016000808483855afa5050505050565b828054610acb90611317565b90600052602060002090601f016020900481019282610aed5760008555610b34565b82601f10610b0657805160ff1916838001178555610b34565b82800160010185558215610b34579182015b82811115610b33578251825591602001919060010190610b18565b5b509050610b419190610bad565b5090565b6040518060a00160405280600081526020016000151581526020016060815260200160008152602001606081525090565b6040518060600160405280600073ffffffffffffffffffffffffffffffffffffffff16815260200160008152602001606081525090565b5b80821115610bc6576000816000905550600101610bae565b5090565b6000610bdd610bd884611193565b61116e565b905082815260208101848484011115610bf557600080fd5b610c008482856112ab565b509392505050565b600081359050610c17816114ff565b92915050565b600082601f830112610c2e57600080fd5b8135610c3e848260208601610bca565b91505092915050565b600081359050610c5681611516565b92915050565b600060208284031215610c6e57600080fd5b600082013567ffffffffffffffff811115610c8857600080fd5b610c9484828501610c1d565b91505092915050565b600060208284031215610caf57600080fd5b6000610cbd84828501610c47565b91505092915050565b60008060008060808587031215610cdc57600080fd5b6000610cea87828801610c47565b9450506020610cfb87828801610c08565b9350506040610d0c87828801610c47565b925050606085013567ffffffffffffffff811115610d2957600080fd5b610d3587828801610c1d565b91505092959194509250565b60008060408385031215610d5457600080fd5b6000610d6285828601610c47565b925050602083013567ffffffffffffffff811115610d7f57600080fd5b610d8b85828601610c1d565b9150509250929050565b6000610da18383610f7d565b905092915050565b6000610db58383610fcd565b905092915050565b610dc681611263565b82525050565b6000610dd7826111e4565b610de1818561121f565b935083602082028501610df3856111c4565b8060005b85811015610e2f5784840389528151610e108582610d95565b9450610e1b83611205565b925060208a01995050600181019050610df7565b50829750879550505050505092915050565b6000610e4c826111ef565b610e568185611230565b935083602082028501610e68856111d4565b8060005b85811015610ea45784840389528151610e858582610da9565b9450610e9083611212565b925060208a01995050600181019050610e6c565b50829750879550505050505092915050565b610ebf81611275565b82525050565b6000610ed0826111fa565b610eda8185611241565b9350610eea8185602086016112ba565b610ef381611450565b840191505092915050565b6000610f09826111fa565b610f138185611252565b9350610f238185602086016112ba565b610f2c81611450565b840191505092915050565b6000610f44602e83611252565b9150610f4f82611461565b604082019050919050565b6000610f67602d83611252565b9150610f72826114b0565b604082019050919050565b6000606083016000830151610f956000860182610dbd565b506020830151610fa8602086018261104a565b5060408301518482036040860152610fc08282610ec5565b9150508091505092915050565b600060a083016000830151610fe5600086018261104a565b506020830151610ff86020860182610eb6565b50604083015184820360408601526110108282610ec5565b9150506060830151611025606086018261104a565b506080830151848203608086015261103d8282610ec5565b9150508091505092915050565b611053816112a1565b82525050565b611062816112a1565b82525050565b600060208201905081810360008301526110828184610dcc565b905092915050565b600060208201905081810360008301526110a48184610e41565b905092915050565b600060208201905081810360008301526110c68184610efe565b905092915050565b600060408201905081810360008301526110e88185610efe565b90506110f76020830184611059565b9392505050565b6000602082019050818103600083015261111781610f37565b9050919050565b6000602082019050818103600083015261113781610f5a565b9050919050565b60006040820190506111536000830185611059565b81810360208301526111658184610efe565b90509392505050565b6000611178611189565b90506111848282611349565b919050565b6000604051905090565b600067ffffffffffffffff8211156111ae576111ad611421565b5b6111b782611450565b9050602081019050919050565b6000819050602082019050919050565b6000819050602082019050919050565b600081519050919050565b600081519050919050565b600081519050919050565b6000602082019050919050565b6000602082019050919050565b600082825260208201905092915050565b600082825260208201905092915050565b600082825260208201905092915050565b600082825260208201905092915050565b600061126e82611281565b9050919050565b60008115159050919050565b600073ffffffffffffffffffffffffffffffffffffffff82169050919050565b6000819050919050565b82818337600083830152505050565b60005b838110156112d85780820151818401526020810190506112bd565b838111156112e7576000848401525b50505050565b60006112f8826112a1565b9150600082141561130c5761130b6113c3565b5b600182039050919050565b6000600282049050600182168061132f57607f821691505b60208210811415611343576113426113f2565b5b50919050565b61135282611450565b810181811067ffffffffffffffff8211171561137157611370611421565b5b80604052505050565b6000611385826112a1565b91507fffffffffffffffffffffffffffffffffffffffffffffffffffffffffffffffff8214156113b8576113b76113c3565b5b600182019050919050565b7f4e487b7100000000000000000000000000000000000000000000000000000000600052601160045260246000fd5b7f4e487b7100000000000000000000000000000000000000000000000000000000600052602260045260246000fd5b7f4e487b7100000000000000000000000000000000000000000000000000000000600052604160045260246000fd5b6000601f19601f8301169050919050565b7f496e76616c6964207175657374696f6e204944202d207175657374696f6e206860008201527f6173206265656e20636c6f736564000000000000000000000000000000000000602082015250565b7f496e76616c6964207175657374696f6e204944202d207175657374696f6e206460008201527f6f6573206e6f7420657869737400000000000000000000000000000000000000602082015250565b61150881611263565b811461151357600080fd5b50565b61151f816112a1565b811461152a57600080fd5b5056fea26469706673582212204fd3d3148d89b00cef60b0a470b974e25b0b7c936eda08107289f8dba76110ee64736f6c63430008040033",
  "linkReferences": {},
  "deployedLinkReferences": {}
}