{
  "_format": "hh-sol-artifact-1",
  "contractName": "Questions",
  "sourceName": "contracts/Modules/Questions.sol",
  "abi": [
    {
      "inputs": [],
      "stateMutability": "nonpayable",
      "type": "constructor"
    },
    {
      "anonymous": false,
      "inputs": [
        {
          "indexed": false,
          "internalType": "uint256",
          "name": "_questionId",
          "type": "uint256"
        },
        {
          "indexed": false,
          "internalType": "string",
          "name": "_stimulus",
          "type": "string"
        }
      ],
      "name": "QuestionCreated",
      "type": "event"
    },
    {
      "inputs": [
        {
          "internalType": "uint256",
          "name": "qId",
          "type": "uint256"
        }
      ],
      "name": "closeQuestion",
      "outputs": [],
      "stateMutability": "nonpayable",
      "type": "function"
    },
    {
      "inputs": [],
      "name": "getQuestionList",
      "outputs": [
        {
          "components": [
            {
              "internalType": "uint256",
              "name": "id",
              "type": "uint256"
            },
            {
              "internalType": "bool",
              "name": "active",
              "type": "bool"
            },
            {
              "internalType": "string",
              "name": "stimulus",
              "type": "string"
            },
            {
              "internalType": "uint256",
              "name": "ansCount",
              "type": "uint256"
            }
          ],
          "internalType": "struct Questions.Question[]",
          "name": "",
          "type": "tuple[]"
        }
      ],
      "stateMutability": "view",
      "type": "function"
    },
    {
      "inputs": [
        {
          "internalType": "string",
          "name": "stim",
          "type": "string"
        }
      ],
      "name": "initQuestion",
      "outputs": [],
      "stateMutability": "nonpayable",
      "type": "function"
    },
    {
      "inputs": [
        {
          "internalType": "uint256",
          "name": "qId",
          "type": "uint256"
        }
      ],
      "name": "scanSubmissions",
      "outputs": [
        {
          "components": [
            {
              "internalType": "address",
              "name": "submittedBy",
              "type": "address"
            },
            {
              "internalType": "uint256",
              "name": "reputation",
              "type": "uint256"
            },
            {
              "internalType": "string",
              "name": "submission",
              "type": "string"
            }
          ],
          "internalType": "struct Questions.Answer[]",
          "name": "",
          "type": "tuple[]"
        }
      ],
      "stateMutability": "view",
      "type": "function"
    },
    {
      "inputs": [
        {
          "internalType": "uint256",
          "name": "qId",
          "type": "uint256"
        },
        {
          "internalType": "address",
          "name": "user",
          "type": "address"
        },
        {
          "internalType": "uint256",
          "name": "rep",
          "type": "uint256"
        },
        {
          "internalType": "string",
          "name": "sub",
          "type": "string"
        }
      ],
      "name": "submitAnswer",
      "outputs": [],
      "stateMutability": "nonpayable",
      "type": "function"
    }
  ],
  "bytecode": "0x60806040523480156200001157600080fd5b506200005d6040518060400160405280601981526020017f5175657374696f6e20696e7374616e63652063726561746564000000000000008152506200007360201b6200089b1760201c565b6000600281905550600060038190555062000207565b62000113816040516024016200008a919062000180565b6040516020818303038152906040527f41304fac000000000000000000000000000000000000000000000000000000007bffffffffffffffffffffffffffffffffffffffffffffffffffffffff19166020820180517bffffffffffffffffffffffffffffffffffffffffffffffffffffffff83818316178352505050506200011660201b60201c565b50565b60008151905060006a636f6e736f6c652e6c6f679050602083016000808483855afa5050505050565b60006200014c82620001a4565b620001588185620001af565b93506200016a818560208601620001c0565b6200017581620001f6565b840191505092915050565b600060208201905081810360008301526200019c81846200013f565b905092915050565b600081519050919050565b600082825260208201905092915050565b60005b83811015620001e0578082015181840152602081019050620001c3565b83811115620001f0576000848401525b50505050565b6000601f19601f8301169050919050565b61142880620002176000396000f3fe608060405234801561001057600080fd5b50600436106100575760003560e01c80633b53b63b1461005c57806356fe5bb01461007857806394b99f2014610096578063c09f32e8146100c6578063c9616bde146100e2575b600080fd5b61007660048036038101906100719190610bf9565b6100fe565b005b6100806102b0565b60405161008d9190610f4f565b60405180910390f35b6100b060048036038101906100ab9190610bd0565b6104a5565b6040516100bd9190610f2d565b60405180910390f35b6100e060048036038101906100db9190610bd0565b6106d3565b005b6100fc60048036038101906100f79190610b8f565b61071c565b005b6002548410610142576040517f08c379a000000000000000000000000000000000000000000000000000000000815260040161013990610fe3565b60405180910390fd5b60008085815260200190815260200160002060010160009054906101000a900460ff166101a4576040517f08c379a000000000000000000000000000000000000000000000000000000000815260040161019b90610fc3565b60405180910390fd5b60405180606001604052808473ffffffffffffffffffffffffffffffffffffffff1681526020018381526020018281525060016000868152602001908152602001600020600080600088815260200190815260200160002060030154815260200190815260200160002060008201518160000160006101000a81548173ffffffffffffffffffffffffffffffffffffffff021916908373ffffffffffffffffffffffffffffffffffffffff16021790555060208201518160010155604082015181600201908051906020019061027b9291906109f9565b5090505060008085815260200190815260200160002060030160008154809291906102a59061123f565b919050555050505050565b6060600060035467ffffffffffffffff8111156102f6577f4e487b7100000000000000000000000000000000000000000000000000000000600052604160045260246000fd5b60405190808252806020026020018201604052801561032f57816020015b61031c610a7f565b8152602001906001900390816103145790505b50905060005b60035481101561049d5760008082815260200190815260200160002060010160009054906101000a900460ff161561048a57600080828152602001908152602001600020604051806080016040529081600082015481526020016001820160009054906101000a900460ff161515151581526020016002820180546103b9906111dc565b80601f01602080910402602001604051908101604052809291908181526020018280546103e5906111dc565b80156104325780601f1061040757610100808354040283529160200191610432565b820191906000526020600020905b81548152906001019060200180831161041557829003601f168201915b5050505050815260200160038201548152505082828151811061047e577f4e487b7100000000000000000000000000000000000000000000000000000000600052603260045260246000fd5b60200260200101819052505b80806104959061123f565b915050610335565b508091505090565b6060600080600084815260200190815260200160002060030154905060008167ffffffffffffffff811115610503577f4e487b7100000000000000000000000000000000000000000000000000000000600052604160045260246000fd5b60405190808252806020026020018201604052801561053c57816020015b610529610aa9565b8152602001906001900390816105215790505b50905060005b828110156106c85760006001600087815260200190815260200160002060008381526020019081526020016000209050806040518060600160405290816000820160009054906101000a900473ffffffffffffffffffffffffffffffffffffffff1673ffffffffffffffffffffffffffffffffffffffff1673ffffffffffffffffffffffffffffffffffffffff168152602001600182015481526020016002820180546105ee906111dc565b80601f016020809104026020016040519081016040528092919081815260200182805461061a906111dc565b80156106675780601f1061063c57610100808354040283529160200191610667565b820191906000526020600020905b81548152906001019060200180831161064a57829003601f168201915b5050505050815250508383815181106106a9577f4e487b7100000000000000000000000000000000000000000000000000000000600052603260045260246000fd5b60200260200101819052505080806106c09061123f565b915050610542565b508092505050919050565b600080600083815260200190815260200160002060010160006101000a81548160ff02191690831515021790555060036000815480929190610714906111b2565b919050555050565b61075d6040518060400160405280600e81526020017f7175657374696f6e49443a202573000000000000000000000000000000000000815250600254610934565b60405180608001604052806002548152602001600115158152602001828152602001600081525060008060025481526020019081526020016000206000820151816000015560208201518160010160006101000a81548160ff02191690831515021790555060408201518160020190805190602001906107de9291906109f9565b50606082015181600301559050507fa5fbefdc56bf0d2d586a82a9f50784dfe29ae6d3cfe3e0491131259d4f2042ee6002548260405161081f929190611003565b60405180910390a16002600081548092919061083a9061123f565b9190505550600360008154809291906108529061123f565b91905055506108986040518060400160405280601281526020017f5175657374696f6e20636f756e743a2025730000000000000000000000000000815250600254610934565b50565b610931816040516024016108af9190610f71565b6040516020818303038152906040527f41304fac000000000000000000000000000000000000000000000000000000007bffffffffffffffffffffffffffffffffffffffffffffffffffffffff19166020820180517bffffffffffffffffffffffffffffffffffffffffffffffffffffffff83818316178352505050506109d0565b50565b6109cc828260405160240161094a929190610f93565b6040516020818303038152906040527f9710a9d0000000000000000000000000000000000000000000000000000000007bffffffffffffffffffffffffffffffffffffffffffffffffffffffff19166020820180517bffffffffffffffffffffffffffffffffffffffffffffffffffffffff83818316178352505050506109d0565b5050565b60008151905060006a636f6e736f6c652e6c6f679050602083016000808483855afa5050505050565b828054610a05906111dc565b90600052602060002090601f016020900481019282610a275760008555610a6e565b82601f10610a4057805160ff1916838001178555610a6e565b82800160010185558215610a6e579182015b82811115610a6d578251825591602001919060010190610a52565b5b509050610a7b9190610ae0565b5090565b60405180608001604052806000815260200160001515815260200160608152602001600081525090565b6040518060600160405280600073ffffffffffffffffffffffffffffffffffffffff16815260200160008152602001606081525090565b5b80821115610af9576000816000905550600101610ae1565b5090565b6000610b10610b0b84611058565b611033565b905082815260208101848484011115610b2857600080fd5b610b33848285611170565b509392505050565b600081359050610b4a816113c4565b92915050565b600082601f830112610b6157600080fd5b8135610b71848260208601610afd565b91505092915050565b600081359050610b89816113db565b92915050565b600060208284031215610ba157600080fd5b600082013567ffffffffffffffff811115610bbb57600080fd5b610bc784828501610b50565b91505092915050565b600060208284031215610be257600080fd5b6000610bf084828501610b7a565b91505092915050565b60008060008060808587031215610c0f57600080fd5b6000610c1d87828801610b7a565b9450506020610c2e87828801610b3b565b9350506040610c3f87828801610b7a565b925050606085013567ffffffffffffffff811115610c5c57600080fd5b610c6887828801610b50565b91505092959194509250565b6000610c808383610e5c565b905092915050565b6000610c948383610eac565b905092915050565b610ca581611128565b82525050565b6000610cb6826110a9565b610cc081856110e4565b935083602082028501610cd285611089565b8060005b85811015610d0e5784840389528151610cef8582610c74565b9450610cfa836110ca565b925060208a01995050600181019050610cd6565b50829750879550505050505092915050565b6000610d2b826110b4565b610d3581856110f5565b935083602082028501610d4785611099565b8060005b85811015610d835784840389528151610d648582610c88565b9450610d6f836110d7565b925060208a01995050600181019050610d4b565b50829750879550505050505092915050565b610d9e8161113a565b82525050565b6000610daf826110bf565b610db98185611106565b9350610dc981856020860161117f565b610dd281611315565b840191505092915050565b6000610de8826110bf565b610df28185611117565b9350610e0281856020860161117f565b610e0b81611315565b840191505092915050565b6000610e23602e83611117565b9150610e2e82611326565b604082019050919050565b6000610e46602d83611117565b9150610e5182611375565b604082019050919050565b6000606083016000830151610e746000860182610c9c565b506020830151610e876020860182610f0f565b5060408301518482036040860152610e9f8282610da4565b9150508091505092915050565b6000608083016000830151610ec46000860182610f0f565b506020830151610ed76020860182610d95565b5060408301518482036040860152610eef8282610da4565b9150506060830151610f046060860182610f0f565b508091505092915050565b610f1881611166565b82525050565b610f2781611166565b82525050565b60006020820190508181036000830152610f478184610cab565b905092915050565b60006020820190508181036000830152610f698184610d20565b905092915050565b60006020820190508181036000830152610f8b8184610ddd565b905092915050565b60006040820190508181036000830152610fad8185610ddd565b9050610fbc6020830184610f1e565b9392505050565b60006020820190508181036000830152610fdc81610e16565b9050919050565b60006020820190508181036000830152610ffc81610e39565b9050919050565b60006040820190506110186000830185610f1e565b818103602083015261102a8184610ddd565b90509392505050565b600061103d61104e565b9050611049828261120e565b919050565b6000604051905090565b600067ffffffffffffffff821115611073576110726112e6565b5b61107c82611315565b9050602081019050919050565b6000819050602082019050919050565b6000819050602082019050919050565b600081519050919050565b600081519050919050565b600081519050919050565b6000602082019050919050565b6000602082019050919050565b600082825260208201905092915050565b600082825260208201905092915050565b600082825260208201905092915050565b600082825260208201905092915050565b600061113382611146565b9050919050565b60008115159050919050565b600073ffffffffffffffffffffffffffffffffffffffff82169050919050565b6000819050919050565b82818337600083830152505050565b60005b8381101561119d578082015181840152602081019050611182565b838111156111ac576000848401525b50505050565b60006111bd82611166565b915060008214156111d1576111d0611288565b5b600182039050919050565b600060028204905060018216806111f457607f821691505b60208210811415611208576112076112b7565b5b50919050565b61121782611315565b810181811067ffffffffffffffff82111715611236576112356112e6565b5b80604052505050565b600061124a82611166565b91507fffffffffffffffffffffffffffffffffffffffffffffffffffffffffffffffff82141561127d5761127c611288565b5b600182019050919050565b7f4e487b7100000000000000000000000000000000000000000000000000000000600052601160045260246000fd5b7f4e487b7100000000000000000000000000000000000000000000000000000000600052602260045260246000fd5b7f4e487b7100000000000000000000000000000000000000000000000000000000600052604160045260246000fd5b6000601f19601f8301169050919050565b7f496e76616c6964207175657374696f6e204944202d207175657374696f6e206860008201527f6173206265656e20636c6f736564000000000000000000000000000000000000602082015250565b7f496e76616c6964207175657374696f6e204944202d207175657374696f6e206460008201527f6f6573206e6f7420657869737400000000000000000000000000000000000000602082015250565b6113cd81611128565b81146113d857600080fd5b50565b6113e481611166565b81146113ef57600080fd5b5056fea2646970667358221220a985357c7ab9bd596d3108be7741e862175cb78a7f328f21e3b957ccf6bc111664736f6c63430008040033",
  "linkReferences": {},
  "deployedLinkReferences": {}
}